:100000000C94C2020C9409030C9409030C94090388
:100010000C9409030C9409030C9409030C94090330
:100020000C9409030C9409030C94FC270C94CF281E
:100030000C94941E0C9409030C9409030C9409036A
:100040000C9409030C9409030C9409030C94090300
:100050000C9409030C94FC1E0C9409030C940903E2
:100060000C9409030C9409030C9409030C940903E0
:100070000C9409030C9409030C9409030C940903D0
:100080000C9409030C9409030C9409030C940903C0
:100090000C9409030C9409030C9409030C940903B0
:1000A0000C9409030C9409030C940903F1A1290091
:1000B0001E001F0020002100220023002400250034
:1000C000260027002D002E0035002A002B001400EA
:1000D0001A000800150017001C0018000C00120080
:1000E00013002F0030000000310000200400160033
:1000F000070009000A000B000D000E000F0033007E
:100100003400000000002800E10000201D001B005A
:100110000600190005001100100036003700E50048
:10012000380052003800E000E200E3000000000068
:1001300000002C00000000000000E700E600500076
:1001400051004F00005C3A003B003C003D003E0087
:100150003F0040004100420043004400450035009C
:100160004C00C25CC55CC75CC95CC35CBF5CBE5C68
:10017000000000000000000000000000000000007F
:100180000020C65CC85CCA5CC45CC15CBD5C00008D
:100190000000000000000000000000002800E10056
:1001A000002000006500000000000000AA00A90077
:1001B000A8000000E50000004B004900E000E3005B
:1001C000E2000000000000002C0000000000000021
:1001D000E700E600BC004E00BB0000047F3F1F6448
:1001E0003214643214783C1E1E140A05222325267C
:1001F00028292A2C2D2F3032333536383A3B3D3ED4
:100200004042434547494A4C4E5051535557595A1D
:100210005C5E6062646668696B6D6F717375777937
:100220007B7D7F81838587898A8C8E909294969836
:100230009A9C9E9FA1A3A5A7A8AAACAEAFB1B3B448
:10024000B6B8B9BBBCBEBFC1C2C3C5C6C7C9CACB9D
:10025000CCCDCED0D1D2D2D3D4D5D6D7D7D8D9D968
:10026000DADADBDBDBDCDCDCDCDCDDDDDDDDDCDCD1
:10027000DCDCDCDBDBDBDADAD9D9D8D7D7D6D5D4EE
:10028000D3D2D2D1D0CECDCCCBCAC9C7C6C5C3C2BA
:10029000C1BFBEBCBBB9B8B6B4B3B1AFAEACAAA80F
:1002A000A7A5A3A19F9E9C9A98969492908E8C8AC3
:1002B00089878583817F7D7B79777573716F6D6B9E
:1002C0006968666462605E5C5A5957555351504E76
:1002D0004C4A4947454342403E3D3B3A3836353328
:1002E00032302F2D2C2A292826252322FFAA7F559C
:1002F00040000000000000000000000101010101B9
:1003000001010101020202020202020203030303CD
:100310000303030404040404050505050506060695
:10032000060607070707080808080909090A0A0A4C
:100330000B0B0B0C0C0C0D0D0D0E0E0E0F0F1010E9
:10034000101111121213131414151516161717186D
:100350001819191A1A1B1C1C1D1D1E1F1F202121D4
:1003600022232324252526272828292A2B2C2C2D17
:100370002E2F30313132333435363738393A3B3C31
:100380003D3E3F404142434445464748494B4C4D22
:100390004E4F50525354555758595A5C5D5E6061E8
:1003A00063646567686A6B6C6E6F71727476777977
:1003B0007A7C7D7F8182848687898B8D8E909294D2
:1003C0009597999B9D9FA1A2A4A6A8AAACAEB0B2F6
:1003D000B4B6B9BBBDBFC1C3C5C8CACCCED0D3D5D6
:1003E000D7DADCDEE1E3E6E8EAEDEFF2F4F7F9FC78
:1003F000FF0403300000000A0344006F00360030A1
:100400000000002E03530068006F0070006B006551
:10041000007900200062007900200044006F00791C
:100420000075002000530074007500640069006FBF
:100430000000000403090409023B00020100A0FAC5
:10044000090400000103010100092111010001223A
:1004500040000705810308000A09040100010300A8
:10046000000009211101000122C0000705820320BC
:10047000000A1201100100000008EDFE606001009A
:100480000102030105010902A10185020901A10080
:100490000509190129051500250195057501810238
:1004A0009501750381010501093009311581257F09
:1004B00095027508810609381581257F9501750813
:1004C0008106050C0A38021581257F950175088182
:1004D00006C0C005010980A101850316010026039D
:1004E000001A81002A8300751095018100C0050C57
:1004F0000901A1018504160100269C021A01002AA7
:100500009C02751095018100C005010906A10185B5
:1005100005050719E029E7150025019508750181F2
:1005200002050819012905950575019102950175C6
:100530000391010507190029EF1500250195F075B4
:10054000018102C005010906A101050719E029E79B
:100550001500250195087501810295017508810135
:100560000508190129059505750191029501750385
:1005700091010507190029FF150026FF0095067552
:10058000088100C011241FBECFEFDAE0DEBFCDBF6F
:1005900004B603FE27C08091B4029091B502A091E9
:1005A000B602B091B7028730904BA740B04BD1F460
:1005B0001092B4021092B5021092B6021092B702D5
:1005C00014BE84B7877F84BF0FB6F894A895809136
:1005D0006000886180936000109260000FBEE0E0D0
:1005E000F8E3099511E0A0E0B1E0E8EAF6E502C021
:1005F00005900D92AC35B107D9F722E0ACE5B1E03A
:1006000001C01D92A43BB207E1F70E9429250C947A
:10061000522B0C94000044E664E684E60C94B50C7E
:100620000C942103229A2A9A08950E94CF080E94CE
:1006300012030C940B0381FF02C02A9808952A9A92
:100640000895089581E0089581E008950C942403AD
:100650001F93CF93DF9300D000D01F92CDB7DEB7AA
:1006600049835A836B832091960189819A81211154
:100670001BC06623A9F00E94D81B182F682F898100
:100680009A810E947E1B69817A81812F0F900F9041
:100690000F900F900F90DF91CF911F910C94220635
:1006A0000E94AD1B182FEFCF0E94D81B69817A8161
:1006B000EDCFFC01408151816281738184810C9472
:1006C00028030C941003E82FE295EF70F0E032A1BC
:1006D000282F2F7081E090E001C0880F2A95EAF75B
:1006E0008095832382A30895CF92DF92EF92FF92A9
:1006F000873028F5811124C0909180009F779093D6
:100700008000282F30E0AFEFBFEF0E94E32A26E001
:1007100030E040E050E00E94BB2AC9012C3764E180
:10072000360790F469E070E00E94932A7093890084
:1007300060938800FF90EF90DF90CF90089586E05F
:10074000909180009068DBCF2A50374D4F4F5F4F1C
:10075000942F832F722F662725EF38E241E050E077
:100760000E94BB2A69017A01CA01B9010E94832A49
:100770009B01AC01C701B6010E94832A672F782F25
:10078000892F99276115710521E08207910571F67E
:100790006FEF7FEFCBCF259A85E30E94630382E85A
:1007A0008093800089E1809381008FEF9FEF909389
:1007B0008700809386000C94B8220E941F1D81112F
:1007C00002C00E94AC1D0E94CB030C9415030C9434
:1007D0001B0308950E948D160E94E9032FEF84E306
:1007E0009CE0215080409040E1F700C000000C9454
:1007F000221F0F931F93CF93DF938C010E94590305
:10080000EC01B8010E942603882309F4CCC0B8018A
:10081000CE010E946610882309F4C5C0CA3C8CE54D
:10082000D80709F402C108F054C0C33CECE5DE0768
:1008300009F4D3C048F5C5318CE5D807A8F4C23017
:100840009CE5D90708F056C1C115ECE5DE0709F4AF
:10085000A5C0C130DC4509F4ACC0C801DF91CF911F
:100860001F910F910C942203C6318CE5D80709F42F
:10087000C5C1C23CDC4589F7F8018281882309F4AF
:1008800092C00E94E00E8FC0C63CECE5DE0709F482
:10089000BAC080F4C43C8CE5D80709F4A9C0C53CB3
:1008A000DC45D9F6F8018281882309F47CC00E94D6
:1008B000690C79C0F8018281C83CFCE5DF0709F4C6
:1008C000AEC008F4A7C0882309F46DC00E94A30C31
:1008D0006AC0C13DECE5DE0709F4DBC070F5CD3C34
:1008E0008CE5D80709F4B1C088F4CB3CECE5DE0711
:1008F00009F4A3C0CC3CDC4509F0AFCFF8018281FC
:10090000882309F450C00E94030B4DC0F801828176
:10091000CF3CFCE5DF0709F4AEC008F49FC0882394
:1009200009F441C00E94EA0A893028F00E94EA0ACC
:100930008E3008F465C089E08EC0C53DECE5DE0769
:1009400009F4CAC0B0F4F8018281C33DFCE5DF07B9
:1009500009F4BDC008F4ADC0882329F10E94EA0A59
:10096000893128F00E94EA0A823208F449C089E1FC
:1009700072C0CD3DECE5DE0709F4B5C0CE3DFCE527
:10098000DF0721F1CC3DDC4509F067CFF80182811A
:10099000882349F080E00E94C42505C0F8018281C7
:1009A00081110E94EA0380E0DF91CF911F910F91A6
:1009B0000895F80182818823B1F390912E02892F46
:1009C0008E7F90FF816080932E02EDCFF8018281AF
:1009D000882349F30E94AC1DE6CFF8018281882369
:1009E00011F30E946D1C827259F00E94D20EDBCF6F
:1009F000F80182818823B9F20E946D1C8272A9F3EA
:100A00000E94C50ED0CFF8018281882361F20E9436
:100A1000760CC9CF882339F20E94850CC4CF882375
:100A200009F4C1CF0E94940CBECFF80182818823C3
:100A300009F4B9CF0E94B20CB6CFF80182818823A5
:100A400009F4B1CF0E94F20AAECFF8018281882367
:100A500009F4A9CF81E00E94D50EA5CF882309F41F
:100A6000A2CF0E94EA0A823020F00E94EA0A853072
:100A700038F282E0F0CF882309F495CF0E94EA0A89
:100A8000863028F00E94EA0A883008F4B9CF86E060
:100A9000E2CFF8018281882309F485CF0E94EA0A17
:100AA0008F3028F00E94EA0A843108F4A9CF8FE041
:100AB000D2CF882309F477CF0E94EA0A853128F043
:100AC0000E94EA0A873108F49BCF85E1C4CF8823CE
:100AD00009F469CF88E1BFCFF8018281882309F446
:100AE00062CF83E2B8CFF8018281882309F45BCF1B
:100AF00082E051CFF8018281882309F4AECE0E94B2
:100B00001F1D811102C00E94AC1D0E943C1D90E07F
:100B10009093A5028093A402FE01E350FC458091CE
:100B2000A4028160E231F105C8F4E756FA4F0C9453
:100B3000DD2AAB05B705BB05BF05C305C705CB055A
:100B4000CF05D305D705DB05DF05E305E705EB0595
:100B5000EF05F305F7058091A40282608093A4025B
:100B60008091A4020E94401D0E948D161CCF80918E
:100B7000A4028460F3CF8091A4028860EFCF8091BB
:100B8000A4028061EBCF8091A4028062E7CF8091C4
:100B9000A4028064E3CF8091A4028068DFCF8091BB
:100BA000A4028460EACF8091A4028E7FD7CF809187
:100BB000A4028D7FD3CF8091A4028B7FCFCF809171
:100BC000A402877FCBCF8091A4028F7EC7CF809174
:100BD000A4028F7DC3CF8091A4028F7BBFCF809171
:100BE000A4028F77BBCF8091A4028B7FEACF909134
:100BF000A402892F97FB87F98058B0CF0E946D1C03
:100C0000F8019281992381F08A7A91E009F490E0C9
:100C100090935C01811106C089E20E94481C0E94E9
:100C2000BC1CC1CE85E3F9CF80915C01811104C069
:100C300089E20E944F1CF3CF85E3FBCF90E080E078
:100C400008950895972F70E02FE0929F600D711D19
:100C50001124FB019BE4899FE00DF11D1124EE0F8F
:100C6000FF1FE255FF4F859194910895FC01EE0F0F
:100C7000FF1FE455FF4F859194910895CF93DF9323
:100C80000E9422060E942C08EC018115914508F073
:100C90004BC0C11580E5D80708F036C1C83ED10564
:100CA00010F5C03ED10580F5C83AD10570F4C53ABB
:100CB000D10508F0B4C0C130D10531F118F0C4300D
:100CC000D10510F5D0E0C0E01FC0CF3BD10508F43E
:100CD000B1C0CE01805C9109C03CD10598F30E945F
:100CE0003606EC0111C0C11520E3D20788F4C11506
:100CF00080E2D80708F0FFC0C03FD10518F3CF3F0E
:100D0000D10509F008F4F5C0CE01DF91CF91089527
:100D1000C11520E4D20708F0F4C0CE019927D3FF13
:100D2000EDC0EC01D86CF0CFC11589E5D80768F5A6
:100D3000C11528E5D20708F030C1C11584E5D807F0
:100D400078F4C11523E5D20708F00EC1C11582E57C
:100D5000D80708F0F5C0DC2FCC27C16FD06AD4CFFC
:100D6000C11525E5D20708F413C1C11586E5D807DA
:100D700008F0A8CF8C2F0E94AC08C82FD0E0DC2F41
:100D8000CC27CC27DF71D062BFCFCD3B2CE5D2077B
:100D900009F40EC1F0F4CB3B2CE5D20709F402C1F3
:100DA00008F003C1C1152AE5D20708F08BCF8C2FBC
:100DB0008F700E94AC0834E0D695C7953A95E1F75C
:100DC000CF70D0E0DC2FCC27D06A8F70806EC82B1C
:100DD0009BCFC03C8CE5D80709F4F0C060F4CE3B53
:100DE0008CE5D80709F4E7C0CF3BDC4509F06ACFB2
:100DF000C0E0D2ED89CFCE0190568115904208F027
:100E000061CF8D2F8F710E94AC08DD27D06290E0FA
:100E1000982F882788279F71C82BD92B75CFC53A63
:100E2000D10509F4CEC0C63AD10509F4CDC0C3E856
:100E3000D0E46ACFC83AD10509F4C9C0C93AD1058E
:100E400009F4C8C0CA3AD10509F4C7C0CB3AD105E4
:100E500009F4C6C0CC3AD10509F4C5C0CB3BD105D5
:100E600009F4C4C0CC3BD10509F4C3C0CD3AD105C7
:100E700009F4C2C0C03BD10509F4C1C0CE3AD105C6
:100E800009F4C0C0CF3AD10509F4BFC0C13BD105B8
:100E900009F4BEC0C23BD10509F4BDC0C33BD105B6
:100EA00009F4BCC0C43BD10509F4BBC0C53BD105A6
:100EB00009F4BAC0C63BD10509F4B9C0C73BD10596
:100EC00009F4B8C0C83BD10509F4B7C0C93BD10586
:100ED00009F4B6C0CD3BD10509F4B5C0CE3BD10570
:100EE00009F4B4C0CA3BD10509F0B3C0CAE2D6E4E4
:100EF0000BCFD06509CFCE019F70F1CEEC01D06C45
:100F000003CFDF70D06A00CFCE01F4E096958795CD
:100F1000FA95E1F783709C2F937021E030E002C0D6
:100F2000220F331F9A95E2F73C68382BC695C69579
:100F3000C37080E2C89FE0011124C22BD32BE4CE02
:100F4000CE018370992721E030E002C0220F331FC9
:100F50008A95E2F7C695C69580E2C89FE001112404
:100F6000C22BD32BDC68D0CECE018370992721E031
:100F700030E002C0220F331F8A95E2F7C695C6956E
:100F800080E2C89FE0011124C22BD32BDA68BCCECB
:100F9000DC2FCC27C46FD06AB7CEDC2FCC27C06F34
:100FA000D06AB2CEC0E0D4EDAFCEC0E0D5EDACCECD
:100FB000C0E0D1EDA9CEC0E0D0EDA6CEC0E0D3ED2B
:100FC000A3CEC1E8D0E4A0CEC2E8D0E49DCEC2EE6C
:100FD000D4E49ACEC9EED4E497CECAEED4E494CE4B
:100FE000C5EBD4E491CEC6EBD4E48ECEC3EBD4E40F
:100FF0008BCEC4EBD4E488CEC7EBD4E485CECCEC66
:10100000D4E482CECDECD4E47FCEC3E8D5E47CCE6C
:10101000CAE8D5E479CEC2E9D5E476CEC4E9D5E410
:1010200073CEC1E2D6E470CEC3E2D6E46DCEC4E2A4
:10103000D6E46ACEC5E2D6E467CEC6E2D6E464CE94
:10104000C7E2D6E461CECFE6D4E45ECEC0E7D4E416
:101050005BCEC0E0D4E458CE8238910549F1B0F4BB
:101060008133910509F45CC048F48932910509F493
:1010700052C08A32910509F458C00895853391050C
:1010800009F444C08933910599F00895833E910590
:1010900031F138F4803E910591F0823E9105B1F036
:1010A0000895863E910511F1873E910541F108951D
:1010B0002091A4022370C9F080EE90E00895209161
:1010C000A40220FF12C089E390E008952091A402B9
:1010D00022FF0BC024FF2EC090E080E008952091F5
:1010E000A40222FD2AC024FDF7CF08952091A40276
:1010F00023FFFBCF24FDF0CF87EE90E008952091F1
:10110000A40223FFF0CF86EE90E008952091A40280
:1011100025FD16C008952091A40225FD14C0089550
:101120002091A40226FD12C008952091A40226FD5C
:1011300010C0089583EE90E0089582EE90E0089547
:1011400089E290E0089585E390E008958AE290E0D6
:10115000089581E390E0C9CF9091A40292FF06C068
:10116000282F2871283069F4877F846093FF06C098
:10117000282F2871283161F4877E846194FD877E51
:101180000895282F2471243089F78B7F8860EECF53
:10119000282F2471243191F78B7E8861EFCF089539
:1011A000E82FF0E0EE0FFF1FE35AFE4F80819181A0
:1011B00008950895CF93DF93A2E3B1E027E331E0F0
:1011C00061E070E09D91E92FE295EF70F0E041A1C0
:1011D0009F70EB0102C0CC0FDD1F9A95E2F7CE01A4
:1011E0008095842381A32A173B0761F7A3E2B1E02E
:1011F00061E070E08D91E82FE295EF70F0E041A1A1
:101200008F709B0101C0220F8A95EAF7922F90956B
:10121000942391A382A1822B82A3D1E0A233BD07A4
:1012200049F7109268011092670110925E011092C6
:101230005D0110926A011092690110926001109292
:101240005F0110926C0110926B011092620110927A
:10125000610110926E0110926D0110926401109262
:1012600063011092700110926F011092660110924A
:10127000650185E00E94D309DF91CF910C94DD03D5
:101280006F927F929F92AF92BF92CF92DF92EF9236
:10129000FF920F931F93CF93DF93A7E6B1E092E302
:1012A000692E91E0792E20E0EE24E394F12CAD90AC
:1012B000BC90119711961C921E92E30189913E01F8
:1012C000E82FE295EF70F0E091A18F70B70101C0B7
:1012D000660F8A95EAF7892F862B81A382A1962E25
:1012E0009094892182A3D0EADA95F1F783E2C82E9F
:1012F00081E0D82E50E040E0E60139916E01032FE5
:1013000002950F7010E0E80188A10D911C911197D2
:1013100090E03F7002C0959587953A95E2F780FD81
:101320003FC0C701042E02C0880F991F0A94E2F73C
:10133000082B192B11961C930E934F5F5F4F4F3064
:101340005105D1F681A1892181A382A1682B62A3D5
:1013500081E04D915C9111974A155B0509F480E09D
:10136000282B1296D7E36D16D1E07D0609F09FCFAA
:1013700045E06DE571E087E691E00E94D4090E94A6
:10138000610381E0DF91CF911F910F91FF90EF906A
:10139000DF90CF90BF90AF909F907F906F90089517
:1013A00090E080E0C5CF0895FF920F931F93CF93F5
:1013B000DF93F82E092F162FD72FC42F222349F0A1
:1013C00081E0809373010E94C61E90937201809306
:1013D0007101809173018823A1F080917101909136
:1013E00072010E94D21E069760F0EF2DF02FA12F00
:1013F000BD2F90E080E0D0E08C179D0744F0109264
:101400007301DF91CF911F910F91FF90089521916A
:1014100031912D933D930196EFCFCF92DF92EF92D2
:10142000FF920F931F93CF93DF93462FF72E382F02
:10143000282FE82FF0E071110EC0EF50FD4F64919E
:10144000762F862FDF91CF911F910F91FF90EF9014
:10145000DF90CF900895072F10E056E0659FC00100
:101460001124CFEFD0E0BE010E94932A842F90E098
:10147000880F991FA5E5A69FA001A79F500D1124D5
:10148000841B950BE82EEE0CE80ECE01801B910B11
:101490008E9FA0018F9F500D9E9F500D1124952F60
:1014A000EF9CD0011124AB2FBB276E01CA1ADB0AB7
:1014B000CE9ED001CF9EB00DDE9EB00D11248B2F9D
:1014C0006E01CE18D108C09E7001C19EF00CD09E56
:1014D000F00C1124EF2CFF24CE19DF09CE9F8001E0
:1014E000CF9F100DDE9F100D11246230710521F188
:1014F00050F46115710571F06130710569F0832F49
:10150000252F9B2F09C064307105E9F0C0F06630CB
:101510007105A9F7832F212FE82FF0E0EF50FD4F41
:101520006491E22FF0E0EF50FD4F7491E92FF0E06D
:10153000EF50FD4F849186CF852F912FEDCF852FD2
:10154000932F2B2FE9CF252F932F812FE5CF0895B0
:10155000CF93DF93762FE901682F842F0E940D0A25
:10156000698378838A83DF91CF91089580915D02AA
:10157000982F9E7F29F48170826080935D02089588
:101580008A34E8F381708864F8CF88E090E00C94A6
:10159000122BCF92DF92EF92FF926B017C010E949F
:1015A000B60AB701A60188E090E0FF90EF90DF90C7
:1015B000CF900C94302BEDE5F2E083E08083118234
:1015C0008FEF828383831482608171818281938112
:1015D0000C94C90A80915D0280FF02C0869508952F
:1015E00080E0089580916102833018F48F5F8093CA
:1015F000610260915D0270915E0280915F02909144
:1016000060020C94C90A80916102882319F081500C
:101610008093610260915D0270915E0280915F0231
:10162000909160020C94C90A6091040170E080916D
:101630005D0280FF0AC08091780123E0829FC00193
:1016400011248E599D4F0C94EF0F8091770190914A
:10165000030123E0829FF0011124EE59FD4F891709
:1016600050F71182108212828F5F3396F8CF9091DB
:101670005D0290FF14C0909177012091030133E047
:10168000939FF0011124EE59FD4F921710F00C9426
:10169000140B8183608342839F5F3396F6CF089556
:1016A000CF93DF9300D01F92CDB7DEB790915D024C
:1016B00090FF0AC09E012F5F3F4F0E94A80A4B81F6
:1016C00069818A810E94370B0F900F900F90DF91F4
:1016D000CF910895CF93DF93EC01EC81F0E0E451DA
:1016E000FE4F4491EDE5F2E0628181810E94500B52
:1016F0008C818F5F8C83DF91CF910895CF93DF939F
:10170000EC01EDE5F2E0438162818C810E94500B97
:101710008C818F5F8C83DF91CF9108950F931F93FE
:10172000CF93DF9300D01F92CDB7DEB78C018091AD
:10173000740181110AC09E012F5F3F4F4FEF6FEF81
:101740000E94A80A8A8180937401F8018481813003
:1017500069F038F040917401823009F040E080E097
:1017600003C08091740140E060E004C060917401A6
:1017700040E080E00E94370BF801848190E0019600
:1017800063E070E00E94A72A84830F900F900F906F
:10179000DF91CF911F910F910895AF92BF92CF9299
:1017A000DF92EF92FF920F931F93CF93DF9300D0BE
:1017B0001F92CDB7DEB7182FF62E042FE22E909190
:1017C0005D0290FF29C0E92FE695AE2FB0E0A95C3D
:1017D000BE4F8C91809380019E7F923059F59E017F
:1017E0002F5F3F4F812F0E94A80A4B8169818A8118
:1017F0000E94370B10935E02F0925F02009360022A
:10180000EE2051F060915D0270915E0280915F0266
:10181000909160020E94C90A0F900F900F90DF9183
:10182000CF911F910F91FF90EF90DF90CF90BF90DD
:10183000AF900895823019F400916002DBCF8630BA
:1018400019F410915E02D6CF8930D9F3893191F61F
:10185000E9518E2F8170D82EE695F0E0E451FD4FCE
:10186000A590B490C12CBB2460910201C61618F05B
:101870000E94140BBFCF2C2D30E0A29EC001A39E6E
:10188000900DB29E900D112470E00E94932A812F3A
:10189000D11013C0860F40917701420F532F511D75
:1018A0009A01220F331F240F351F2E593D4F402F11
:1018B0006F2D0E94A80AC394D7CF861BECCFEDE50D
:1018C000F2E09181282F438162818AE0890F0C9494
:1018D000CD0B81E00C945F0CEDE5F2E09181282FB7
:1018E0004381628186EF890F0C94CD0B81E00C94CB
:1018F0006C0CEDE5F2E062812FE0620F08F46FEF0F
:10190000282F438181810C94CD0B81E00C94790CBC
:10191000EDE5F2E062812FE0621B08F460E0282F21
:10192000438181810C94CD0B81E00C94880CEDE512
:10193000F2E043812FE0420F08F44FEF282F62813D
:1019400081810C94CD0B81E00C94970CEDE5F2E0D5
:1019500043812FE0421B08F440E0282F62818181FF
:101960000C94CD0B81E00C94A60C21E00C94CD0BD3
:1019700020E00C94CD0BEF92FF921F93CF93DF9357
:10198000EC0110E0EE24EA94F12C609102011617AC
:1019900070F00E94140B9A818C8190FF27C08F5F9A
:1019A0008C83DF91CF911F91FF90EF90089520914C
:1019B0007701422F410F5527551FCA019A01220F67
:1019C000331F280F391F2E593D4F70E0C7010E9469
:1019D000A72A962F8C814091600260915F02199F27
:1019E000800D11240E94A80A1F5FCFCF8150D8CF4D
:1019F000BF92CF92DF92EF92FF920F931F93CF93FC
:101A0000DF93FC0182810FEF80FF01E010E0809105
:101A100002011817C0F00E94140B8091760101306A
:101A200009F04DC0811102C0809102018150809364
:101A30007601DF91CF911F910F91FF90EF90DF9092
:101A4000CF90BF900895C0917701C12ED12CCC0DBD
:101A5000DD2DD11DCE01880F991FC80FD91FCE597A
:101A6000DD4F198218821A8234E0E32EF12CB12C5A
:101A7000809176018B0D87FF03C090910201890F41
:101A8000082E000C990BC816D90691F480916002BB
:101A90008E9DA0018F9D500D11245595479555950C
:101AA00047959E0160915F0280915E020E94A80AA4
:101AB000B00EF1E0EF1AF108D9F61F5FA8CF90E061
:101AC00001966091020170E00E94A72AB0CF0F93A7
:101AD0001F93CF93DF93809177019091030123E0CF
:101AE000829FF0011124EE59FD4F891740F1C0E0AB
:101AF000D3E060910201C61740F10E94140B2091BF
:101B0000000180917501820F809375019091010110
:101B1000920F90930101191654F4082E000C990BA2
:101B2000409102014150550B841795071CF02195F7
:101B300020930001DF91CF911F910F9108951182A1
:101B4000108212828F5F3396D0CF0C2F10E070E09E
:101B5000C8010E94A72A20917701820F482F50E0E8
:101B600020917501022E000C330B02171307BCF0F5
:101B700020910101022E000C330B201731077CF05D
:101B80008D9F900111242E593D4F4091600260912C
:101B90005F0280915E020E94A80ACF5FAACFFA017D
:101BA000EE0FFF1FE40FF51FEE59FD4F118210825B
:101BB0001282F3CF0F931F93CF93DF938C01FC011D
:101BC0008481958101968170992795838483C0E0F3
:101BD000D5E580910201C81730F0DF91CF911F91B8
:101BE0000F910C94140B20917701422F4C0F552725
:101BF000551FCA019A01220F331F280F391F2E5972
:101C00003D4F8C2F8695F80144815581840F952F87
:101C1000911D81704091600260915F028D9F802DC7
:101C200011240E94A80ACF5FD4CF0F931F93CF93A4
:101C3000DF93EC0110E000E0909102019017110693
:101C400009F06CF40E94140B8C8190E00196817075
:101C500099278C83DF91CF911F910F910895209147
:101C60007701A801420F511D9A01220F331F240F43
:101C7000351F2E593D4F4C8160915F0280915E026D
:101C800096959017110651F04CF0442349F040917D
:101C900060020E94A80A0F5F1F4FCECF4423B9F302
:101CA00040E0F7CFEDE5F2E080818E7F80836081B8
:101CB0007181828193810E94C90A109281012FEF64
:101CC00080E792E0215080409040E1F700C00000A2
:101CD0000C94140B60915D02669570E04BE050E04F
:101CE00085E091E00E94FD2A892B19F481E0809320
:101CF00081010E94C61E90937A0180937901089514
:101D000090915D0290FF35C09170811128C0926062
:101D100090935D02662351F060915D0270915E02C6
:101D200080915F02909160020E94C90A60915D02F9
:101D3000669570E04BE050E085E091E00E94FD2A5E
:101D4000892BA1F01092810181E080937C01409168
:101D5000600260915F0280915E020C94B80C853243
:101D600010F09864D5CF880F982BD2CF0E946A0EBE
:101D7000EBCF0895682F90915D02969581E0890FD1
:101D8000853208F081E00C94800E81E00C94BA0E4C
:101D9000682F90915D0296958FEF890F09F484E288
:101DA0000C94800E81E00C94C80E61E00C94800EBF
:101DB000EDE5F2E080818160808386950C94D50EFC
:101DC00080915D0280FD0C94520E0C94D80E60E060
:101DD0000C94800E80917F01811133C080912E027E
:101DE000816080932E020E941F1D811104C00E94F9
:101DF000AC1D0E94DB0A0E94C50A60935D027093CD
:101E00005E0280935F02909360026E7F61F40E9495
:101E1000DB0A0E94C50A60935D0270935E028093A4
:101E20005F02909360020E94B60A10928101809135
:101E30005D0280FF03C086950E94E70E81E08093DB
:101E40007F0108950F931F93CF93DF9380918101BA
:101E5000882309F48DC080918001E0915D02E695B0
:101E6000E81BE0937B018230C9F5F0E0E851FE4FBA
:101E7000E491CE2FD0E00AE61BE080917C0188231C
:101E800089F010927C010E94C61E9E01209530951B
:101E9000820F931F90937A018093790110927E01B3
:101EA00010927D018091790190917A010E94D21E59
:101EB0008C179D0708F45CC0E0917901F0917A01DC
:101EC000CE0FDF1FD0937A01C093790189E791E0AB
:101ED000F801DF91CF911F910F910994863049F459
:101EE000F0E0EB51FE4FE491CE2FD0E00EE71BE087
:101EF000C4CF893051F4E695F0E0EE51FE4FE49105
:101F0000CE2FD0E00BEB1CE0B8CF8F3051F4E6952C
:101F1000F0E0E152FE4FE491CE2FD0E008EF1CE05C
:101F2000ACCF853149F4F0E0E452FE4FE491CE2F7E
:101F3000D0E007E61DE0A1CFC8EED3E00AED1DE03A
:101F4000883109F49ACF833239F4EAEDF1E0C59192
:101F5000D4910EE81BE091CFC4EFD1E005E11EE083
:101F6000843209F48ACFC0EDD7E007EA1AE085CFC2
:101F7000DF91CF911F910F91089531B3242F2095B8
:101F8000232331B3432B3FB7F894FC01680F791F2B
:101F9000E617F70711F43FBF0895819198E041BB20
:101FA000000000C087FF21BB880F000000C000C0F8
:101FB00000C021BB00C09A9591F7EACF20B3242B33
:101FC00020BB9B01220F331F620F731F0E94BD0FA6
:101FD00087EC90E00197F1F700C00000089540E21F
:101FE0000C94DE0F0F931F93CF93DF93C62FD42F44
:101FF000022FFC0182818823C9F0609384010E9432
:10200000C61E909383018093820180E28C0F8830FA
:1020100008F057C0C77081E001C0880FCA95EAF781
:10202000DF91CF911F910F910C948E131091840129
:10203000161335C080918201909183010E94D21EB7
:10204000883C910560F5C0E2CD0F1D17B9F080E224
:10205000810F883040F4177081E001C0880F1A9515
:10206000EAF70E949513C83028F581E09D2F9770FC
:1020700001C0880F9A95EAF70E948E13802F0E9464
:102080007B13C830F0F4D77081E001C0880FDA9577
:10209000EAF7DF91CF911F910F910C94951380E295
:1020A0008C0F883070F4C77081E001C0880FCA952A
:1020B000EAF7EFCF802FDF91CF911F910F910C9412
:1020C0007B13DF91CF911F910F9108959C01CB015C
:1020D000203F4CE5340731F190F4283DFCE53F0703
:1020E000E9F0293D4CE5340769F1273D3C4579F499
:1020F00026E241EE61EE0E94F20F80E00895223F59
:10210000FCE53F07B9F090F0233F3C45B9F0FC01F6
:1021100082818823D1F010928401089527E245EE50
:1021200065EEE9CF26E241EE60EEE5CF27E245EE2F
:1021300064EEE1CF26E241EE62EEDDCF27E245EE2E
:1021400066EED9CF28E241E0EBCF81E0089590938D
:102150008A01809389010895E0918901F0918A01B3
:10216000309721F00190F081E02D099480E00895EE
:10217000E0918901F0918A01309799F02091220134
:10218000222359F02091A40227FF07C0DC012C91E3
:1021900011962C93119725E02C930280F381E02D6A
:1021A00009940895E0918901F0918A01309739F0FE
:1021B00022E0DC012C930480F581E02D0994089540
:1021C00020918701309188012817390771F0909389
:1021D000880180938701E0918901F0918A0130970D
:1021E00021F00680F781E02D099408952091850162
:1021F000309186012817390771F0909386018093FA
:102200008501E0918901F0918A01309721F00084E5
:10221000F185E02D0994089585B7806885BF85B75D
:10222000806885BF0895089508950C94131108954A
:102230000C9417110E940C110E9414110C9415118A
:1022400081E008950E94BD1E0E94DA080E94911F3D
:102250000E94B8220E94EA0E0C9418115F926F92AD
:102260007F928F929F92AF92BF92CF92DF92EF9226
:10227000FF920F931F93CF93DF93CDB7DEB72A97CB
:102280000FB6F894DEBF0FBECDBF0E9440090E947A
:102290002011882309F47AC09CE8A92E91E0B92E78
:1022A00010E000E088248394912C502E802F0E940F
:1022B000D0087C01F501C190D1905F01C816D90604
:1022C00009F45EC080912E0281FD0E94D90890E041
:1022D00080E0CE24DF243401082E02C0660C771C77
:1022E0000A94E2F7960126213721232B09F443C0F3
:1022F0008E835F82E620F72081E0EF2809F480E0FA
:1023000088870E94C61E8160782F9A8789874E81B0
:102310005F8168858A850E94ED11000F111FF80109
:10232000E457FE4F80819181682679267182608210
:102330000E9414220E94AC1090918B018917B9F170
:102340000E94AC1080938B012A960FB6F894DEBFE2
:102350000FBECDBFDF91CF911F910F91FF90EF90F6
:10236000DF90CF90BF90AF909F908F907F906F90B5
:102370005F900C94E70301968F30910509F0ABCF85
:102380000F5F1F4F0530110509F08FCF8FEF898345
:102390008A831B820E94C61E8160782F9D838C8356
:1023A00049815A816B818D810E94ED11C1CF2A969E
:1023B0000FB6F894DEBF0FBECDBFDF91CF911F9156
:1023C0000F91FF90EF90DF90CF90BF90AF909F90D4
:1023D0008F907F906F905F900895CF93DF93CDB7EC
:1023E000DEB72B970FB6F894DEBF0FBECDBF4F837D
:1023F000588769877A878B871E821D8285E0FE0158
:102400003796DE01119601900D928A95E1F7498188
:102410005A816B817C818D819E812B960FB6F894B9
:10242000DEBF0FBECDBFDF91CF910C944F19FC01E1
:10243000808191810C941A1C882309F405C182388B
:10244000B9F40E94AC1081FDFFC089E30E94481CD2
:102450000E94BC1C2FEF81EE94E021508040904000
:10246000E1F700C0000089E30E944F1C0C94BC1CE3
:102470008338A1F40E94AC1080FDE6C083E50E9481
:10248000481C0E94BC1C2FEF81EE94E0215080403C
:102490009040E1F700C0000083E5E6CF8438A1F466
:1024A0000E94AC1082FDD0C087E40E94481C0E94AC
:1024B000BC1C2FEF81EE94E0215080409040E1F76A
:1024C00000C0000087E4D0CF9CEF980F913A18F439
:1024D0000E94481CCBCF90E2980F983050F4877040
:1024E00091E001C0990F8A95EAF7892F0E94701C2C
:1024F000BDCF9BE5980F933070F4853A31F0863A62
:1025000039F083E890E00C94E01081E890E0FBCF94
:1025100082E890E0F8CF98E5980F973108F08EC0E8
:10252000883A09F446C0893A09F446C08A3A09F45F
:1025300046C08B3A09F446C08C3A09F446C08B3B3E
:1025400009F446C08C3B09F446C08D3A09F446C0F4
:10255000803B09F446C08E3A09F446C08F3A09F42C
:1025600046C0813B09F446C0823B09F446C0833B28
:1025700009F446C0843B09F446C0853B09F446C0D3
:10258000863B09F446C0873B09F446C0883B09F402
:1025900046C0893B09F446C08D3B09F446C08E3BDA
:1025A00009F446C08A3B09F446C090E080E00C94F0
:1025B000F61082EE90E0FBCF89EE90E0F8CF8AEE45
:1025C00090E0F5CF85EB90E0F2CF86EB90E0EFCF97
:1025D00083EB90E0ECCF84EB90E0E9CF87EB90E0E9
:1025E000E6CF8CEC90E0E3CF8DEC90E0E0CF83E899
:1025F00091E0DDCF8AE891E0DACF82E991E0D7CFB0
:1026000084E991E0D4CF81E292E0D1CF83E292E0FD
:10261000CECF84E292E0CBCF85E292E0C8CF86E2D3
:1026200092E0C5CF87E292E0C2CF8FE690E0BFCFC5
:1026300080E790E0BCCF8AE292E0B9CF803F20F003
:102640000E941D210C9409220895882309F452C088
:10265000823871F40E94AC1081FF4CC089E30E9463
:10266000481C0E94BC1C89E30E944F1C0C94BC1C9B
:10267000833859F40E94AC1080FF3CC083E50E946F
:10268000481C0E94BC1C83E5EFCF843859F40E949B
:10269000AC1082FF2FC087E40E94481C0E94BC1C23
:1026A00087E4E2CF9CEF980F913AF0F290E2980F16
:1026B000983050F4877091E001C0990F8A95EAF73D
:1026C000892F0E94761CD2CF9BE5980F933020F47F
:1026D00090E080E00C94E01098E5980F973120F49A
:1026E00090E080E00C94F610803F20F00E9485215D
:1026F0000C9409220895CF93C82F0E941C12C9334D
:1027000049F42FEF83EC99E0215080409040E1F7AD
:1027100000C000008C2FCF910C942513882321F04A
:102720000E94701C0C94BC1C0895882321F00E9408
:10273000761C0C94BC1C08958F929F92AF92BF920E
:10274000DF92EF92FF920F931F93CF93DF937C0161
:10275000D62FC72FFC01058102950F701281111130
:102760000E948F1C0E94661CD82E882371F01123B2
:1027700031F180E28D0F883010F182E00E94071D58
:102780000E94661C91E0D82ED926BC2EB2949FE000
:10279000B922EB2DF0E0E153FC4E0C94DD2AE1135D
:1027A000E113311431147814A0147F147F14E2144F
:1027B0007F147D157D15071610167F143316D12C46
:1027C000E4CF0C2F0F70C07F11F00295007F112312
:1027D000A9F0002359F080E28D0F883010F0D1115C
:1027E00009C0802F0E94701C0E94BC1C8D2F0E946B
:1027F0001C1214C0802F0E94811CF6CF8D2F0E94C6
:102800002513002359F080E28D0F883010F0D1118C
:1028100024C0802F0E94761C0E94BC1CDD2009F47D
:1028200029C20E94621C80FD25C2F70112820E940B
:102830005C1C0E94E21AC7010E9446160E945C1CA2
:10284000DF91CF911F910F91FF90EF90DF90BF909C
:10285000AF909F908F900C94031B802F0E94871C39
:10286000DBCFFC2FFF70BF2EC07FC03219F0B294B7
:1028700080EFB822DD2369F0D13049F1112391F1C5
:10288000002351F1F701858180FFB0CF8F708583E0
:1028900023C0112381F0011106C00E94A31C8B29C3
:1028A0000E948E13BBCF0130C1F70E94A31C8B295D
:1028B0000E94A91CB3CF011106C00E94B21C8B2D2F
:1028C0000E949513ABCF013009F4A8CFF6CF1123A6
:1028D00029F0063008F0A2CF8B2DE2CF053008F0AA
:1028E0009DCFEDCF002359F38D2F0E94251396CF56
:1028F0008C2F86958695837079F08130B9F098E0B9
:10290000B91609F49BC0B91608F488CF86EF8B0D71
:10291000823008F493C082CF8D2F9C2F93701111B9
:1029200002C090E080E00E94E01078CF8D2F9C2FB5
:102930009370111102C090E080E00E94F6106ECFFB
:10294000112309F1D53F99F0D63FB9F0D43F49F4AE
:1029500080919E0290919F02816090939F0280934C
:102960009E028D2F0E941D210E94092257CF809127
:102970009E0290919F028260F0CF80919E02909182
:102980009F028460EACFD53F89F0D63FA9F0D43FBB
:1029900049F480919E0290919F028E7F90939F02B6
:1029A00080939E028D2F0E948521DECF80919E0212
:1029B00090919F028D7FF2CF80919E0290919F0215
:1029C0008B7FECCF8C2F837009F04BC0111136C078
:1029D0002D2F229526952770220F220F6D2F6F70B5
:1029E000862E912CB12CA12C022E04C0880C991C8F
:1029F000AA1CBB1C0A94D2F760E070E0CB01D4FFA4
:102A00000FC06FE070E080E090E004C0660F771FB9
:102A1000881F991F2A95D2F760957095809590959B
:102A2000C695C695C370C23071F0A0F468297929A3
:102A30008A299B29C13091F00E94941A0E94AC10FF
:102A40000E94E703EBCE682979298A299B290E94F5
:102A5000A61AF4CF0E94941AC501B4010E94821AEA
:102A6000EDCF8695112311F08C2F8170882331F3DF
:102A70002D2F229526952770220F220F6D2F6F7014
:102A8000862E912CB12CA12C022E04C0880C991CEE
:102A9000AA1CBB1C0A94D2F760E070E0CB01D4FF03
:102AA0000FC06FE070E080E090E004C0660F771F19
:102AB000881F991F2A95D2F76095709580959095FB
:102AC000C695C695C370C23051F080F46829792943
:102AD0008A299B29C13071F00E94591BAFCF682908
:102AE00079298A299B290E946B1BA8CF0E94591B18
:102AF000C501B4010E94471BA1CFE0E2ED0FE53113
:102B000008F066C0F0E0E957FA4E0C94DD2A9C15F7
:102B10009C159C159C159C159C159C159C159C152D
:102B20009C159C159C159C159C159C159C15AD150C
:102B3000BB15C215C915D315DF708C2F8F711123EA
:102B400031F00E94E21A8D2F0E948E13D8CE0E947F
:102B5000031B8D2F0E949513D2CE112341F0053017
:102B600008F0CDCE8C2F8F710E94261BC8CE063068
:102B700008F0C5CEF7CF8C2F8F71112339F00E944A
:102B8000E21ABDCE8C2F8F711123C9F30E94031B53
:102B9000B6CE112329F08C2F8F710E94CD1AAFCEA3
:102BA0000E94C81AACCE112349F0CF718C2F0E941D
:102BB000E21A63E08C2F0E94F21CA1CE81E00E94F9
:102BC000071D023008F49BCE82E00E94071D97CEBD
:102BD000112349F0002321F08D2F0E941C128FCE6B
:102BE0008C2F8F71CCCF002379F0D93349F4FFEFCC
:102BF00023EC89E0F15020408040E1F700C0000064
:102C00008D2F0E9425137BCE8C2F8F71BFCF4C2F21
:102C10004F706D2FC7010E941E060E94F819FECD4D
:102C20001111FCCDCF70C230B1F040F4CC2381F053
:102C3000C13009F064CE0E94E922F0CDC43089F0A1
:102C400068F080E0C53009F05ACE0E944F23E6CDEF
:102C50000E94D122E3CD0E942523E0CD0E942C23A7
:102C6000DDCD86E0F2CF4C2F4F706D2FC7010E9453
:102C70002106D4CDDF91CF911F910F91FF90EF905E
:102C8000DF90BF90AF909F908F9008950F931F9308
:102C9000CF93DF93EC01988189812B813C81232B99
:102CA00039F08F3F19F481E09F3F19F080E001C0B7
:102CB00081E080FD17C0CE010E94F903882391F0C6
:102CC000688179818A810E94241C8C010E947D1B6D
:102CD0000E947F1AB801CE01DF91CF911F910F9111
:102CE0000C949C13DF91CF911F910F9108950E9436
:102CF0008F1C0E94A01C0E94BC1C0E94AC220E943F
:102D0000092290E080E00E94E01090E080E00C94C6
:102D1000F6100E94561C0C9477160E947E1C0C9490
:102D20008916E92FE295EF70E250EE30E0F4F0E022
:102D3000E456F94E0C94DD2AAA16AA16B316B31659
:102D4000B516B316B316B316AA16AA16BA16B31644
:102D5000B316BA16803F19F020F4803E20F481E0CB
:102D60000895843FE1F380E00895803EC0F3813F01
:102D7000D1F7F5CF93FB882780F908950E941A1C9C
:102D80000C949116CF93DF9300D000D01F92CDB753
:102D9000DEB70F900F900F900F900F90DF91CF91B3
:102DA0000895CF93DF9300D000D000D0CDB7DEB729
:102DB00026960FB6F894DEBF0FBECDBFDF91CF9140
:102DC00008951F93CF93DF93C091970116E08091F0
:102DD00098018C1304C0DF91CF911F910895D0E02A
:102DE0001C9FF0011D9FF00D1124E756FE4F4081FE
:102DF000518162817381848195810E94D1162196CF
:102E0000C770E5CF4091C9015091CA016091CB01D3
:102E10007091CC018091CD019091CE010C94D1168E
:102E20001F93CF93DF938091CE01807FD1F4809167
:102E3000CB018823B1F080919701D0919801B09196
:102E4000C901C091CA014091CC015091CD01A1E0CE
:102E5000BF3F09F0A0E0BA016095709516E0D81365
:102E600004C0DF91CF911F91089521E041155105D4
:102E700021F02A2FCF3F09F020E090E020FD38C05C
:102E8000189FF001199FF00D1124E756FE4F218184
:102E90002C132EC020812B132BC02281211128C07E
:102EA000238134812417350700F1241B350B283C7E
:102EB0003105F0F42091CE012F7020612093CE01D6
:102EC00026E0289FF001299FF00D1124E256FE4FC5
:102ED00080818F708061808389EC91E00E9446162A
:102EE000DF91CF911F910C94E116260F371FDFCF92
:102EF00001968770B4CFAF92BF92CF92DF92EF92DC
:102F0000FF920F931F93CF93DF93CDB7DEB76197F7
:102F10000FB6F894DEBF0FBECDBF8C0185E0F8017F
:102F2000DE011D9601900D928A95E1F7D8014C9132
:102F300011965C9111971296EC903091C9016091B5
:102F4000CA018091CC019091CD0121E0009731F030
:102F50006F3F19F421E03F3F09F020E0B22FB1703C
:102F6000BB2E20FD80C1F801C380D480A090CB018E
:102F7000AA2009F427C1C816D906D0F1D601A81B8A
:102F8000B90BCD01FF24F394883C910508F0F12C96
:102F90008091CE01982F907FFF2009F4CEC091112F
:102FA00087C0FE2C651329C0341327C0E11025C04B
:102FB0008F7080618093CE010E94021789EC91E0AE
:102FC0000E9446168091CE01F80185838F2D61966F
:102FD0000FB6F894DEBF0FBECDBFDF91CF911F912A
:102FE0000F91FF90EF90DF90CF90BF90AF9008953A
:102FF000809590958C0D9D1DC5CF81E0CD2831F039
:103000005F3F19F481E04F3F09F080E080FD24C06C
:1030100081E08E25F82FF170DF2E80FF3FC0809178
:1030200097012091980136E0821318C04D875E8782
:103030008D859E850E941A1C292F22952F70223083
:1030400008F1243030F59F7009F1D80115969C9154
:10305000907FE1F4FB2CBACF80E0DCCF90E0389F8A
:10306000F001399FF00D1124E756FE4F6181561390
:1030700006C06081461303C062816E110FC00196C5
:103080008770D2CF9F7011F0882321F3805E883043
:1030900008F3C8010E944616BD2CDCCFEE2009F4CF
:1030A00095CF8091CE0181608093CE01F12C8ECF9F
:1030B000651314C0341312C0E11010C0F8018583E9
:1030C000C8010E94461686E0F801A9ECB1E0019023
:1030D0000D928A95E1F70E94021778CF4D875E879F
:1030E0008D859E850E94BE16882319F1EE2009F178
:1030F0008091CE01803270F02091C9013091CA01D7
:1031000038872F831986DB86CA868C87CE0107967F
:103110000E94461686E0F801A9ECB1E001900D92FC
:103120008A95E1F70E9410170E940217FF24F3947A
:103130004DCFC8010E944616F9CF911113C07C2DC6
:10314000D98AC88A6E2D89890E94C21689EC91E0BD
:103150000E94461686E0E9ECF1E0DF011D928A95B7
:10316000E9F7B9CF651312C0341310C0E1100EC0D7
:10317000F8018583C8010E944616E9ECF1E086E07B
:10318000DF011D928A95E9F7FA2C20CF4D875E87E3
:103190008D859E850E94BE16882359F2EE2049F245
:1031A0008091CE01803208F4B5CF2091C9013091D1
:1031B000CA013A8329831B82DD82CC828E83CE01B1
:1031C0000196A6CFC816D90638F1F601E81BF90B0F
:1031D000CF01F12C883C910508F03DC0FE2CEE207B
:1031E00009F4A7CF651326C0341324C08091CE0103
:1031F00080FD17C0982F907FA1F0D80115968C9371
:103200001597903F09F45CCF982F907F905F8F7057
:10321000892B15968C9354CF809590958C0D9D1D80
:10322000D8CF86E0F801A9ECB1E001900D928A9523
:10323000E1F7CCCE4D875E878D859E850E94BE16B8
:10324000811168CF8091CE0181608093CE01C80149
:103250000E944616BBCE7C2DD98AC88A6E2D8989DC
:103260000E94C21677CFEE2009F463CF4D875E87A8
:103270008D859E850E94BE16F82E882309F459CFAD
:1032800086E0F801A9ECB1E001900D928A95E1F792
:1032900089EC91E00E9417120E9410171CCF1F9317
:1032A000CF93DF93CDB7DEB72C970FB6F894DEBF80
:1032B0000FBECDBF4F83588769877A878B879C87DE
:1032C000CE0107960E947B17882309F442C09F8194
:1032D00088852A853B85232B39F08F3F19F481E0BF
:1032E0009F3F19F080E001C081E080FD08C04F8160
:1032F000588569857A858B859C850E94D11616E054
:103300008091970190919801891709F467C0819F76
:10331000C001112487569E4F0E947B17882309F411
:103320005DC0E09197011E9FF0011124E756FE4F0A
:103330004081518162817381848195810E94D1167F
:103340008091970190E0019687709927809397016B
:10335000D7CF86E0FE013796DE01119601900D92DF
:103360008A95E1F79F8188852A853B85232B39F053
:103370008F3F19F481E09F3F19F080E001C081E0A8
:1033800080FDBDCF2091980130E0C9010196877082
:103390009927409197014817190699F096E0929F56
:1033A000D001939FB00D1124A756BE4FFE01319658
:1033B00001900D929A95E1F7809398010E94E11691
:1033C0009ECF0E948D16109298011092970186E070
:1033D000E9ECF1E0DF011D928A95E9F72C960FB632
:1033E000F894DEBF0FBECDBFDF91CF911F9108953E
:1033F000EF92FF920F931F93CF93DF938C01892B52
:1034000081F0F12CEE24E394E8012196F8018491F7
:10341000843770F4843008F05FC08130B1F08230BE
:10342000A1F1DF91CF911F910F91FF90EF9008953F
:10343000853709F44CC008F43DC09CE7980F9037DD
:1034400080F78F770E94251349C00E5F1F4FFE0142
:10345000849190E2980F983060F48770FE2D01C03F
:10346000FF0F8A95EAF78F2F0E94921C0E94BC1CC6
:1034700002C00E941C128F2D815030F2EFE9FFE054
:103480003197F1F700C00000F7CF0E5F1F4FFE012C
:10349000849190E2980F983050F48770FE2D01C00F
:1034A000FF0F8A95EAF78F2F0E94981CDFCF0E94AA
:1034B0002513E1CF0E5F1F4FFE01C491C150D8F21A
:1034C0008FE99FE00197F1F700C00000F7CF0E5F92
:1034D0001F4FFE01F490CFCF0E941C128E01CBCF64
:1034E00008950C94701A0E94711A609305027093EB
:1034F000060280930702909308020C9477160895B1
:103500000C94731A0F931F930091050210910602F9
:103510002091070230910802602B712B822B932B94
:103520001F910F910C94731A0F931F930091050232
:103530001091060220910702309108026023712346
:10354000822393231F910F910C94731A0F931F934F
:1035500000910502109106022091070230910802A5
:1035600060277127822793271F910F910C94731A5C
:103570000C94701A0C94B81A0E94BA1A6093010243
:103580007093020280930302909304020C947716C6
:1035900060E070E0CB010C94BC1A0F931F9341E0E4
:1035A00050E060E070E08A019B0104C0000F111F31
:1035B000221F331F8A95D2F7C901B8011F910F91BD
:1035C0000C94BC1A0F931F9341E050E060E070E050
:1035D00004C0440F551F661F771F8A95D2F780914C
:1035E000010290910202A0910302B09104028A01AB
:1035F0009B01082B192B2A2B3B2BC901B8011F91CA
:103600000F910C94BC1A0F931F9341E050E060E0BF
:1036100070E004C0440F551F661F771F8A95D2F7CC
:10362000CB01BA016095709580959095009101024B
:103630001091020220910302309104026023712351
:10364000822393231F910F910C94BC1A0F931F9305
:1036500041E050E060E070E004C0440F551F661F79
:10366000771F8A95D2F78091010290910202A09172
:103670000302B09104028A019B01082719272A2717
:103680003B27C901B8011F910F910C94BC1A0F93ED
:103690001F930091010210910202209103023091C8
:1036A0000402602B712B822B932B1F910F910C9492
:1036B000BC1A0F931F9300910102109102022091F6
:1036C00003023091040260237123822393231F910C
:1036D0000F910C94BC1A0F931F930091010210914B
:1036E0000202209103023091040260277127822791
:1036F00093271F910F910C94BC1A08952FE0929F6D
:10370000800D1124982F977071E001C0770F9A9562
:10371000EAF786958695869525E0829FC00111245B
:1037200050E040E0A62FB0E0FC01E40FF51FE153AC
:10373000FE4F60819D01042E02C0369527950A94A4
:10374000E2F72170219526272723262720834F5F24
:103750005F4F4530510541F708952FE0929F800D4E
:103760001124982F977086958695869525E0829FDF
:10377000A001112470E060E080E0FA01E60FF71F7D
:10378000E153FE4F208130E0092E02C03695279587
:103790000A94E2F721703327062E01C0220F0A9403
:1037A000EAF7822B6F5F7F4F6530710531F708951F
:1037B000BF92CF92DF92EF92FF920F931F93CF931E
:1037C000DF938C01C0900102D0900202E0900302CE
:1037D000F09004028091050290910602A0910702E8
:1037E000B0910802C82AD92AEA2AFB2ACFE1D0E000
:1037F000BC2ED701C6010C2E04C0B695A79597958F
:1038000087950A94D2F780FD0EC0219788F7B12CD6
:103810008B2DDF91CF911F910F91FF90EF90DF9053
:10382000CF90BF900895B8018C2F0E943E0601975B
:1038300061F3EECFCF93DF93EC010E94D81BBE0162
:10384000DF91CF910C943E061F93CF93DF93EB0152
:1038500090919601992331F0CB01DF91CF911F9187
:103860000C941A1C882379F0CB010E94D81B182FC6
:10387000682FCE010E947E1BBE01812FDF91CF9168
:103880001F910C943E06CB010E94AD1B182FF4CF64
:10389000682F80911001909111010C94121E682FD5
:1038A00080911001909111010C941D1E80911001C6
:1038B000909111010C94281E80910902859585959F
:1038C0008595089580910902877008959091090265
:1038D000977081E009F480E0089580912D020895A9
:1038E00090912D02892B80932D020895982F909509
:1038F00080912D02892380932D02089510922D022C
:10390000089590912C02892B80932C020895982F72
:10391000909580912C02892380932C020895109217
:103920002C02089590912B02892B80932B020895ED
:10393000982F909580912B02892380932B020895D4
:1039400010922B02089580910A02089508950C9414
:10395000A61C90910A02981721F080930A020C94F9
:10396000A71C089580910A02882329F010920A0268
:1039700080E00C94A71C0895E0911001F0911101D2
:1039800080912D028083E0911001F09111018081DE
:1039900090912C02892B8083E0911001F09111010C
:1039A000808190912B02892B808390910A02992328
:1039B00081F0E0911001F09111018081892B8083C9
:1039C00080911001909111010E94AE1D81110E9401
:1039D000B21C80911001909111010C94B8100895BF
:1039E0000C94EF1C98E0899F90011124622B609346
:1039F00009020E94E21A80910902859585958595B4
:103A00000C94F01C1092090280E00C94F01C909130
:103A100009028095892380930902282F277071F469
:103A2000282F082E000C330B9217130639F08595BA
:103A3000859585950E94031B0C94021D089590E0C6
:103A400080E00E94182B21E08D3E9E4F09F020E07F
:103A5000822F089582E090E00C940A2B682F82E078
:103A600090E00C941E2B83E090E00C940A2B682FBE
:103A700083E090E00C941E2B84E090E00C940A2BE1
:103A8000682F84E090E00C941E2B86E090E00C946C
:103A90000A2B682F86E090E00C941E2BAB01BC0132
:103AA0008FE090E00C94302BAB01BC0183E190E0FF
:103AB0000C94302B60E070E0CB010C94541D60E05E
:103AC00070E0CB010E944E1D0C945A1D6DEE7EEFEE
:103AD00090E080E00E943C2B60E082E090E00E9459
:103AE0001E2B60E083E090E00E941E2B10920502E6
:103AF00010920602109207021092080260E084E021
:103B000090E00E941E2B60E085E090E00E941E2B5A
:103B100060E086E090E00E941E2B6FEF87E090E06F
:103B20000E941E2B40E050E0BA0188E090E00E9425
:103B3000302B60E08DE090E00E941E2B40E050E0D2
:103B4000BA0188E190E00E94302B60E087E190E0CC
:103B50000E941E2B0C945F1D0C94661DFC01329676
:103B600080912201882321F08091A4029EE187FFA9
:103B700096E080E0915008F4089521912223D1F33A
:103B80008F5FF8CF9C01FC0132969FEF80E041915E
:103B9000461751F09F3F19F4411101C0982F8F5FD4
:103BA0008630A9F79F3F09F40895290F311D97FD2D
:103BB0003A95F90162830895FC01329608962191A5
:103BC000261303C0DF0111971C92E817F907B9F714
:103BD0000895E62FE695E695E695EE3168F4E80F50
:103BE000F92FF11D677021E030E001C0220F6A95C6
:103BF000EAF78281822B82830895E62FE695E69587
:103C0000E695EE3170F4E80FF92FF11D677021E0B1
:103C100030E001C0220F6A95EAF7209582812823BF
:103C20002283089520912201222329F02091A402C9
:103C300027FD0C94E91D0C94C21D20912201222322
:103C400029F02091A40227FD0C94FD1D0C94DC1D8D
:103C5000FC01329680912201882351F08091A402C8
:103C600087FF06C08EE1DF011D928A95E9F708956E
:103C700086E0F9CF089508950C943B1E0E943C1EE7
:103C80008091AB02843061F110922F0288E190E0C4
:103C900020E40FB6F894A895809360000FBE20939F
:103CA000600080E00E94740380E00E94E7030E94AD
:103CB0003C1E83B7817F846083BF83B7816083BFED
:103CC0007894889583B78E7F83BF0FB6F894A895B4
:103CD00080916000886180936000109260000FBE48
:103CE00008950895CF930E943A1E0E9440090E94B1
:103CF000711EC0E08C2F0E94D008892B31F4CF5F59
:103D0000C530C1F780E0CF91089581E0FCCF0895E0
:103D10000C94871E0E948D160E94B8220E94AC103F
:103D20000E94E7030C94881E1F920F920FB60F9209
:103D300011248F939F93AF93BF9380912F02811192
:103D400013C08091A0029091A102A091A202B09113
:103D5000A3024196A11DB11D8093A0029093A102E0
:103D6000A093A202B093A302BF91AF919F918F91B4
:103D70000F900FBE0F901F90189582E084BD93E0C6
:103D800095BD9AEF97BD80936E0008952FB7F89474
:103D90008091A0029091A102A091A202B091A302F1
:103DA0002FBF0895CF92DF92EF92FF920F931F9350
:103DB0002FB7F8944091A0025091A1026091A20205
:103DC0007091A3022FBF6A017B01EE24FF248C01B6
:103DD00030E020E0C016D106E206F30650F0481BA2
:103DE000590BCA011F910F91FF90EF90DF90CF9078
:103DF000089541505109F3CF78941F920F920FB656
:103E00000F9211248F939F93AF93BF938091A00241
:103E10009091A102A091A202B091A3020196A11DCE
:103E2000B11D8093A0029093A102A093A202B0932F
:103E3000A302BF91AF919F918F910F900FBE0F90F2
:103E40001F90189581E08093E00080E28093D80075
:103E50001092C9008FE19EE40197F1F700C00000C5
:103E600087E090EBDC018093B4029093B502A093BD
:103E7000B602B093B70288E19CE00FB6F894A8951B
:103E8000809360000FBE90936000FFCFAF92BF920F
:103E9000CF92DF92EF92FF920F931F93CF93C0E0E8
:103EA000CC24C394D12CE82EF12C8C2F0E94D00866
:103EB0005C0110E000E0C601002E02C0880F991FCF
:103EC0000A94E2F78A219B21892B99F40F5F1F4FF7
:103ED0000F30110581F7CF5FC53039F780E0CF9102
:103EE0001F910F91FF90EF90DF90CF90BF90AF9018
:103EF0000895602F7C2F80E00E942206E816F906C4
:103F000029F781E0ECCFCF93C82F8CE20E94461FA7
:103F1000882321F08C2FCF910C94461F80E0CF9105
:103F20000895CF930E941F1D811102C00E94AC1DF5
:103F3000C5E608C00E9440098FE39CE90197F1F7AC
:103F400000C00000C150B1F789E20E94831F8111B7
:103F5000EFC08AE20E94831F81110E94AC1D85E0A0
:103F60000E94831F81110E94221F0E942A1D80939C
:103F70002E0287E00E94831F882371F08BE10E944C
:103F8000831F882309F4B1C090912E02892F8D7F61
:103F900091FF826080932E0280912E020E942E1D3E
:103FA0000E943C1D90E09093A5028093A40280EEB5
:103FB0000E94831F882341F09091A402892F8E7F55
:103FC00090FF81608093A40289E30E94831F88236D
:103FD00041F09091A402892F8D7F91FF82608093A0
:103FE000A40282EE0E94831F882341F09091A402D4
:103FF000892F8B7F92FF84608093A40286EE0E94BB
:10400000831F882341F09091A402892F877F93FF1B
:1040100088608093A40283EE0E94831F882341F06E
:104020009091A402892F8F7E94FF80618093A402D7
:1040300085E30E94831F882341F09091A402892F79
:104040008F7D95FF80628093A40281E30E94831F8D
:10405000882341F09091A402892F8F7B96FF806482
:104060008093A40281E10E94831F882341F09091F4
:10407000A402892F97FB87F980588093A40280912E
:10408000A4020E94401D87E20E94831FC82F8EE178
:104090000E94831F8111C2608FE10E94831F8111E2
:1040A000C46080E20E94831F8111C86081E20E9487
:1040B000831F8111C06182E20E94831F8111C0624F
:1040C00083E20E94831F8111C06484E20E94831FE7
:1040D000882341F1C0688C2F0E94371D6C2F70E03F
:1040E00090E080E0CF910C94801A8EE00E94831FB4
:1040F000882339F090912E02892F8B7F92FF846064
:1041000049CF80E10E94831F90912E02882329F0DD
:10411000892F877F93FF88603DCF892F8E7F90FF07
:10412000816038CFC111D7CF0E94331D682FD7CF00
:10413000CF9108958091330280FF12C060911501E4
:1041400085E0689FB0011124759567957595679511
:1041500060387105A8F561157105A1F1862F0895E4
:1041600081FF09C06091150185E0689FB0011124AD
:1041700075956795EDCF82FF07C06091150185E0C9
:10418000689FB0011124E4CF209132022223A9F0CC
:10419000909114016091150185E0689FB001112490
:1041A0002917B0F6269FA001279F500D1124692FD3
:1041B00070E0CA010E94A72ACBCF65E070E0CECFA5
:1041C0008FE7089581E008958091330280FF0CC04D
:1041D0006091130170E07595679575956795611508
:1041E000710549F1862F089581FF06C06091130182
:1041F00070E075956795F3CF6091130182FD0BC058
:10420000909132029923A1F06091120180911301E3
:10421000961738F0682F70E06038710500F38FE76B
:104220000895899FC001112470E00E94A72AF4CF4D
:1042300061E070E0D7CF81E00895803F31F40E94C3
:104240009A208195809337020895813F19F40E9446
:104250009A20F8CF823F31F40E949A208195809372
:1042600036020895833F19F40E949A20F8CF893FBF
:1042700029F40E94E4208093380208958A3F21F4B3
:104280000E94E4208195F7CF8B3F31F40E94E42017
:1042900081958093390208958C3F19F40E94E4209F
:1042A000F8CF843F31F480913502816080933502EC
:1042B0000895853F21F4809135028260F7CF863FD3
:1042C00021F4809135028460F1CF873F21F4809101
:1042D00035028860EBCF883F21F480913502806100
:1042E000E5CF8D3F31F480913302816080933302BA
:1042F00008958E3F21F4809133028260F7CF8F3F83
:10430000B9F7809133028460F1CF803FC1F480918E
:10431000370287FD109237028091360281110EC05C
:104320008091370281110AC080913802811106C044
:1043300080913902811102C0109232020895813FAA
:1043400029F48091370218162CF3E6CF90913602AB
:10435000823F29F497FFE0CF10923602DDCF833FF2
:1043600019F41916CCF3D8CF893F39F4809138026B
:10437000181694F610923802CFCF8A3F29F4809114
:10438000380287FFC9CFF6CF8B3F39F480913902CD
:1043900087FFC2CF10923902BFCF8C3F29F48091A2
:1043A00039021816BCF3B8CF843F31F4809135023E
:1043B0008E7F80933502B0CF853F21F48091350206
:1043C0008D7FF7CF863F21F4809135028B7FF1CF2F
:1043D000873F21F480913502877FEBCF883F21F41E
:1043E000809135028F7EE5CF8D3F31F4809133028D
:1043F0008E7F8093330290CF8E3F21F480913302E1
:104400008D7FF7CF8F3F09F087CF809133028B7F6D
:10441000F0CF84E392E00E94D2100E94C61E9093D7
:1044200031028093300208951F93CF93DF938091E0
:104430003002909131020E94D21EAC019091320262
:104440002091160130E0911106C0209117018AE0F9
:10445000289F900111244217530780F08091360263
:1044600010913702D0913802C091390281110AC0EF
:1044700011116EC0D1116CC0C1116AC0DF91CF9112
:104480001F9108959F3F19F09F5F90933202181675
:1044900024F40E949A20809336028091360287FF8E
:1044A00005C00E949A20819580933602111624F44B
:1044B0000E949A20809337028091370287FF05C0BF
:1044C0000E949A20819580933702309136023323DF
:1044D000A1F020913702222381F045EB3403C00183
:1044E0001124992369F19093360245EB240390013E
:1044F0001124332349F1309337021D1624F40E940E
:10450000E420809338028091380287FF05C00E9422
:10451000E4208195809338021C1624F40E94E42044
:10452000809339028091390287FF05C00E94E42000
:10453000819580933902DF91CF911F910C940922CC
:1045400081E080933602D1CF81E080933702D5CFCE
:104550009F3F09F099CFAACF86E0E4E3F2E0DF01C4
:104560001D928A95E9F71092320210923302089553
:104570000E941F1D811102C00E94AC1D0E94451D9A
:104580008093A6028E3020F081708C608093A6020A
:104590008091A60280FF03C086950C94740380E08E
:1045A000FCCF8091A602982F9695963030F49F5FAD
:1045B000990F8170892B8093A6028091A602816059
:1045C0008093A6020E94491D8091A60286950C94B4
:1045D00074038091A602982F9E7F79F08250809379
:1045E000A6028E7F91E009F490E08091A60290FBF4
:1045F00080F98093A6020E94491D8091A6028695AB
:104600000C9474038091A60280FD11C08160809398
:10461000A602813019F483E08093A6028091A6025D
:104620000E94491D8091A60286950C9474030895FA
:104630008091A60280FF08C08E7F8093A6020E9410
:10464000491D80E00C94740308958091A60280FDBA
:104650000C9418230C9402239091A602892F86951E
:104660008F5F8F7791708730B8F4880F892B809394
:10467000A6028091A6028E7F91E009F490E08091DD
:10468000A60290FB80F98093A6020E94491D8091AA
:10469000A60286950C9474039093A602EACF873005
:1046A00008F086E0982F990F8091A6028170892BDF
:1046B0008093A6028E7F91E009F490E08091A6029B
:1046C00090FB80F98093A6020E94491D8091A6026A
:1046D00086950C94740380915A0208950F931F934A
:1046E000CF93DF9300D01F92CDB7DEB78C010E942D
:1046F000D425823011F0843021F584E089831B8336
:104700000A8382E08093E9008FEF9091E800815066
:1047100095FD06C095ED9A95F1F700008111F5CF52
:104720008091E80085FF0DC050E040E063E070E05C
:10473000CE0101960E94F1258091E8008E7780934A
:10474000E8000F900F900F90DF91CF911F910F9184
:104750000895CF93DF9300D01F92CDB7DEB720919D
:10476000AB02243031F523E02983805891099B83E3
:104770008A8382E08093E9008FEF9091E800815076
:1047800095FD06C095ED9A95F1F700008111F5CFE2
:104790008091E80085FF0DC050E040E063E070E0EC
:1047A000CE0101960E94F1258091E8008E778093DA
:1047B000E8000F900F900F90DF91CF910895CF9365
:1047C000DF93EC010E94D425823011F08430F9F49B
:1047D00082E08093E9008FEF9091E800815095FD91
:1047E00006C095ED9A95F1F700008111F5CF809103
:1047F000E80085FF0CC050E040E066E070E0CE01CC
:104800000E94F1258091E8008E778093E800DF9187
:10481000CF910895CF93DF93EC010E94D42582308D
:1048200011F08430B9F5809122018823B1F1809193
:10483000A40287FF32C060E282E08093E9008FEF3C
:104840009091E800815095FD06C095ED9A95F1F79D
:1048500000008111F5CF8091E80085FF1BC0809199
:10486000220170E050E040E0811104C050E040E0DF
:1048700068E070E0CE010E94F1258091E8008E771B
:104880008093E80080E2FE01AAE3B2E001900D927D
:104890008A95E1F7DF91CF91089568E081E0CDCF6F
:1048A0008091AA02811109C00E9481270E94DE27FF
:1048B0008091E20084608093E20008951092AA0241
:1048C0000895089508950C948A1E42E061EC81E0F9
:1048D0000E94FF2642E261EC82E00C94FF26809168
:1048E000AD02833009F462C030F48130D9F18230F6
:1048F00009F49EC008958A3009F48AC08B3009F407
:1049000070C0893009F051C08091AC02813209F049
:104910004CC08091B0029091B102029708F045C05E
:104920008091E800877F8093E8008091E80082FF13
:1049300038C08091F3009091F20089279827892749
:10494000029729F48091F1008B7F813021F48091CE
:10495000F10080935A028091E8008B778093E80001
:104960000C9433278091AC02813AF9F48091E800ED
:10497000877F8093E8008091B0029091B102892BEB
:1049800061F460E28AE392E070E00E944026809148
:10499000E8008B778093E800089560E090E080E085
:1049A000F3CF8091AB028111C0CF08958091AC020A
:1049B000813AD9F78091B0029091B102892BA9F781
:1049C0008091E800877F8093E8008091E80080FF75
:1049D000FCCF809122018093F1008091E8008E77D6
:1049E000BDCF8091AC02813201F78091B0029091ED
:1049F000B102892BD1F68091E800877F8093E8008F
:104A00000E9433278091AE02809322010C948D1670
:104A10008091AC02813249F68091E800877F8093D3
:104A2000E8000E9433278091AF0280935B020895D3
:104A30008091AC02813A09F0B8CF8091E800877F7D
:104A40008093E8008091E80080FFFCCF80915B02BA
:104A5000C2CF84B7877F84BF0FB6F894A8958091A2
:104A60006000886180936000109260000FBE80E853
:104A700080936100109261000E941A110E948127A8
:104A80000E94DE278091E20084608093E2007894A7
:104A90000E94672A0E94221188E191E00E94A710DB
:104AA0008091AB02853029F00E942E110E94220FC6
:104AB000F7CF0E943E1E8091A902882389F30E94AD
:104AC000721E882369F30E94DB25EACF0C946825C7
:104AD000292F33272330310571F158F42130310566
:104AE000E9F02230310511F190E080E030E020E083
:104AF00019C021323105C1F122323105A9F780E414
:104B000090E024E435E06115710561F080EC90E0FF
:104B100024E834E06130710529F0E6CF82E190E0CD
:104B200022E734E0FA013183208308958BE390E09B
:104B300027E334E0F7CF99278130910579F040F0F1
:104B40008230910571F0039779F6E1EFF3E002C04E
:104B5000E3E3F4E0849190E09F01E4CFE3E0F4E04C
:104B6000F9CFE7EFF3E0F6CF89E090E029E434E015
:104B700061157105B9F289E090E022E634E0613018
:104B8000710581F2B1CF0895CF93C82F0E94C3253C
:104B9000C0935C02CF9108958091AB02843011F0F4
:104BA00081E0089582E0089580915C02811102C045
:104BB0000C94CC25089580E189BD82E189BD09B4BA
:104BC00000FEFDCF8091D8008F7D8093D80080912A
:104BD000E00082608093E0008091E00081FDFCCFE6
:104BE0000895AF92BF92CF92DF92FF920F931F93DF
:104BF000CF93DF936C01EB018A010E945227F82EBC
:104C0000811123C00115110539F0F80180819181CE
:104C1000C81BD90BC80ED91EB12CA12C2097A9F006
:104C20008091E80085FD22C08091E8008E77809316
:104C3000E80001151105A1F0F80180819181A80E0D
:104C4000B91EB182A08285E0F82E8F2DDF91CF9121
:104C50001F910F91FF90DF90CF90BF90AF9008957C
:104C60000E9452278823D1F2F82EEFCFF6018191CE
:104C70006F018093F1002197FFEFAF1ABF0ACECFEB
:104C8000FC018091B2029091B30286179707A0F0C1
:104C90006115710529F49091E8009E779093E800E2
:104CA00090E06115710551F4911108C08091E80000
:104CB00082FF35C080E00895BC01F2CF8091AB0245
:104CC0008823C9F18530C9F18091E80083FD31C0A6
:104CD0008091E80082FDEACF8091E80080FFE1CF7B
:104CE0002091F3008091F200322F282F6115710579
:104CF00019F02830310558F091E02830310509F0DD
:104D000090E02091E8002E772093E800CACF8191AF
:104D10008093F100615071092F5F3F4FE7CF809181
:104D2000AB02882341F0853041F08091E80083FF99
:104D3000BDCF81E0089582E0089583E00895FC01ED
:104D40008091B2029091B30286179707A0F0611587
:104D5000710529F48091E8008E778093E80090E057
:104D60006115710551F4911108C08091E80082FF2E
:104D700036C080E00895BC01F2CF8091AB02882359
:104D8000D1F18530D1F18091E80083FD32C080916E
:104D9000E80082FDEACF8091E80080FFE1CF20911A
:104DA000F3008091F200322F282F6115710519F060
:104DB0002830310558F091E02830310509F090E0B5
:104DC0008091E8008E778093E800CACF8491809329
:104DD000F1003196615071092F5F3F4FE6CF80910E
:104DE000AB02882341F0853041F08091E80083FFD9
:104DF000BCCF81E0089582E0089583E00895982F64
:104E0000973028F08F708093E90081E008959093A7
:104E1000E900242F762F50E0981731F07091EC00C4
:104E20002091ED005091F00021FD02C09F5FE8CF7E
:104E30003091EB003E7F3093EB003091ED003D7FF1
:104E40003093ED003091EB0031603093EB007093C4
:104E5000EC002093ED005093F0002091EE0027FD30
:104E6000E5CF80E008958091AC0287FF13C0809168
:104E7000E80082FF06C08091E8008B778093E8000D
:104E800004C08091AB028111F2CF08958091AB02F2
:104E90008823D9F38091E80080FFF8CF8091E80063
:104EA0008E77ECCF2091E4003091E50085E690917B
:104EB000EC0090FF06C09091E80090FF06C080E0F3
:104EC00008959091E80092FDFACF9091AB0299235A
:104ED00091F0953091F09091EB0095FD10C04091CC
:104EE000E4005091E5002417350709F381509A0139
:104EF000F1F684E0089582E0089583E0089581E06A
:104F000008950E94EF270E94F727E0EEF0E08081ED
:104F100081608083E8EDF0E080818F77808319BC29
:104F2000A7EDB0E08C918E7F8C9380818F7E808303
:104F30001092AA0208950F931F93CF93DF930E94BC
:104F4000EF270E94F727C8EDD0E088818F7788830C
:104F500088818068888388818F7D888319BC1092BE
:104F6000AB021092A7021092A9021092A80200EEC2
:104F700010E0F80180818B7F808388818160888345
:104F800042E060E080E00E94FF26E1EEF0E08081F8
:104F90008E7F8083E2EEF0E080818160808380817B
:104FA00088608083F80180818E7F80838881806122
:104FB0008883DF91CF911F910F910895E8EDF0E084
:104FC00080818F7E8083E7EDF0E080818160808347
:104FD00084E082BF81E08093AA020C949B27E8EDD5
:104FE000F0E080818E7F80831092E200089510921D
:104FF000DA001092E10008951F920F920FB60F92FF
:1050000011242F933F934F935F936F937F938F93CD
:105010009F93AF93BF93EF93FF938091E10082FF43
:105020000BC08091E20082FF07C08091E1008B7F7E
:105030008093E1000E94662A8091DA0080FF19C007
:105040008091D80080FF15C08091DA008E7F809318
:10505000DA008091D90080FF94C080E189BD82E1AF
:1050600089BD09B400FEFDCF81E08093AB020E94B0
:1050700050248091E10080FF19C08091E20080FF00
:1050800015C08091E2008E7F8093E2008091E20063
:1050900080618093E2008091D80080628093D80084
:1050A00019BC85E08093AB020E9462248091E100EC
:1050B00084FF29C08091E20084FF25C080E189BD82
:1050C00082E189BD09B400FEFDCF8091D8008F7DBB
:1050D0008093D8008091E1008F7E8093E1008091E1
:1050E000E2008F7E8093E2008091E20081608093F5
:1050F000E2008091A702882309F449C084E08093EC
:10510000AB020E9463248091E10083FF29C080915B
:10511000E20083FF25C08091E100877F8093E1005A
:1051200082E08093AB021092A7028091E1008E7F13
:105130008093E1008091E2008E7F8093E200809175
:10514000E20080618093E20042E060E080E00E9443
:10515000FF268091F00088608093F0000E94612417
:10516000FF91EF91BF91AF919F918F917F916F913F
:105170005F914F913F912F910F900FBE0F901F9015
:10518000189519BC1092AB020E945E2472CF8091D8
:10519000E30087FD02C081E0B2CF83E0B0CF1F9271
:1051A0000F920FB60F9211242F933F934F935F935B
:1051B0006F937F938F939F93AF93BF93CF93EF930F
:1051C000FF93C091E900CF708091EC001092E9004C
:1051D0008091F000877F8093F00078940E940B29E3
:1051E0001092E9008091F00088608093F000C093F5
:1051F000E900FF91EF91CF91BF91AF919F918F9176
:105200007F916F915F914F913F912F910F900FBEC2
:105210000F901F9018951F93CF93DF93CDB7DEB7F4
:10522000AA970FB6F894DEBF0FBECDBFECEAF2E04E
:105230008091F100819322E0E43BF207C9F70E94DC
:105240006F248091E80083FF44C08091AC0290916C
:10525000AD029A3008F03DC0E92FF0E0EE5CF64D6B
:105260000C94DD2A3C296229692962296929C0290F
:10527000E2296929392A462A803889F0823849F595
:105280008091B0028F70873020F58093E900809183
:10529000EB0085FB882780F91092E90006C0809119
:1052A000A8029091A902911182609091E800977FE5
:1052B0009093E8008093F1001092F1008091E80053
:1052C0008E772DC0282F2D7F21F48823D1F08230B6
:1052D00059F18091E80083FF0AC08091E800877F40
:1052E0008093E8008091EB0080628093EB00AA96A7
:1052F0000FB6F894DEBF0FBECDBFDF91CF911F91E7
:1053000008958091AE02813021F7933009F080E05A
:105310008093A9021092E9008091E800877F809332
:10532000E8000E943327D5CF8091AE028111F2CFE1
:105330008091B0028F702FEF280F263050F68093A7
:10534000E9002091EB0020FFE5CF933031F480910C
:10535000EB0080628093EB00DDCF9091EB009061D9
:105360009093EB0021E030E001C0220F8A95EAF72C
:105370002093EA001092EA008091EB008860EACF67
:105380008111A7CF1091AE021F778091E300807842
:10539000812B8093E3008091E800877F8093E80071
:1053A0000E9433278091E80080FFFCCF8091E300CA
:1053B00080688093E30083E0111101C082E0809354
:1053C000AB0287CF8058823008F083CF8091AE0245
:1053D0009091AF028C3D23E09207A1F583E08A8390
:1053E0008AE289834FB7F894DE01139620E03EE00D
:1053F00051E2E32FF0E050935700E49120FF03C007
:10540000E295EF703F5FEF708E2F90E0EA30C0F0D2
:10541000C7968D939D932F5F243159F74FBF80918D
:10542000E800877F8093E8006AE270E0CE01019691
:105430000E9440268091E8008B778093E80049CF56
:10544000C096E7CF6091B0027091B102AE014F5F9C
:105450005F4F0E946625BC01892B09F43ACF9091D9
:10546000E800977F9093E80089819A810E949F26A7
:10547000E1CF803809F02DCF8091E800877F8093BD
:10548000E8008091A7028093F10018CF811121CF0D
:105490009091AE02923008F01CCF8091E800877F97
:1054A0008093E8009093A7020E9433278091A7027F
:1054B000882331F084E08093AB020E94652409CFF9
:1054C0008091E30087FDF6CF81E0F5CF0895CF937B
:1054D0008091AB02882399F0C091E900CF70809150
:1054E000EC0080FD0EC080E0C82B1092E900809196
:1054F000E80083FD0E940B29CF70C093E900CF9193
:10550000089580E8F1CFDB018F939F930E94F22AE8
:10551000BF91AF91A29F800D911DA39F900DB29F4F
:10552000900D11240895AA1BBB1B51E107C0AA1FAF
:10553000BB1FA617B70710F0A61BB70B881F991F34
:105540005A95A9F780959095BC01CD01089597FBD8
:10555000072E16F4009407D077FD09D00E94932AF5
:1055600007FC05D03EF4909581959F4F0895709566
:1055700061957F4F0895A1E21A2EAA1BBB1BFD0166
:105580000DC0AA1FBB1FEE1FFF1FA217B307E40722
:10559000F50720F0A21BB30BE40BF50B661F771F7A
:1055A000881F991F1A9469F760957095809590955A
:1055B0009B01AC01BD01CF010895EE0FFF1F0590C7
:1055C000F491E02D0994A29FB001B39FC001A39F65
:1055D000700D811D1124911DB29F700D811D11242C
:1055E000911D08950E94E32AA59F900DB49F900DF0
:1055F000A49F800D911D11240895FC01415050403D
:1056000030F001900616D1F73197CF010895882721
:1056100099270895F999FECF92BD81BDF89A9927EF
:1056200080B50895A6E1B0E044E050E00C94442B2E
:10563000A8E1B0E042E050E00C94442B262FF99909
:10564000FECF92BD81BDF89A019700B4021639F0E1
:105650001FBA20BD0FB6F894FA9AF99A0FBE0895B2
:105660000396272F0E941F2B0E941E2B252F0E947E
:105670001F2B242F0C941F2B0196272F0E941F2BCA
:105680000C941E2BDC01CB01FC01F999FECF06C066
:10569000F2BDE1BDF89A319600B40D9241505040F0
:0856A000B8F70895F894FFCF5C
:1056A800010214141401191A1B1C1D1E1F2021228B
:1056B8000B022808140A321E6B230A24DF23A923AD
:1056C8006E2301F0F1C6676636943137F434979645
:1056D8003330909192939500010202020206060669
:1056E8000909090909090F0F0F0F0F0F15151518CB
:0C56F80019191919191919191919232465
:00000001FF
