:100000000C949E030C94E5030C94E5030C94E50317
:100010000C94E5030C94E5030C94E5030C94E503C0
:100020000C94E5030C94E5030C942E2B0C94022CF9
:100030000C94E5030C94E5030C94E5030C94E503A0
:100040000C94E5030C9484260C94E5030C94E503CE
:100050000C94E5030C941E220C94E5030C94E50328
:100060000C94E5030C94E5030C94E5030C94E50370
:100070000C94E5030C94E5030C94E5030C94E50360
:100080000C94E5030C94E5030C94E5030C94E50350
:100090000C94E5030C94E5030C94E5030C94E50340
:1000A0000C94E5030C94E5030C94E5030102E201D2
:1000B00002E1320103E10103E2000102E273010304
:1000C000E2000102E2750103E20102E16F0103E1D6
:1000D000000102E2750103E20102E1750103E100A2
:1000E0000102E2750103E20102E1610103E100F1B5
:1000F000A129001E001F002000210022002300244F
:10010000002500260027002D002E0035002A002B98
:100110000014001A000800150017001C0018000C3D
:1001200000120013002F00300000003100025104C3
:10013000001600070009000A000B000D000E000F5A
:100140000033003400010000002800E10001511DCF
:10015000001B0006001900050011001000360037D2
:1001600000E500380052003800E000E200E3000043
:1001700000000001002C00010000000000E700E684
:1001800000500051004F00005C3A003B003C003D35
:10019000003E003F00400041004200430044004553
:1001A0000035004C00C25CC55CC75CC95CC35CBF69
:1001B0005CBE5C01000100010001000100010000C3
:1001C0000001000251C65CC85CCA5CC45CC15CBD75
:1001D0005C01000100010001000100010000002895
:1001E00000E100010001006500010001000100AA1A
:1001F00000A900A8000100E50001004B004900E053
:1002000000E200E3000000000001002C00010000FB
:10021000000000E700E600BC004E00BB0029001E05
:10022000001F0020002100220023002400250026BA
:100230000027002D002E0035002A002B0514001A7F
:10024000000800150017001C0018000C0512001310
:10025000002F0030000000310001000400160007EC
:100260000009050A000B000D000E000F00330034DA
:1002700000010000002805E10001001D001B000630
:1002800005190005001100100036003700E50038A0
:100290000052053800E000E200E300000000000129
:1002A000002C00010000000000E700E600500551AE
:1002B000054F0500000000000000002A2B28000068
:1002C0000000000000000000000000000000290005
:1002D0000000002C1E3420212224342627252E360F
:1002E0002D3738271E1F202122232425263333367D
:1002F0002E37381F0405060708090A0B0C0D0E0FD0
:10030000101112131415161718191A1B1C1D2F3152
:1003100030232D350405060708090A0B0C0D0E0FB6
:10032000101112131415161718191A1B1C1D2F3132
:1003300030354C000000000000000000000000000C
:10034000000000000000007E0F00D4FFFFFFC70088
:1003500000007832190A00047F3F1F6432146432AF
:1003600014783C1E1E140A052223252628292A2C2F
:100370002D2F3032333536383A3B3D3E40424345EF
:1003800047494A4C4E5051535557595A5C5E60622A
:10039000646668696B6D6F71737577797B7D7F813A
:1003A000838587898A8C8E90929496989A9C9E9F3A
:1003B000A1A3A5A7A8AAACAEAFB1B3B4B6B8B9BB58
:1003C000BCBEBFC1C2C3C5C6C7C9CACBCCCDCED0C7
:1003D000D1D2D2D3D4D5D6D7D7D8D9D9DADADBDBB4
:1003E000DBDCDCDCDCDCDDDDDDDDDCDCDCDCDCDB4B
:1003F000DBDBDADAD9D9D8D7D7D6D5D4D3D2D2D194
:10040000D0CECDCCCBCAC9C7C6C5C3C2C1BFBEBC86
:10041000BBB9B8B6B4B3B1AFAEACAAA8A7A5A3A1F7
:100420009F9E9C9A98969492908E8C8A89878583B9
:10043000817F7D7B79777573716F6D6B6968666499
:1004400062605E5C5A5957555351504E4C4A494769
:10045000454342403E3D3B3A3836353332302F2D0E
:100460002C2A292826252322FFAA7F554000010196
:100470000101010101010102020202020202020263
:100480000303030303030303040404040404040533
:1004900005050505060606060607070707070808F7
:1004A0000808090909090A0A0A0B0B0B0C0C0C0DA8
:1004B0000D0D0E0E0E0F0F0F101011111112121341
:1004C000131414151516161717181819191A1A1BBC
:1004D0001B1C1D1D1E1E1F2020212222232424251B
:1004E0002626272829292A2B2C2D2D2E2F30313254
:1004F00032333435363738393A3B3C3D3E3F404164
:1005000042434445464748494A4C4D4E4F5051534B
:1005100054555658595A5B5D5E5F61626465666802
:10052000696B6C6D6F7072737577787A7B7D7E8086
:1005300082838587888A8C8E8F91939596989A9CD2
:100540009EA0A2A3A5A7A9ABADAFB1B3B5B7BABCE6
:10055000BEC0C2C4C6C9CBCDCFD1D4D6D8DBDDDFB7
:10056000E2E4E7E9EBEEF0F3F5F8FAFDFF00000056
:100570000000000000000000010204060A0F17201E
:100580002C3A4A5D71879DB3C7DAE9F5FCFFFCF5AB
:10059000E9DAC7B39D87715D4A3A2C20170F0A0626
:1005A000040201000000000000000000000403300D
:1005B0000000000A0344006F003600300000002EE7
:1005C00003530068006F0070006B00650079002025
:1005D0000062007900200044006F0079007500205F
:1005E00000530074007500640069006F000000048F
:1005F00003090409023B00020100A0FA09040000FB
:100600000103010100092111010001224000070539
:10061000810308000A090401000103000000092108
:100620001101000122BC000705820320000A12010B
:100630001001000000085344606001000102030142
:1006400005010902A10185020901A100050919019D
:100650002905150025019505750181029501750390
:1006600081010501093009311581257F9502750841
:10067000810609381581257F950175088106050CCD
:100680000A38021581257F950175088106C0C005CD
:10069000010980A101850319012AB700150126B7B8
:1006A00000950175108100C0050C0901A1018504A8
:1006B00019012AA002150126A002950175108100DA
:1006C000C005010906A1018505050719E029E715FF
:1006D0000025019508750181020507190029EF150C
:1006E00000250195F075018102050819012905957C
:1006F0000575019102950175039101C00501090677
:10070000A101050719E029E71500250195087501E4
:1007100081029501750881010507190029FF15005F
:1007200026FF009506750881000508190129059521
:100730000575019102950175039101C011241FBE39
:10074000CFEFDAE0DEBFCDBF04B603FE27C0809155
:100750008D0390918E03A0918F03B0919003873009
:10076000904BA740B04BD1F410928D0310928E03A2
:1007700010928F031092900314BE84B7877F84BFBA
:100780000FB6F894A895809160008861809360000E
:10079000109260000FBEE0E0F8E3099511E0A0E0E0
:1007A000B1E0ECEBFEE502C005900D92AC3CB10768
:1007B000D9F723E0ACECB1E001C01D92AD38B2072F
:1007C000E1F70E945D280C94202F0C94000044E671
:1007D00064E684E60C94E10C229A2A9A08950E9419
:1007E00003090E94EC030C94E703CF93C82F0E94E7
:1007F0009206882319F0C1FD04C02A9A81E0CF91A6
:1008000008952A98FBCF0F931F93CF93DF93EC01AA
:100810008B010E945F1F809323030E945F1F8272DF
:100820008093CC01C231D10509F45EC040F4C430DC
:10083000D10531F1289709F48BC081E04AC0C63157
:10084000D10509F473C06897C1F7809123038474BC
:10085000A1F3F80182818823E1F182EE0E94EF1674
:1008600086EE0E94EF168091CC018823B9F181EECB
:100870000E94EF1685EE0E94EF1681ED90E01AC0FF
:10088000809123038474C9F2F8018281882309F1DD
:1008900082EE0E94EF1686EE0E94EF168091CC0148
:1008A000882359F081EE0E94EF1685EE0E94EF1624
:1008B00080EE90E00E94810607C088E194E00E94EB
:1008C000730584E00E944517809123030E946F1FE7
:1008D00080E0DF91CF911F910F91089588E194E01E
:1008E0000E94730588E1EECF80912303847409F49C
:1008F000A4CFF8018281882361F382EE0E94EF1673
:1009000086EE0E94EF168091CC01882349F081EE9B
:100910000E94EF1685EE0E94EF1682EC90E0CACF9F
:1009200088E194E00E94730582E1CCCF809123039B
:10093000847409F482CFF8018281882351F282EE17
:100940000E94EF1686EE0E94EF168AEB90E0B2CF7F
:1009500080912303847409F470CFF8018281882385
:1009600009F4B7CF82EE0E94EF1686EE0E94EF16D2
:100970008CEA90E09FCF08958091CE01811102C052
:100980000C945E0F8091380380FF0E9423108091A9
:1009900038038E7F823019F081E00E94ED0F809144
:1009A000CE01813071F0882359F3823049F720E479
:1009B00033E04EE46BE282E30E94DE0A27E633E096
:1009C00009C02DE333E04EE46BE282E30E94DE0ACD
:1009D0002AE633E04EE46BE282E30E94DE0A0C94E6
:1009E000410BCF92DF92EF92FF926B017C010E944C
:1009F00011209091CE01891721F08093CE010E94A1
:100A0000BC04C701B601FF90EF90DF90CF9008952E
:100A100082709091CD01981721F08093CD010C94B4
:100A2000BC040895CF93DF939C013A9521153F4173
:100A300068F5EC01CC27D170DC01AA27B270AC01BB
:100A4000442754709C012227387094FF11C080E124
:100A5000CD2B09F480E0AB2B09F08062452B09F027
:100A60008064232B09F08068FB01DF91CF9109940A
:100A700081E0CD2B09F480E0AB2B09F08260452B9F
:100A800009F08460232B81F38860EECFDF91CF9152
:100A90000895CF93DF93EC01805E9109089720F0D1
:100AA0006EEB79E1209711F468E577E1CE010E94C1
:100AB00012058C2FDF91CF910C945D16CF93DF93AD
:100AC000EC010E94EF16CE01805E9109089720F09C
:100AD00065EC79E1209711F46FE577E1CE01DF91C4
:100AE000CF910C941205CF93DF93EC010E9449053E
:100AF000CE01DF91CF910C945E0581E008950C94B6
:100B0000030408950C9481051F93CF93DF9300D0C5
:100B100000D00F92CDB7DEB749835A836B833091F3
:100B2000570289819A8131111DC06623B9F02223B1
:100B3000A9F00E94CA1E182F682F89819A810E94ED
:100B4000761E69817A81812F0F900F900F900F9000
:100B50000F90DF91CF911F910C94F8060E94A21E76
:100B6000182FEFCF0E94CA1E69817A81EDCFFC0158
:100B7000262F408151816281738184810C94840588
:100B8000CF93DF93EC0160E00E94B705BE01DF91D7
:100B9000CF910C948205FF920F931F93CF93DF9315
:100BA000E82FF0E0ED54FD4FF490C82FC695C695A0
:100BB000C695D0E0FE01ED5BFC4F0491877010E01C
:100BC000082E02C0159507950A94E2F701701127C7
:100BD000CD5CDC4FFE01C491D0E002C0D595C79535
:100BE0008A95E2F7C170DD270115110519F081EE34
:100BF0000E945D16209719F086EE0E945D168F2DDB
:100C00000E944517CD2B19F086EE0E94EF16012B9E
:100C100041F081EEDF91CF911F910F91FF900C94E5
:100C2000EF16DF91CF911F910F91FF900895EF92F2
:100C3000FF920F931F93CF93DF938C01F62E8AE0E0
:100C4000E82EF8018491882309F454C0813009F01A
:100C50004DC0E8012196FE018491813091F42196E6
:100C6000FE0184910E9445178E010F5F1F4F8F2D4B
:100C7000815038F3EFE9FFE03197F1F700C0000051
:100C8000F7CF823039F4E8012296FE0184910E9468
:100C90005D16EACF833039F4E8012296FE01849193
:100CA0000E94EF16E1CF8430F9F6E8012296FE01AA
:100CB000249190E080E0FE0131962053330B2A30DE
:100CC000310548F0019780F2EFE9FFE03197F1F745
:100CD00000C00000F7CFE89EA001E99E500D11244E
:100CE000C901840F951F2491EF01E5CF0E94CB0528
:100CF000E801BACFDF91CF911F910F91FF90EF9054
:100D0000089560E00C9417060E945E20811102C0D5
:100D10000E940E210E94BD120C94EF030C94040952
:100D20000C94080581E00895CF93C82F0E94900687
:100D30008C2FCF910C94F50308950E94E2190E9424
:100D40009C062FEF84E39CE0215080409040E1F727
:100D500000C000000C9442220F931F93CF93DF93A7
:100D6000EC0161E00E94B7058C01BE010E947F0585
:100D7000882389F1BE01C8010E942912882359F1F4
:100D8000BE01C8010E946613882329F1BE01C80173
:100D90000E94A7138823F9F0BE01C8010E94CA145B
:100DA0008823C9F0BE01C8010E94F010882399F081
:100DB0008A81882339F001158CE5180751F00E3D22
:100DC0001C4579F0CE01DF91CF911F910F910C94CA
:100DD0007D050E949D0680E0DF91CF911F910F91CC
:100DE00008950E940E21F7CF90E080E008950895C5
:100DF000972F70E02FE0929F600D711D1124FB0171
:100E00009BE4899FE00DF11D1124EE0FFF1FEF50B1
:100E1000FF4F859194910895FC01EE0FFF1FE15162
:100E2000FF4F859194910895CF93DF930E94F80628
:100E30000E942908EC01811520E5920708F042C0C4
:100E4000811530E4930708F0BDC0883E910528F570
:100E5000803E910508F09DC0883A910588F4853A56
:100E6000910508F08FC08130910509F492C0009778
:100E700009F48FC0049708F08CC0D0E0C0E089C0AE
:100E80008F3B910508F489C0805C9109C03CD10575
:100E9000A0F30E940C07EC017CC08115904250F435
:100EA000C11581E0D80708F074C0C03FD10528F310
:100EB000D0656FC0C11590E3D90708F079C0CE01A5
:100EC0009F70E7CF811525E5920758F5811534E528
:100ED000930708F0A6C0811542E5940750F4C115A8
:100EE00081E5D80708F471C0DC2FCC27C16FD06A28
:100EF00050C0982F969596959E0123703327C11563
:100F0000D34508F07FC0C1E0D0E002C0CC0FDD1FA8
:100F10002A95E2F720E2929FC0011124C82BD92B19
:100F20006FC0C11589E5D807A8F4C11598E5D907A0
:100F300008F07CC0C11526E5D20708F09ECF8C2FA3
:100F40000E94C008C82FD0E0DC2FCC27CC27DF714F
:100F5000D0621FC0C1153AE5D30708F46CC0CE01BA
:100F600090568115904208F088CF8D2F8F710E9486
:100F7000C00890E0982F882788279F719C012C2B10
:100F8000E901E6CFC55AD0E0C75ADE4FC881D0E0AC
:100F9000D064CE01DF91CF910895C85AD0E0CC0F34
:100FA000DD1FC55DDE4F0990D881C02DD464F1CF1F
:100FB000CE019927D3FF03C0EC01D86CEACFEC0136
:100FC000D06CE7CFDF70D06AE4CFCE01E4E0969535
:100FD0008795EA95E1F783702C2F26952695237047
:100FE00090E2299F90011124382B8C2F8370C1E04F
:100FF000D0E002C0CC0FDD1F8A95E2F7C22BD32BC5
:10100000DC68C7CFC1E0D0E002C0CC0FDD1F2A955D
:10101000E2F730E2939FC0011124C82BD92BDA6884
:10102000B8CFD82FCC27C46FD06AB3CFDC2FCC2752
:10103000C06FD06AAECF8C2F8F700E94C00834E092
:10104000D695C7953A95E1F7CF709C2FEC01D06902
:10105000A0CF82389105B1F1B0F48133910509F444
:1010600075C048F48932910509F469C08A32910546
:1010700009F473C008958533910509F459C0893383
:10108000910501F10895833E9105A9F138F4803E60
:101090009105F9F0823E910549F10895863E91054A
:1010A000A9F1873E9105C9F1843E910519F520917A
:1010B0007F0321FF1FC080917E0384FD14C087EE53
:1010C00090E0089520917E032370A1F080EE90E0DF
:1010D000089520917E0320FD47C030917F0330FFAB
:1010E00009C024FF44C090E080E004C020917E034A
:1010F00022FDF7CF089520917E0322FD3BC0309161
:101100007F0330FDE3CF24FFF5CFEDCF20917E03A9
:1011100023FFF0CF24FDE7CFD2CF20917E0323FD24
:101120002CC030917F0331FFEECF84EE90E0089524
:1011300020917E0325FFDECF89E290E00895209183
:101140007E0325FFD7CF85E390E0089520917E03AD
:1011500026FFD0CF8AE290E0089520917E0326FFFB
:10116000C9CF81E390E0089589E390E0089583EE8C
:1011700090E0089582EE90E0089586EE90E0089564
:1011800090917E0392FF06C0282F28712830F9F431
:10119000877F846093FF06C0282F28712831F1F4DF
:1011A000877E846120917F0320FF06C0382F38712D
:1011B0003830D9F4877F816021FF06C0282F28713D
:1011C0002831D1F4877E816194FD877E0895282F90
:1011D00024712430F9F68B7F8860DCCF282F2471AE
:1011E000243101F78B7E8861DDCF382F31713130AA
:1011F00019F78E7F8860E0CF282F2171213121F7E8
:101200008E7E8861E1CF08950C94BB04E82FF0E056
:10121000EE0FFF1FE25DFC4F8081918108950895DC
:1012200080EA8A95F1F70895CF93DF93ABE6B1E0BA
:1012300040E751E0C1E0D0E08D91E82FE295EF70FA
:10124000F0E061A18F709E0101C0220F8A95EAF73C
:10125000922F9095962391A382A1822B82A34A1765
:101260005B0751F7ACE5B1E061E070E08D91E82FEC
:10127000E295EF70F0E041A18F709B0101C0220F59
:101280008A95EAF7922F9095942391A382A1822BBD
:1012900082A381E0AB36B80749F71092250310927C
:1012A000240310922F0310922E0310922703109202
:1012B00026031092310310923003109229031092EA
:1012C0002803109233031092320310922B031092D2
:1012D0002A03109235031092340310922D031092BA
:1012E0002C03109237031092360385E00E94030A04
:1012F000DF91CF910C9484068F929F92AF92BF9210
:10130000CF92DF92EF92FF920F931F93CF93DF93D1
:101310008BE6E82E81E0F82E04E213E0912CAA245B
:10132000A394B12CF70181917F01C82FC295CF7092
:10133000D0E099A18F70650101C0CC0C8A95EAF7C5
:10134000892F8C2989A38AA18C2C809488218AA337
:101350000E941009ECE5F1E050E040E030E020E0D0
:101360006191A62FA295AF70B0E090968C9190E01D
:101370006F7002C0959587956A95E2F780FD3EC033
:10138000C501042E02C0880F991F0A94E2F7282B8A
:10139000392B4F5F5F4F4F30510511F789A18822DC
:1013A00089A28AA1C82ACAA2F8018081918128173E
:1013B000390739F13183208381E0982A0E5F1F4F6E
:1013C000F0E7EF16F1E0FF0609F0ACCF292D45E07C
:1013D0006EE273E084E293E00E94040A0E948E06AB
:1013E000892DDF91CF911F910F91FF90EF90DF90AA
:1013F000CF90BF90AF909F908F90089590E080E045
:10140000C6CF80E0DACF0895FF920F931F93CF935A
:10141000DF93F82E092F162FD72FC42F222349F040
:1014200081E08093D1010E9403229093D0018093A8
:10143000CF018091D1018823A1F08091CF019091BB
:10144000D0010E940F22069760F0EF2DF02FA12F00
:10145000BD2F90E080E0D0E08C179D0744F0109203
:10146000D101DF91CF911F910F91FF9008952191AC
:1014700031912D933D930196EFCFAF92BF92CF92D2
:10148000DF92FF920F931F93CF93DF93362F472F57
:10149000E82FF0E0E359FB4F71110DC06491762FF6
:1014A000862FDF91CF911F910F91FF90DF90CF900A
:1014B000BF90AF900895C72FD0E02491F22E022F55
:1014C00010E056E0659FC0011124EFEFF0E0BF018E
:1014D0000E94DE2D832F90E0880F991F35E5369FFF
:1014E000D001379FB00D11248A1B9B0B982F990FA9
:1014F000980F6F01CC1ADD0AC09ED001C19EB00DBD
:10150000D09EB00D11248B2F949FA0011124452F44
:1015100055276F01C41AD50AC09EA001C19E500D67
:10152000D09E500D11245F01A91AB108AC9E600134
:10153000AD9ED00CBC9ED00C1124CD2CDD24EC191A
:10154000FD09E09FE001E19FD00DF09FD00D112437
:10155000ED2F62307105A1F048F46115710569F055
:101560006130710589F0EB2F852F07C0643071055C
:1015700071F088F066307105B1F76E2F722F91CF40
:10158000E22F2B2F8D2FF9CFE22F252FF6CFEB2F28
:10159000822F2D2FF2CF2B2F8F2DE52FEECF0895F9
:1015A000CF93DF93762FE901682F842F0E943D0AA5
:1015B000798368838A83DF91CF9108950C94D00A50
:1015C00080913803982F9E7F29F4817082608093E8
:1015D000380308958635E8F381708465F8CF88E094
:1015E00090E00C94B92ECF92DF92EF92FF926B01B4
:1015F0007C010E94E00AB701A60188E090E0FF901C
:10160000EF90DF90CF900C94D72EE8E3F3E083E0E7
:10161000808311828FEF8283838314826081718142
:10162000828193810C94F30A8091380380FF02C079
:101630008695089580E0089580913C03833018F4E6
:101640008F5F80933C0360913803709139038091E0
:101650003A0390913B030C94F30A80913C03882356
:1016600019F0815080933C036091380370913903E5
:1016700080913A0390913B030C94F30A70E00C9430
:10168000CD12609107018091380380FF0AC08091DC
:10169000060123E0829FC0011124835C9C4F0C94BF
:1016A0003E0B809108019091090123E0829FF00197
:1016B0001124E35CFC4F891750F7118210821282CB
:1016C0008F5F3396F8CF9091380390FF14C09091BC
:1016D00008012091090133E0939FF0011124E35C9C
:1016E000FC4F921710F00C94410B8183608342836E
:1016F0009F5F3396F6CF0895CF93DF9300D00F927C
:10170000CDB7DEB79091380390FF0AC09E012F5FDE
:101710003F4F0E94D00A4B8169818A810E94630BEE
:101720000F900F900F90DF91CF910895CF93DF939B
:10173000EC01EC81F0E0E859FC4F4491E8E3F3E080
:10174000628181810E947C0B8C818F5F8C83DF9111
:10175000CF910895CF93DF93EC01E8E3F3E0438169
:1017600062818C810E947C0B8C818F5F8C83DF91E6
:10177000CF9108950F931F93CF93DF9300D00F92D3
:10178000CDB7DEB78C018091D20181110AC09E01D4
:101790002F5F3F4F4FEF6FEF0E94D00A8A818093F7
:1017A000D201F8016481613069F08091D20140E09A
:1017B000662361F040E0623011F44091D20180E094
:1017C00060E004C06091D20140E080E00E94630BC1
:1017D000F801848190E0019663E070E00E94F22DB0
:1017E00084830F900F900F90DF91CF911F910F91F5
:1017F0000895AF92BF92CF92DF92EF92FF920F9334
:101800001F93CF93DF9300D00F92CDB7DEB7182F81
:10181000F62E042FE22E9091380390FF29C0E92F75
:10182000E695AE2FB0E0A059BE4F8C918093400258
:101830009E7F923059F59E012F5F3F4F812F0E946E
:10184000D00A4B8169818A810E94630B109339030E
:10185000F0923A0300933B03EE2051F0609138037D
:101860007091390380913A0390913B030E94F30AEF
:101870000F900F900F90DF91CF911F910F91FF90DC
:10188000EF90DF90CF90BF90AF900895823019F421
:1018900000913B03DBCF863019F410913903D6CF8A
:1018A0008930D9F3893191F6E9518E2F8170D82E84
:1018B000E695F0E0E859FB4FA590B490C12CBB240D
:1018C00060910A01C61618F00E94410BBFCF2C2D63
:1018D00030E0A29EC001A39E900DB29E900D1124F7
:1018E00070E00E94DE2D812FD11013C0860F409131
:1018F0000801420F532F511D9A01220F331F240F4D
:10190000351F235C3C4F402F6F2D0E94D00AC3949B
:10191000D7CF861BECCFE8E3F3E09181282F4381FA
:1019200062818AE0890F0C94F90B81E00C948B0C96
:10193000E8E3F3E09181282F4381628186EF890FEC
:101940000C94F90B81E00C94980CE8E3F3E06281CD
:101950002FE0620F08F46FEF282F438181810C94F0
:10196000F90B81E00C94A50CE8E3F3E062812FE031
:10197000621B08F460E0282F438181810C94F90BED
:1019800081E00C94B40CE8E3F3E043812FE0420FD4
:1019900008F44FEF282F628181810C94F90B81E0CC
:1019A0000C94C30CE8E3F3E043812FE0421B08F4FE
:1019B00040E0282F628181810C94F90B81E00C9426
:1019C000D20C21E00C94F90B20E00C94F90BEF926F
:1019D000FF921F93CF93DF93EC0110E0EE24EA9483
:1019E000F12C60910A01161770F00E94410B9A8148
:1019F0008C8190FF27C08F5F8C83DF91CF911F91E7
:101A0000FF90EF90089520910801422F410F552734
:101A1000551FCA019A01220F331F280F391F235C5B
:101A20003C4F70E0C7010E94F22D962F8C814091AF
:101A30003B0360913A03199F800D11240E94D00A44
:101A40001F5FCFCF8150D8CFAF92BF92CF92DF929E
:101A5000EF92FF920F931F93CF93DF93FC0182814C
:101A60000FEF80FF01E010E044E1A42E80910A0115
:101A70001817C8F00E94410B8091D401013009F081
:101A800055C0811102C080910A0181508093D40118
:101A9000DF91CF911F910F91FF90EF90DF90CF904A
:101AA000BF90AF900895C0910801C12ED12CCC0DEC
:101AB000DD2DD11DCE01880F991FC80FD91FC35C22
:101AC000DC4F198218821A8234E0E32EF12CB12CFB
:101AD0008091D4018B0D85311CF16A2D0E94D02D8F
:101AE000892F082E000C990BC816D90691F4809105
:101AF0003B038E9DA0018F9D500D11245595479558
:101B0000559547959E0160913A03809139030E9453
:101B1000D00AB00EF1E0EF1AF108D1F61F5FA6CFA0
:101B200087FFDFCF90910A01890FDBCF90E001960C
:101B300060910A0170E00E94F22DA8CF0F931F93CD
:101B4000CF93DF93809108019091090123E0829F58
:101B5000F0011124E35CFC4F891740F1C0E0D3E0B1
:101B600060910A01C61740F10E94410B20910401C7
:101B70008091D301820F8093D30190910501920F40
:101B800090930501191654F4082E000C990B4091FE
:101B90000A014150550B841795071CF0219520939D
:101BA0000401DF91CF911F910F910895118210824E
:101BB00012828F5F3396D0CF0C2F10E070E0C801F7
:101BC0000E94F22D20910801820F482F50E02091B1
:101BD000D301022E000C330B02171307BCF0209127
:101BE0000501022E000C330B201731077CF08D9F6E
:101BF00090011124235C3C4F40913B0360913A03D8
:101C0000809139030E94D00ACF5FAACFFA01EE0F6C
:101C1000FF1FE40FF51FE35CFC4F1182108212825C
:101C2000F3CF0F931F93CF93DF938C01FC0184813B
:101C3000958101968170992795838483C0E0D5E5CD
:101C400080910A01C81730F0DF91CF911F910F9159
:101C50000C94410B20910801422F4C0F5527551F22
:101C6000CA019A01220F331F280F391F235C3C4FF2
:101C70008C2F8695F80144815581840F952F911DF5
:101C8000817040913B0360913A038D9F802D112418
:101C90000E94D00ACF5FD4CF0F931F93CF93DF93CF
:101CA000EC0110E000E090910A019017110609F094
:101CB0006CF40E94410B8C8190E001968170992711
:101CC0008C83DF91CF911F910F910895209108018E
:101CD000A801420F511D9A01220F331F240F351FF7
:101CE000235C3C4F4C8160913A0380913903969577
:101CF0009017110651F04CF0442349F040913B03FA
:101D00000E94D00A0F5F1F4FCECF4423B9F340E0AB
:101D1000F7CF8F929F92AF92BF92CF92DF92EF92C6
:101D2000FF920F931F93CF93DF93FC01B2809480B7
:101D300081E0848300E015E05BE4A52E8824839491
:101D4000EE24EA94F12C7BE4C72ED12C80910A0179
:101D5000081770F0DF91CF911F910F91FF90EF90D6
:101D6000DF90CF90BF90AF909F908F900C94410BDD
:101D7000C02FD0E01C9FF0011D9FF00D1124EB52ED
:101D8000FE4F91101CC01382128220910801CE01D7
:101D9000820F911D9C01220F331F280F391F235CD6
:101DA0003C4F1C9FF0011D9FF00D1124EB52FE4F84
:101DB0004281618180810E94D00A0F5FC7CF238159
:101DC000222379F12150238334818A2D821B311102
:101DD00001C0822F1C9FF0011D9FF00D1124EB52BA
:101DE000FE4F90913B03899FC0011124B6010E94D0
:101DF000DE2D6283211104C0332311F01482A382EB
:101E000022E02B1510F21C9FF0011D9FF00D1124F4
:101E1000EB52FE4F80913903808380913A03818396
:101E2000B4CF0E94942E823091400CF0AECF82E06D
:101E30008B1530F50E94942EB7010E94F22D1C9F45
:101E4000F0011D9FF00D1124EB52FE4F808322E024
:101E50002B15C8F40E94942E20913A032695622FE8
:101E600070E00E94F22D280F1C9FF0011D9FF00DC5
:101E70001124EB52FE4F21831282A382848285CFEC
:101E800080913903DCCF20913A03EECFE8E3F3E011
:101E900080818E7F808360817181828193810E94A5
:101EA000F30A109241022FEF80E792E02150804028
:101EB0009040E1F700C000000C94410BE8E3F3E030
:101EC00080818E7F8083109241022FEF80E792E025
:101ED000215080409040E1F700C000000C94410B7D
:101EE00060913803669570E04BE050E08BE091E044
:101EF0000E94A42E892B19F481E0809341020E9454
:101F0000032290933A028093390208959091380306
:101F100090FF35C09170811128C092609093380372
:101F2000662351F0609138037091390380913A0330
:101F300090913B030E94F30A60913803669570E02C
:101F40004BE050E08BE091E00E94A42E892BA1F0A1
:101F50001092410281E080933C0240913B036091EA
:101F60003A03809139030C94E40C8B3210F09465A1
:101F7000D5CF880F982BD2CF0E94700FEBCF08954A
:101F8000682F90913803969581E0890F8B3208F085
:101F900081E00C94860F81E00C94C00F682F909123
:101FA000380396958FEF890F09F48AE20C94860F17
:101FB00081E00C94CE0F61E00C94860FE8E3F3E02F
:101FC00080818160808386950C94DB0F809138033B
:101FD00080FD0C94460F0C94DE0F60E00C94860F8D
:101FE00080913F0281112EC00E945E20811104C0A9
:101FF0000E940E210E94050B0E94EF0A6093380395
:102000007093390380933A0390933B036E7F61F49E
:102010000E94050B0E94EF0A609338037093390306
:1020200080933A0390933B030E94E00A109241028E
:102030008091380380FF03C086950E94ED0F81E0F8
:1020400080933F020895E8E3F3E08081816080831C
:1020500086950C94ED0F0F931F93CF93DF93809190
:102060004102882309F49DC080914002E091380329
:10207000E695E81BE0933B028230C9F5F0E0EC59AD
:10208000FC4FE491CE2FD0E006E91BE080913C02AA
:10209000882389F010923C020E9403229E01209521
:1020A0003095820F931F90933A02809339021092D9
:1020B0003E0210923D028091390290913A020E94B4
:1020C0000F228C179D0708F46CC0E0913902F09143
:1020D0003A02CE0FDF1FD0933A02C093390289E350
:1020E00092E0F801DF91CF911F910F910994863012
:1020F00049F4F0E0EF59FC4FE491CE2FD0E00AEA2A
:102100001BE0C4CF893051F4E695F0E0E25AFC4F71
:10211000E491CE2FD0E007EE1CE0B8CF8F3051F421
:10212000E695F0E0E55AFC4FE491CE2FD0E004E2D2
:102130001DE0ACCF853149F4F0E0E85AFC4FE49162
:10214000CE2FD0E00EE91DE0A1CFC8EED3E001E133
:102150001EE0883109F49ACF833239F4E6E5F3E0E2
:10216000C591D4910AEB1BE091CFC4EFD1E00CE410
:102170001EE0843209F48ACFC0EDD7E00FEC1AE0FC
:10218000853209F083CF8E2F63E00E94C42DE92FA2
:10219000F0E0ED5AFC4FE491CE2FD0E009E81EE0CC
:1021A00075CFDF91CF911F910F910895FA018111A1
:1021B00001C0FB010994CF93DF93C82FD62F0E9453
:1021C000140B8C1740F00E94140B8D1720F4DF9134
:1021D000CF910C94CB0F8C2FDF91CF910C94DB0F10
:1021E0000F931F93CF938C01FB01C281CC2309F481
:1021F00065C00E945F1F8272F801E25CFC45E43119
:10220000F10538F4EE5DF04D0C94282E0E94E60F97
:10221000C0E08C2FCF911F910F91089548ED5FE0A2
:102220006BEC7FE00E94D610F3CF4BEC5FE068EDE3
:102230007FE0F8CF42EA5CE065E97CE0F3CF45E976
:102240005CE062EA7CE0EECF40EC5CE061EB7CE0DD
:10225000E9CF41EB5CE060EC7CE0E4CF4EED5CE08C
:102260006FEC7CE0DFCF4FEC5CE06EED7CE0DACF32
:102270004DE25BE06CE17BE0D5CF4CE15BE06DE2F1
:102280007BE0D0CF81E00E94DB0FC2CF65E082E02F
:102290000E94DB10BDCF68E086E0FACF6EE089E0F7
:1022A000F7CF64E18FE0F4CF67E185E1F1CF88E11A
:1022B000EACF62E289E1ECCF83E2E5CFC1E0A9CFCA
:1022C0000E945E20811102C00E940E210E94962071
:1022D00080937903883320F087708063809379033B
:1022E00090917903892F817090FF04C0892F869582
:1022F000869586950C945E1280917903982F969519
:1023000096959695963040F49F5F990F990F990F87
:102310008770892B80937903809179038160809302
:1023200079030E949A2080917903869586958695F7
:102330000C945E1280917903982F987F79F08850E1
:1023400080937903887F91E009F490E0809179038C
:1023500090FB80F9809379030E949A208091790301
:102360008695869586950C945E128091790380FD02
:1023700013C0816080937903813019F489E08093E0
:102380007903809179030E949A2080917903869540
:10239000869586950C945E1208958091790380FF4E
:1023A00008C08E7F809379030E949A2080E00C946D
:1023B0005E1208958091790380FD0C94CD110C94E8
:1023C000B51190917903892F8695869586958F5FB3
:1023D0008F7197708730D8F4880F880F880F892BFA
:1023E0008093790380917903887F91E009F490E0EC
:1023F0008091790390FB80F9809379030E949A2061
:10240000809179038695869586950C945E129093BB
:102410007903E8CF873008F086E0909179039770D0
:10242000282F220F220F220F922B90937903987F4F
:1024300021E009F420E09091790320FB90F990933A
:1024400079030C945E120E940A12809179030C9415
:102450009A209C01FB018281882349F12D3BFCE5F8
:102460003F07C9F040F42B3BECE53E0769F02C3BFD
:102470003C4579F008952F3B9CE5390791F070F0C9
:10248000203C3C4589F0089586E00E94231280E0BC
:10249000089580E0FACF0E949A11F9CF0E947C1132
:1024A000F6CF0E94DA11F3CF0E94E111F0CF81E064
:1024B0000895259A2D9808952D980895CF92DF922A
:1024C000EF92FF92CF93C82F873040F5811127C03C
:1024D000809180008F77809380000E945C122C2F67
:1024E00030E0AFEFBFEF0E942E2E26E030E040E05C
:1024F00050E00E94062EC9012C3764E13607A8F48B
:1025000069E070E00E94DE2D70938900609388007E
:10251000CF91FF90EF90DF90CF900895C6E080912B
:102520008000806880938000DACF2A50374D4F4F6B
:102530005F4F942F832F722F662725EF38E241E0FB
:1025400050E00E94062E69017A01CA01B9010E9479
:10255000B42D9B01AC01C701B6010E94B42D672FB9
:10256000782F892F99276115710521E08207910540
:1025700059F66FEF7FEFC8CF08950E94591282E895
:102580008093800089E1809381008FEF9FEF90938B
:102590008700809386000C946011859A41B34F7D2B
:1025A00051B35062EFB7F8949B01220F331F260FEF
:1025B000371F280F391F2817390741F4EFBF8FE560
:1025C00094E00197F1F700C000000895DC016D91DF
:1025D000CD0178E051BB000000C067FF41BB660F32
:1025E000000000C000C000C041BB00C07A9591F758
:1025F000E2CF0F931F93CF93DF93C62FD42F022FD9
:10260000FC0182818823C9F0609344020E94032266
:10261000909343028093420280E28C0F883008F04E
:1026200050C0C77081E001C0880FCA95EAF7DF91FA
:10263000CF911F910F910C945817109144021613CB
:1026400035C080914202909143020E940F22883C43
:10265000910560F5C0E2CD0F1D17B9F080E2810F42
:10266000883040F4177081E001C0880F1A95EAF7AE
:102670000E945F17C83048F481E09D2F977001C019
:10268000880F9A95EAF70E945817802F0E944517E5
:10269000C830B8F4D77081E001C0880FDA95EAF746
:1026A000DF91CF911F910F910C945F1780E28C0FF7
:1026B000883038F4C77081E001C0880FCA95EAF706
:1026C000EFCFDF91CF911F910F9108959C01CB0126
:1026D000233F4CE5340731F190F4283DFCE53F07FA
:1026E000E9F0293D4CE5340769F1273D3C4579F493
:1026F00026E241EE61EE0E94F91280E00895253F46
:10270000FCE53F07B9F090F0263F3C45B9F0FC01ED
:1027100082818823D1F010924402089527E245EE89
:1027200065EEE9CF26E241EE60EEE5CF27E245EE29
:1027300064EEE1CF26E241EE62EEDDCF27E245EE28
:1027400066EED9CF28E241E0EBCF81E00895CF9348
:10275000DF93EC01FB018281882309F419C1C230A7
:10276000FCE5DF07C0F1C6319CE5D90730F09E01DA
:102770002A5F3C452930310570F50E947B209093FB
:102780007F0380937E03C031ECE5DE0709F4CFC000
:1027900008F05BC0C8308CE5D80709F4B6C088F5EE
:1027A000C430ECE5DE0709F4A8C0C0F4C2308CE503
:1027B000D80709F49CC080917E038260C330DC4559
:1027C00009F498C080917E0390917F030E94892034
:1027D0000E94E21980E0DF91CF91089580917E03FD
:1027E0008061C630ECE5DE0709F484C080917E0389
:1027F0008860C730DC4508F47DC080917E0380622C
:1028000079C0CC308CE5D80709F489C070F4809188
:102810007E038C60CA30ECE5DE0709F46BC008F477
:1028200078C080917E038E7F65C0CE308CE5D8075E
:1028300009F479C080917E038B7FCF30DC4508F4AA
:1028400059C080917E038F7E55C0CB3FECE5DE07FB
:1028500009F457C030F5C3318CE5D80709F46FC0CF
:1028600078F4C131ECE5DE0709F465C0C231DC451E
:1028700009F0A8CF0E94E21980917E038F773AC0B9
:10288000C5318CE5D80709F462C008F476C08091A0
:102890007F038160CA3FDC4509F094CF80937F03BA
:1028A00091CFCF3FFCE5DF0709F44DC088F480915C
:1028B0007F038D7FCD3F9CE5D90781F380917F0316
:1028C0008E7FCE3FDC4550F380917F038360E6CF5F
:1028D000C130FDE5DF0709F459C008F444C080E0C9
:1028E000C230DD4509F06ECF0E9410216BCF809180
:1028F0007E03816080937E0365CF80917E03846038
:10290000F9CF80917F038260C9CF80917E0380647C
:10291000F1CF0E94E21980917E038068EBCF809115
:102920007E038D7FE7CF80917E03877FE3CF809109
:102930007E038F7DDFCF80917E038F7BDBCF809105
:102940007E03837FD7CF80917F038C7FA7CF809139
:102950007E0382FB992790F921E0922790FB82F970
:1029600090FB83F9C7CF80917F03982F909591704A
:102970008E7F892B90FB81F991CF0E94E219909173
:102980007E03892F97FB87F98058B4CF81E0ACCFC5
:1029900081E021CFCF93DF93EB0186319C4511F588
:1029A0000E945F1F9A81992399F08A7A91E009F435
:1029B00090E090934502811109C089E20E943A1F7C
:1029C0000E94AE1F80E0DF91CF91089585E3F6CF9E
:1029D00080914502811104C089E20E94411FF0CF1D
:1029E00085E3FBCF81E0EFCF90934B0280934A02C7
:1029F0000895E0914A02F0914B02309721F0019046
:102A0000F081E02D099480E00895E0914A02F09170
:102A10004B02309799F020912A01222359F02091FE
:102A20007E0327FF07C0DC012C9111962C93119790
:102A300025E02C930280F381E02D09940895E09124
:102A40004A02F0914B02309739F022E0DC012C93DE
:102A50000480F581E02D0994089520914802309179
:102A600049022817390771F0909349028093480270
:102A7000E0914A02F0914B02309721F00680F781F5
:102A8000E02D0994089520914602309147022817BD
:102A9000390771F09093470280934602E0914A0211
:102AA000F0914B02309721F00084F185E02D0994DC
:102AB000089585B7806885BF85B7806885BF08950C
:102AC000089508950C94601508950C9464150E945F
:102AD00059150E9461150C94621581E008950C94BB
:102AE0006D150E94FA210E9414090E94B1220E94D1
:102AF00060110E94F00F0C9465159F92AF92BF92E7
:102B0000CF92DF92EF92FF920F931F93CF93DF93B9
:102B1000CDB7DEB72A970FB6F894DEBF0FBECDBF94
:102B20000E947C090E946F15882309F474C05DE43B
:102B3000A52E52E0B52E10E000E0902E802F0E94CE
:102B400006096C01F501E190F1905F01E816F906C4
:102B500009F45BC08091EF0281FD0E940F0997018B
:102B60002C253D2580E0EE24E394F12CA9014E2193
:102B70005F21452B09F443C08E839F82CE20DF2046
:102B800081E0CD2809F480E088870E9403228160DB
:102B9000782F9A8789874E815F8168858A850E9410
:102BA0002E16000F111FF801E35BFD4F808191810C
:102BB000E826F926F182E0820E942B100E94BC12C6
:102BC0000E9440250E94F91490914C028917A1F1AE
:102BD0000E94F91480934C022A960FB6F894DEBF37
:102BE0000FBECDBFDF91CF911F910F91FF90EF905E
:102BF000DF90CF90BF90AF909F900C9494068F5F22
:102C0000EE0CFF1C8F3009F0B1CF0F5F1F4F053066
:102C1000110509F092CF8FEF89838A831B820E946E
:102C200003228160782F9D838C8349815A816B8137
:102C30008D810E942E16C0CF2A960FB6F894DEBF63
:102C40000FBECDBFDF91CF911F910F91FF90EF90FD
:102C5000DF90CF90BF90AF909F900895CF93DF9378
:102C6000CDB7DEB72B970FB6F894DEBF0FBECDBF42
:102C70004F83588769877A878B871E821D8285E0FC
:102C8000FE013796DE01119601900D928A95E1F7CB
:102C900049815A816B817C818D819E812B960FB6F3
:102CA000F894DEBF0FBECDBFDF91CF910C94581CBE
:102CB000FC01808191810C940C1FCF93C82F882335
:102CC00009F48BC08238C1F40E94F91481FD85C0DB
:102CD00089E30E943A1F0E94AE1F2FEF81EE94E01D
:102CE000215080409040E1F700C0000089E30E943D
:102CF000411FCF910C94AE1F8338A1F40E94F914A8
:102D000080FD6BC083E50E943A1F0E94AE1F2FEF2B
:102D100081EE94E0215080409040E1F700C0000037
:102D200083E5E5CF8438A1F40E94F91482FD55C0F3
:102D300087E40E943A1F0E94AE1F2FEF81EE94E0BD
:102D4000215080409040E1F700C0000087E4CFCFE1
:102D50008CEF8C0F813A90F46C2F8091160190913A
:102D600017010E942921882329F08C2F0E94411FDE
:102D70000E94AE1F8C2F0E943A1FBBCF80E28C0FA7
:102D8000883048F4C77081E001C0880FCA95EAF71F
:102D90000E94621FAECFEBE5EC0FE33040F4F0E0B1
:102DA000E753FE4F808190E0CF910C942D15E8E51C
:102DB000EC0FE73150F4F0E0EE0FFF1FE556FE4F49
:102DC00080819181CF910C944315C03F30F08C2FBE
:102DD0000E944E24CF910C943525CF9108958823DD
:102DE00009F452C0823871F40E94F91481FF4CC07A
:102DF00089E30E943A1F0E94AE1F89E30E94411F8F
:102E00000C94AE1F833859F40E94F91480FF3CC023
:102E100083E50E943A1F0E94AE1F83E5EFCF8438FE
:102E200059F40E94F91482FF2FC087E40E943A1FD0
:102E30000E94AE1F87E4E2CF9CEF980F913AF0F228
:102E400090E2980F983050F4877091E001C0990F8C
:102E50008A95EAF7892F0E94681FD2CF9BE5980FC9
:102E6000933020F490E080E00C942D1598E5980FB5
:102E7000973120F490E080E00C944315803F20F0DF
:102E80000E94B6240C9435250895CF93C82F0E9434
:102E90005D16C93349F42FEF87EE93E0215080404F
:102EA0009040E1F700C000008C2FCF910C94EF16FA
:102EB000882321F00E94621F0C94AE1F089588237E
:102EC00021F00E94681F0C94AE1F0895BF92CF920C
:102ED000DF92EF92FF920F931F93CF93DF936C01DA
:102EE000D62FC72FFC01058102950F701281111199
:102EF0000E94821F0E94581FE82E882391F0112300
:102F0000D1F08C2F807F803421F080E28D0F8830CB
:102F100090F082E00E94F91F0E94581F91E0E82E75
:102F2000E926BC2EB2949FE0B922EB2DF0E0EA5CDA
:102F3000F04D0C94282EE12CF4CF0C2F0F70C07F95
:102F400011F00295007F1123A9F0002359F080E2CF
:102F50008D0F883010F0D11109C0802F0E94621FA0
:102F60000E94AE1F8D2F0E945D1614C0802F0E94FC
:102F7000751FF6CF8D2F0E94EF16002359F080E2C7
:102F80008D0F883010F0D1112CC0802F0E94681F47
:102F90000E94AE1F2B2D2850330B2430310520F416
:102FA0000E94F9140E949406EE2009F49EC10E942A
:102FB000541F80FD9AC1F60112820E944E1F0E948A
:102FC000DA1DC6010E9496190E944E1FDF91CF9113
:102FD0001F910F91FF90EF90DF90CF90BF900C94D6
:102FE000FB1D802F0E947B1FD3CFFC2FFF70FF2E75
:102FF000C07FC03219F0F29480EFF822DD2369F02F
:10300000D13049F1112391F1002351F1F60185816D
:1030100080FFA8CF8F70858323C0112381F0011119
:1030200006C00E94951F8F290E945817B3CF013008
:10303000C1F70E94951F8F290E949B1FABCF0111E2
:1030400006C00E94A41F8F2D0E945F17A3CF0130DE
:1030500009F4A0CFF6CF112329F0063008F09ACF5B
:103060008F2DE2CF053008F095CFEDCF002359F337
:10307000D93349F4FFEF27EE33E0F15020403040E0
:10308000E1F700C000008D2F0E94EF1683CF8C2F38
:1030900086958695837069F0813009F07BCF8D2FFE
:1030A0009C2F9370111102C090E080E00E944315A4
:1030B00071CF8D2F9C2F9370111102C090E080E092
:1030C0000E942D1567CF8D2F112329F00E944E24C9
:1030D0000E9435255FCF0E94B624FACF8C2F8370D3
:1030E00009F041C0111156CF4D2F429546954770BA
:1030F000440F440F0D2F0F7010E030E020E0042E3D
:1031000004C0000F111F221F331F0A94D2F760E082
:1031100070E0CB01D4FF0FC06FE070E080E090E082
:1031200004C0660F771F881F991F4A95D2F76095D4
:10313000709580959095C695C695C370602B712B40
:10314000822B932BC23049F058F4C13019F00E9401
:103150008E1D20CF0E947C1D1DCF0E94A01D1ACF66
:103160000E947A1D17CF8695112311F08C2F817044
:10317000882309F40FCF4D2F429546954770440F91
:10318000440F0D2F0F7010E030E020E0042E04C03B
:10319000000F111F221F331F0A94D2F760E070E066
:1031A000CB01D4FF0FC06FE070E080E090E004C07E
:1031B000660F771F881F991F4A95D2F76095709503
:1031C00080959095C695C695C370602B712B822B08
:1031D000932BC23049F058F4C13019F00E94511EAF
:1031E000D9CE0E943F1ED6CE0E94631ED3CE0E942F
:1031F000B41DD0CECF70112329F08C2F0E94DA1D80
:103200008D2F12CF8D2F0E945F178C2F0E94FB1DD8
:10321000C1CED23F89F160F4D03FC9F0D13F29F14E
:10322000112309F442C001119DCE8C2F8F7121C052
:10323000D33F39F1D43FA1F7112369F1CF718C2F1E
:103240000E94DA1D63E08C2F0E94E41FA3CE11239D
:1032500041F0053008F09ECE8C2F8F710E941E1E0B
:1032600099CE063008F096CEF7CF8C2F8F711123B0
:1032700069F20E94DA1D8ECE8C2F8F711123C9F353
:10328000C5CF112329F08C2F8F710E94C51D82CECE
:103290000E94C01D7FCE81E00E94F91F023008F419
:1032A00079CE82E00E94F91F75CE002359F0D93300
:1032B00009F0E9CE8FEF97EEE3E081509040E040D7
:1032C000E1F7DFCE8C2F8F71A1CF4C2F4F706D2F78
:1032D000C6010E94F4060E94F21C5CCE4C2F4F7077
:1032E0006D2FC6010E94F70655CEDF91CF911F9139
:1032F0000F91FF90EF90DF90CF90BF9008950F93C4
:103300001F93CF93DF93EC01688179818A810E94BA
:10331000161F8C010E94751E0E94791DB801CE01F6
:10332000DF91CF911F910F910C946617CF93DF938C
:10333000EC018B819C81892B29F0888199818923DB
:103340008F3F59F4DF91CF910895CE010E947F19EC
:10335000CE01DF91CF910C94C005CE010E94AC0646
:103360008111F3CF0E94581F882361F38A8188233B
:1033700049F382E0DF91CF910C94F91F882321F06B
:103380000E94751F0C94AE1F0895882321F00E949F
:103390007B1F0C94AE1F08950E94821F0E94921FF3
:1033A0000E94AE1F0E945A260E94352590E080E0C0
:1033B0000E942D1590E080E00C9443150E94481F58
:1033C0000C94CC190E94721F0C94DE19E92FE2951F
:1033D000EF70E250EE3070F4F0E0EA5BF04D0C94E8
:1033E000282E803F19F020F4883E20F481E00895D3
:1033F000843FE1F380E00895883EC0F3813FD1F738
:10340000F5CF93FB882780F908950E940C1F0C9438
:10341000E619CF93DF9300D000D00F92CDB7DEB77F
:103420000F900F900F900F900F90DF91CF91089514
:10343000CF93DF9300D000D000D0CDB7DEB7269673
:103440000FB6F894DEBF0FBECDBFDF91CF910895C8
:103450001F93CF93DF93C091580216E080915902D9
:103460008C1304C0DF91CF911F910895D0E01C9F71
:10347000F0011D9FF00D1124E65AFD4F408151814E
:1034800062817381848195810E94181A2196C77088
:10349000E5CF40918A0250918B0260918C0270912D
:1034A0008D0280918E0290918F020C94181A1F93B6
:1034B000CF93DF9380918F02807FA9F480918C025B
:1034C000882389F080915802C091590260918A0244
:1034D00070918B02A0918D02B0918E02D62FD723CE
:1034E00016E0C81304C0DF91CF911F91089590E0BA
:1034F000109711F0DF3F19F401968770F2CF189FF3
:103500009001199F300D1124F901E65AFD4F4181B8
:103510004713F2CF40814613EFCF42814111ECCFE8
:10352000438154814A1B5B0B483C510528F780912D
:103530008F028F70806180938F02F901E15AFD4FF5
:1035400080818F70806180838AE892E00E94961962
:10355000DF91CF911F910C94281AAF92BF92CF9216
:10356000DF92EF92FF920F931F93CF93DF93CDB72C
:10357000DEB761970FB6F894DEBF0FBECDBF8C01EA
:1035800085E0F801DE011D9601900D928A95E1F724
:10359000F80140815181E2808AE8C82E82E0D82E6D
:1035A00060918D0270918E026115710509F461C1FF
:1035B00090918A0220918B02892F82238F3F09F4F8
:1035C00058C1A380B480F0908C02F501E61BF70B84
:1035D000FF2009F4FCC080918F02382F307FE83C37
:1035E000F10508F0B2C0311179C0FE2C251323C0BB
:1035F000941321C0E1101FC08F70806180938F02EF
:103600000E94491AC6010E94961980918F02F80102
:1036100085838F2D61960FB6F894DEBF0FBECDBFA8
:10362000DF91CF911F910F91FF90EF90DF90CF909E
:10363000BF90AF900895AB2829F0842F85238F3F4A
:1036400009F033C180E0F82FF170DF2E80FF3CC01D
:10365000809158022091590236E0821315C04D879F
:103660005E878D859E850E940C1F292F22952F70C5
:103670002230F0F0243018F59F70F1F0F8019581B8
:10368000907FD1F4D12C1EC090E0389FF001399F7B
:10369000F00D1124E65AFD4F6181651306C060816B
:1036A000641303C062816E110FC001968770D5CF7D
:1036B0009F7011F0882331F3805E883018F3C801C1
:1036C0000E949619FD2CA5CFEE2009F4A2CF80917F
:1036D0008F02816080938F02F12C9BCF251306C04F
:1036E000941304C0F801EE2009F48DC04D875E8765
:1036F0008D859E850E94051A882319F1EE2009F117
:1037000080918F02803270F020918A0230918B027A
:1037100038872F831986BB86AA868C87CE010796A9
:103720000E94961986E0F801AAE8B2E001900D9295
:103730008A95E1F70E94571A0E94491AFF24F394D0
:1037400068CFC8010E949619F9CF311113C07A2DA4
:10375000B98AA88A6E2D89890E94091A8AE892E09E
:103760000E94961986E0F60111928A95E9F70E9467
:10377000491AB2CF25130FC094130DC0E1100BC02E
:10378000F8018583C8010E94961986E0F60111921E
:103790008A95E9F73ECF4D875E878D859E850E948D
:1037A000051A882371F2EE2061F280918F02803237
:1037B00008F4B8CF20918A0230918B023A83298392
:1037C0001B82BD82AC828E83CE010196A9CFE83CDC
:1037D000F10508F041C0FE2CEE2009F4B2CF25130C
:1037E0002AC0941328C080918F0280FD1BC0982F9F
:1037F000907FC1F0F8018583903F31F0982F907F42
:10380000905F8F70892B8583C8010E94961986E08E
:10381000F801AAE8B2E001900D928A95E1F70E94C2
:10382000491AF7CE86E0F801AAE8B2E001900D92BD
:103830008A95E1F7EECE4D875E878D859E850E9445
:10384000051A81116FCF80918F02816080938F0262
:10385000C8010E949619DDCE7A2DB98AA88A6E2DEC
:1038600089890E94091A86E0F60111928A95E9F782
:10387000D6CFEE2009F465CF4D875E878D859E8576
:103880000E94051AF82E882309F45BCF86E0F80120
:10389000AAE8B2E001900D928A95E1F78AE892E0F9
:1038A0000E9458160E94571ABACF81E08E25CBCEBF
:1038B0001F93CF93DF93CDB7DEB72C970FB6F89455
:1038C000DEBF0FBECDBF4F83588769877A878B874E
:1038D0009C87CE0107960E94AD1A882369F08A85DD
:1038E0009B85892B39F04F815885842F85238F3F05
:1038F00009F071C016E05FC086E0FE013796DE0178
:10390000119601900D928A95E1F78A859B85892B06
:1039100089F38F81988589238F3F61F32091590224
:1039200030E0C901019687709927409158024817E5
:10393000190671F40E94E21910925902109258026D
:1039400086E0EAE8F2E0DF011D928A95E9F7D2CF3E
:1039500096E0929FD001939FB00D1124A65ABD4FBF
:10396000FE01319601900D929A95E1F780935902EC
:103970000E94281ABFCF819FC0011124865A9D4FF3
:103980000E94AD1A8823E9F0E09158021E9FF001D1
:103990001124E65AFD4F40815181628173818481F7
:1039A00095810E94181A8091580290E001968770C4
:1039B0009927809358028091580290915902891357
:1039C000DACF2C960FB6F894DEBF0FBECDBFDF91D5
:1039D000CF911F91089569857A858B859C850E947A
:1039E000181A88CFEF92FF920F931F93CF93DF9314
:1039F0008C01892B81F0F12CEE24E394E8012196CF
:103A0000F8018491843770F4843008F05FC081300D
:103A1000B1F08230A1F1DF91CF911F910F91FF9012
:103A2000EF900895853709F44CC008F43DC09CE739
:103A3000980F903780F78F770E94EF1649C00E5F7E
:103A40001F4FFE01849190E2980F983060F48770C8
:103A5000FE2D01C0FF0F8A95EAF78F2F0E94851F68
:103A60000E94AE1F02C00E945D168F2D815030F261
:103A7000EFE9FFE03197F1F700C00000F7CF0E5FEC
:103A80001F4FFE01849190E2980F983050F4877098
:103A9000FE2D01C0FF0F8A95EAF78F2F0E948B1F22
:103AA000DFCF0E94EF16E1CF0E5F1F4FFE01C491E2
:103AB000C150D8F28FE99FE00197F1F700C00000F4
:103AC000F7CF0E5F1F4FFE01F490CFCF0E945D161F
:103AD0008E01CBCF08950C946A1D0E946B1D6093DC
:103AE000C6027093C7028093C8029093C9020C94D7
:103AF000CC1908950C946D1D0F931F930091C6026D
:103B00001091C7022091C8023091C902602B712B1D
:103B1000822B932B1F910F910C946D1D0F931F936C
:103B20000091C6021091C7022091C8023091C902CB
:103B300060237123822393231F910F910C946D1D99
:103B40000F931F930091C6021091C7022091C802E3
:103B50003091C90260277127822793271F910F9107
:103B60000C946D1D0C94F1040E94B21D6093C2026E
:103B70007093C3028093C4029093C5020C94CC1935
:103B800060E070E0CB010C94B41D0F931F9341E0F3
:103B900050E060E070E08A019B0104C0000F111F3B
:103BA000221F331F8A95D2F7C901B8011F910F91C7
:103BB0000C94B41D0F931F9341E050E060E070E05F
:103BC00004C0440F551F661F771F8A95D2F7809156
:103BD000C2029091C302A091C402B091C5028A01B1
:103BE0009B01082B192B2A2B3B2BC901B8011F91D4
:103BF0000F910C94B41D0F931F9341E050E060E0CF
:103C000070E004C0440F551F661F771F8A95D2F7D6
:103C1000CB01BA0160957095809590950091C20294
:103C20001091C3022091C4023091C5026023712318
:103C3000822393231F910F910C94B41D0F931F9314
:103C400041E050E060E070E004C0440F551F661F83
:103C5000771F8A95D2F78091C2029091C302A091FA
:103C6000C402B091C5028A019B01082719272A279F
:103C70003B27C901B8011F910F910C94B41D0F93FC
:103C80001F930091C2021091C3022091C40230918F
:103C9000C502602B712B822B932B1F910F910C94DB
:103CA000B41D0F931F930091C2021091C302209183
:103CB000C4023091C50260237123822393231F9194
:103CC0000F910C94B41D0F931F930091C202109199
:103CD000C3022091C4023091C50260277127822758
:103CE00093271F910F910C94B41D08952FE0929F7C
:103CF000800D1124982F977041E001C0440F9A95D0
:103D0000EAF786958695869595E0899FF0011124BE
:103D1000E057FD4F90E080E070E05191DF01119796
:103D20009B01082E02C0369527950A94E2F7217070
:103D300021952527242325272C930196853091054D
:103D400061F708952FE0929F800D1124982F9770AE
:103D500086958695869525E0829FF0011124E0578F
:103D6000FD4F50E040E080E0219130E0092E02C09C
:103D7000369527950A94E2F721703327042E01C067
:103D8000220F0A94EAF7822B4F5F5F4F45305105AF
:103D900059F70895BF92CF92DF92EF92FF920F935F
:103DA0001F93CF93DF938C01C090C202D090C302C7
:103DB000E090C402F090C5028091C6029091C702C3
:103DC000A091C802B091C902C82AD92AEA2AFB2ABE
:103DD000CFE1D0E0BC2ED701C6010C2E04C0B695B1
:103DE000A795979587950A94D2F780FD0EC02197E5
:103DF00088F7B12C8B2DDF91CF911F910F91FF9000
:103E0000EF90DF90CF90BF900895B8018C2F0E9463
:103E10001407019761F3EECFCF93DF93EC010E947B
:103E2000CA1EBE01DF91CF910C9414071F93CF934C
:103E3000DF93EB0190915702992331F0CB01DF9191
:103E4000CF911F910C940C1F882379F0CB010E9415
:103E5000CA1E182F682FCE010E94761EBE01812F28
:103E6000DF91CF911F910C941407CB010E94A21EE9
:103E7000182FF4CF682F80911601909117010C94A0
:103E8000A921682F80911601909117010C94B421FB
:103E900080911601909117010C94BF218091CA0264
:103EA00085958595859508958091CA0287700895B6
:103EB0009091CA02977081E009F480E008958091A2
:103EC000EE0208959091EE02892B8093EE02089500
:103ED00080959091EE0298239093EE02089580933E
:103EE000EE0208951092EE0208959091ED02892B52
:103EF0008093ED02089580959091ED029823909320
:103F0000ED0208951092ED0208959091EC02892B34
:103F10008093EC02089580959091EC029823909301
:103F2000EC0208951092EC0208958091CB0208955E
:103F300008950C94981F9091CB02981721F08093CC
:103F4000CB020C94991F08958091CB02882329F00D
:103F50001092CB0280E00C94991F0895E091160115
:103F6000F09117018091EE028083E0911601F091AB
:103F7000170180819091ED02892B8083E0911601D9
:103F8000F091170180819091EC02892B80839091B0
:103F9000CB02992381F0E0911601F0911701808105
:103FA000892B808380911601909117010E94152121
:103FB00081110E94A41F80911601909117010C9409
:103FC000051508950C94E11F98E0899F9001112434
:103FD000622B6093CA020E94DA1D8091CA02859505
:103FE000859585950C94E21F1092CA0280E00C948E
:103FF000E21F9091CA02809589238093CA02282FDC
:10400000277071F4282F082E000C330B921713061B
:1040100039F08595859585950E94FB1D0C94F41FBC
:104020000895CF92DF92EF92FF926C01EE24FF246D
:1040300020E0C114D104E104F10419F0C701B60174
:1040400020E1C72ED82EE92EFF24C114D104E104AB
:10405000F10419F0285FC701B6016B017C0154E03F
:10406000F694E794D794C7945A95D1F7C114D10424
:10407000E104F10419F02C5FC701B6016B017C016A
:1040800042E0F694E794D794C7944A95D1F7C114C7
:10409000D104E104F10419F02E5FC701B601969531
:1040A000879577956795672B682B692B09F02F5FAC
:1040B000822FFF90EF90DF90CF90089590E080E006
:1040C0000E94BF2E21E08C3E9E4F09F020E0822FFF
:1040D000089582E090E00C94B12E682F82E090E089
:1040E0000C94C52E83E090E00C94B12E682F83E0F1
:1040F00090E00C94C52ECF9384E090E00E94B12E06
:10410000C82F81E290E00E94B12E982F8C2FCF9182
:104110000895CF93C92F682F84E090E00E94C52EA8
:104120006C2F81E290E0CF910C94C52E86E090E058
:104130000C94B12E682F86E090E00C94C52EAB0154
:10414000BC018FE090E00C94D72EAB01BC0183E161
:1041500090E00C94D72E60E070E0CB010C94A52089
:1041600060E070E0CB010E949F200C94AB206CEECD
:104170007EEF90E080E00E94E32E60E082E090E03D
:104180000E94C52E60E083E090E00E94C52E109250
:10419000C6021092C7021092C8021092C90260E0D3
:1041A00084E090E00E94C52E60E081E290E00E94F1
:1041B000C52E60E085E090E00E94C52E60E086E0BC
:1041C00090E00E94C52E6FEF87E090E00E94C52E20
:1041D00040E050E0BA0188E090E00E94D72E60E015
:1041E0008DE090E00E94C52E40E050E0BA0188E1E9
:1041F00090E00E94D72E60E087E190E00E94C52EFB
:1042000040E050E0BA018CE190E00E94D72E60E0DF
:1042100080E290E00E94C52E0C94B0200C94B72050
:10422000682F8EE090E00C94C52EFC0132968091B0
:104230002A01882321F080917E039EE187FF96E08A
:1042400080E0915008F4089521912223D1F38F5FEB
:10425000F8CF662301F120912A012223F1F0209169
:104260007E0327FF1AC0462F4695469546954E3148
:1042700090F4677021E030E002C0220F331F6A958E
:10428000E2F7840F911DFC01828190E028233923FD
:1042900081E0232B69F480E00895FC0132960896B2
:1042A0002191261721F0E817F907D1F7F4CF81E023
:1042B00008959C01FC0132969FEF80E041914617E2
:1042C00051F09F3F19F4411101C0982F8F5F863044
:1042D000A9F79F3F09F40895290F311D97FD3A95DD
:1042E000F90162830895FC01329608962191261304
:1042F00003C0DF0111971C92E817F907B9F7089579
:10430000E62FE695E695E695EE3168F4E80FF92F8D
:10431000F11D677021E030E001C0220F6A95EAF7D5
:104320008281822B82830895E62FE695E695E695B5
:10433000EE3170F4E80FF92FF11D677021E030E0E5
:1043400001C0220F6A95EAF72095828128232283F3
:10435000089520912A01222329F020917E0327FD30
:104360000C9480210C94592120912A01222329F0B8
:1043700020917E0327FD0C9494210C947321FC0161
:10438000329680912A01882351F080917E0387FF25
:1043900006C08EE1DF011D928A95E9F7089586E057
:1043A000F9CF089508950C94D2210C94D321089547
:1043B000CF930E94D1210E947C090E94D721C0E0A6
:1043C0008C2F0E940609892B31F4CF5FC530C1F7CD
:1043D00080E0CF91089581E0FCCF08950C94ED2109
:1043E0000E94E2190E9460110E94F9140E94940632
:1043F0000C94EE2182E084BD93E095BD9AEF97BDC9
:1044000080936E0008952FB7F89480917A0390916D
:104410007B03A0917C03B0917D032FBF08959C0185
:104420004FB7F89480917A0390917B03A0917C031D
:10443000B0917D034FBF821B930B089578941F9218
:104440001FB61F9211248F939F93AF93BF938091B8
:104450007A0390917B03A0917C03B0917D03019638
:10446000A11DB11D80937A0390937B03A0937C03DD
:10447000B0937D03BF91AF919F918F911F901FBE0D
:104480001F90189581E08093E00080E28093D8002F
:104490001092C9008FE19EE40197F1F700C000007F
:1044A00087E090EBDC0180938D0390938E03A093C3
:1044B0008F03B093900388E19CE00FB6F894A89521
:1044C000809360000FBE90936000FFCFAF92BF92C9
:1044D000CF92DF92EF92FF920F931F93CF93C0E0A2
:1044E000CC24C394D12CE82EF12C8C2F0E940609E9
:1044F0005C0110E000E0C601002E02C0880F991F89
:104500000A94E2F78A219B21892B99F40F5F1F4FB0
:104510000F30110581F7CF5FC53039F780E0CF91BB
:104520001F910F91FF90EF90DF90CF90BF90AF90D1
:104530000895602F7C2F80E00E94F806E816F906A7
:1045400029F781E0ECCFCF93C82F8CE20E9466223E
:10455000882321F08C2FCF910C94662280E0CF919C
:104560000895CF930E945E20811102C00E940E2107
:10457000C5E608C00E947C098FE39CE90197F1F72A
:1045800000C00000C150B1F789E20E94A32281114E
:1045900000C18AE20E94A32281110E940E2185E0BF
:1045A0000E94A32281110E9442220E9469208093CE
:1045B000EF0287E00E94A322882371F08BE10E9422
:1045C000A322882309F4C2C09091EF02892F8D7F26
:1045D00091FF82608093EF028091EF020E946D2034
:1045E0000E947B2090937F0380937E0380EE0E9445
:1045F000A322882341F090917E03892F8E7F90FF24
:10460000816080937E0389E30E94A322882341F086
:1046100090917E03892F8D7F91FF826080937E032E
:1046200082EE0E94A322882341F090917E03892F7D
:104630008B7F92FF846080937E0386EE0E94A3228C
:10464000882341F090917E03892F877F93FF8860B4
:1046500080937E0383EE0E94A322882341F09091F1
:104660007E03892F8F7E94FF806180937E0385E394
:104670000E94A322882341F090917E03892F8F7D91
:1046800095FF806280937E0381E30E94A3228823AA
:1046900041F090917E03892F8F7B96FF80648093F9
:1046A0007E0381E10E94A322882341F090917E0342
:1046B000892F97FB87F9805880937E0380917E0332
:1046C00090917F030E94892087E20E94A322C82F35
:1046D0008EE10E94A3228111C2608FE10E94A32279
:1046E0008111C46080E20E94A3228111C86081E22E
:1046F0000E94A3228111C06182E20E94A322811143
:10470000C06283E20E94A3228111C06484E20E94FD
:10471000A3228823C1F1C0688C2F0E9476206C2FC1
:1047200070E090E080E00E947A1D8FE00E94A3225A
:10473000882319F081E00E94102185E10E94A322C4
:10474000882339F180E0CF910C9410218EE00E94F3
:10475000A322882339F09091EF02892F8B7F92FF5B
:10476000846038CF80E10E94A3229091EF028823D9
:1047700029F0892F877F93FF88602CCF892F8E7F28
:1047800090FF816027CFC111C7CF0E947220682F90
:10479000C7CFCF9108958091F70280FF12C060913A
:1047A0001D0185E0689FB001112475956795759589
:1047B000679560387105A8F561157105A1F1862F1F
:1047C000089581FF09C060911D0185E0689FB001D7
:1047D000112475956795EDCF60911D0182FD0AC08A
:1047E0008091F6028823D1F090911C0160911D0107
:1047F000891728F085E0689FB0011124DACF869FE1
:10480000B001112485E0869F9001879F300D11240F
:10481000692F70E0C9010E94F22DCBCF65E070E0F6
:10482000CECF8FE7089581E008958091F70280FF51
:104830000CC06091190170E0759567957595679545
:104840006115710549F1862F089581FF06C06091B9
:10485000190170E075956795F3CF6091190182FD9C
:104860000BC09091F6029923A1F0609118018091FC
:104870001901961738F0682F70E06038710500F361
:104880008FE70895899FC001112470E00E94F22DE6
:10489000F4CF61E070E0D7CF81E00895803F31F43C
:1048A0000E94CB2381958093FB020895813F19F4E8
:1048B0000E94CB23F8CF823F31F40E94CB23819515
:1048C0008093FA020895833F19F40E94CB23F8CF16
:1048D000893F29F40E9415248093FC0208958A3FA1
:1048E00021F40E9415248195F7CF8B3F31F40E946B
:1048F000152481958093FD0208958C3F19F40E9440
:104900001524F8CF843F31F48091F90281608093BF
:10491000F9020895853F21F48091F9028260F7CF72
:10492000863F21F48091F9028460F1CF873F21F422
:104930008091F9028860EBCF883F21F48091F902E1
:104940008061E5CF8D3F31F48091F70281608093E3
:10495000F70208958E3F21F48091F7028260F7CF2D
:104960008F3FB9F78091F7028460F1CF9091FA02FE
:10497000803F41F48091FB0287FD1092FB02992356
:1049800071F00895813F29F48091FB021816ACF371
:10499000F6CF823F81F497FFF2CF1092FA02809116
:1049A000FB029091FC02892B9091FD02892B49F723
:1049B0001092F6020895833F19F4191674F3DFCFAD
:1049C000893F39F48091FC021816CCF61092FC0253
:1049D000D6CF8A3F29F48091FC0287FFD0CFF6CF53
:1049E0008B3F39F48091FD0287FFC9CF1092FD0201
:1049F000C6CF8C3F29F48091FD021816BCF3BFCFBF
:104A0000843F31F48091F9028E7F8093F902B7CF11
:104A1000853F21F48091F9028D7FF7CF863F21F405
:104A20008091F9028B7FF1CF873F21F48091F902C9
:104A3000877FEBCF883F21F48091F9028F7EE5CF0D
:104A40008D3F31F48091F7028E7F8093F70297CFEC
:104A50008E3F21F48091F7028D7FF7CF8F3F09F0D1
:104A60008ECF8091F7028B7FF0CF88EF92E00E948B
:104A70001F150E9403229093F5028093F40208957B
:104A8000CF93DF9300D000D000D0CDB7DEB786E063
:104A9000E8EFF2E0DE01119601900D928A95E1F7C0
:104AA0008091FA029091FB02892B81F08091F202B1
:104AB0009091F3020E940F22AC019091F60299238B
:104AC00031F180911E018417150670F18091FC026E
:104AD0009091FD02892B91F08091F0029091F1026A
:104AE0000E940F22AC019091F602992309F478C03C
:104AF00080911A018417150608F480C026960FB617
:104B0000F894DEBF0FBECDBFDF91CF910895209105
:104B10001F018AE0289F9001112424173507B0F661
:104B20009F5F9093F60202C09F3FD1F71092FC0264
:104B30001092FD028091FA02181624F40E94CB23F1
:104B40008093FA028091FA0287FF05C00E94CB236E
:104B500081958093FA028091FB02181624F40E943A
:104B6000CB238093FB028091FB0287FF05C00E944C
:104B7000CB2381958093FB023091FA023323A1F07D
:104B80002091FB02222381F045EB3403C001112464
:104B90009923F1F09093FA0245EB2403900111243C
:104BA0003323D1F03093FB020E9435258091F4022B
:104BB0009091F5029093F3028093F20286E0FE0159
:104BC0003196A8EFB2E001900D928A95E1F77ECF81
:104BD00081E08093FA02E0CF81E08093FB02E4CF92
:104BE00020911B018AE0289F90011124241735078A
:104BF00008F084CF9F5F9093F60202C09F3FD1F7E9
:104C00001092FA021092FB028091FC02181624F412
:104C10000E9415248093FC028091FC0287FF05C04E
:104C20000E94152481958093FC028091FD02181644
:104C300024F40E9415248093FD028091FD0287FFD9
:104C400005C00E94152481958093FD023091FC02DD
:104C50003323A1F02091FD02222381F045EB3403A0
:104C6000C00111249923F1F09093FC0245EB240339
:104C7000900111243323D1F03093FD020E94352599
:104C80008091F4029091F5029093F1028093F002EA
:104C900086E0FE013196A8EFB2E001900D928A9570
:104CA000E1F72CCF81E08093FC02E0CF81E080939C
:104CB000FD02E4CF86E0E8EFF2E0DF011D928A9585
:104CC000E9F71092F6021092F7020895E1E8F0E099
:104CD0008081886080838081816080838FB7F89431
:104CE00020ED33E030938900209388008FBF089532
:104CF000EFE6F0E08081826080830895EFE6F0E0E7
:104D000080818D7F808308951F920F920FB60F923E
:104D100011242F933F934F935F936F937F938F93C0
:104D20009F93AF93BF93EF93FF938091FE02909177
:104D3000FF0201969093FF028093FE02811103C04F
:104D400082E00E949406E091FF02E695E695F0E08D
:104D5000E359FA4FE4918091FE028E1303C080E084
:104D60000E949406FF91EF91BF91AF919F918F9117
:104D70007F916F915F914F913F912F910F900FBE57
:104D80000F901F901895809120030895CF93DF9383
:104D900000D00F92CDB7DEB790918403943019F50F
:104DA00089837B836A8382E08093E9008FEF90910F
:104DB000E800815095FD06C095ED9A95F1F7000049
:104DC0008111F5CF8091E80085FF0DC050E040E0F3
:104DD00063E070E0CE0101960E9423298091E800F3
:104DE0008E778093E8000F900F900F90DF91CF9116
:104DF0000895CF93DF93EC010E940629823011F0D1
:104E0000843031F4BE0184E0DF91CF910C94C6264A
:104E1000DF91CF910895BC0183E00C94C626CF9317
:104E2000DF93EC010E940629823011F08430F9F4FE
:104E300082E08093E9008FEF9091E800815095FD2A
:104E400006C095ED9A95F1F700008111F5CF80919C
:104E5000E80085FF0CC050E040E066E070E0CE0165
:104E60000E9423298091E8008E778093E800DF91EB
:104E7000CF910895CF93DF93EC010E9406298230F1
:104E800011F08430B9F580912A018823B1F1809125
:104E90007E0387FF32C060E282E08093E9008FEFFB
:104EA0009091E800815095FD06C095ED9A95F1F737
:104EB00000008111F5CF8091E80085FF1BC0809133
:104EC0002A0170E050E040E0811104C050E040E071
:104ED00068E070E0CE010E9423298091E8008E777F
:104EE0008093E80080E2FE01A0E0B3E001900D9223
:104EF0008A95E1F7DF91CF91089568E081E0CDCF09
:104F000080918303811109C00E94B32A0E94102B53
:104F10008091E20084608093E20008951092830300
:104F2000089508950C9478260E94F0210E947E2610
:104F30000E94F9140C94940642E061EC81E00E9416
:104F40002F2A42E261EC82E00C942F2A80918603A2
:104F5000833009F45FC030F48130C1F1823009F44C
:104F60009BC008958A3009F487C08B3009F46DC066
:104F7000893009F04EC080918503813209F049C023
:104F80008091890390918A03029708F042C0809132
:104F9000E800877F8093E8008091E80082FF35C0B9
:104FA0009091F3008091F200029729F48091F10032
:104FB0008B7F813021F48091F100809320038091D8
:104FC000E8008B778093E8000C94632A8091850336
:104FD000813AF9F48091E800877F8093E80080911E
:104FE000890390918A03892B61F460E280E093E069
:104FF00070E00E9472298091E8008B778093E8002E
:10500000089560E090E080E0F3CF80918403811107
:10501000C3CF089580918503813AD9F780918903A0
:1050200090918A03892BA9F78091E800877F80936C
:10503000E8008091E80080FFFCCF80912A018093F6
:10504000F1008091E8008E77BDCF80918503813299
:1050500001F78091890390918A03892BD1F6809181
:10506000E800877F8093E8000E94632A809187038D
:1050700080932A010C94E21980918503813249F6CC
:105080008091E800877F8093E8000E94632A8091E6
:10509000880380932103089580918503813A09F064
:1050A000B8CF8091E800877F8093E8008091E80086
:1050B00080FFFCCF80912103C2CF84B7877F84BF5C
:1050C0000FB6F894A8958091600088618093600085
:1050D000109260000FBE80E890E00FB6F8948093C5
:1050E0006100909361000FBE0E9467150E94B32A71
:1050F0000E94102B8091E20084608093E2007894FB
:105100000E94992D0E94711580E291E00E94F41492
:105110000E94662680918403853019F00E947D15D7
:10512000F9CF0E94D52180918203882399F30E94B0
:10513000D821882379F30E940D29ECCF0C94A02864
:10514000292F33272330310519F168F42130310537
:1051500009F44AC02230310509F44BC090E080E0E8
:1051600030E020E028C02132310579F122323105CA
:10517000A9F780E490E02CEF36E061157105D9F0D5
:105180008CEB90E020E436E061307105A1F0E6CFD1
:1051900099278130910599F0009741F0823091056F
:1051A00089F00397D9F6EDEAF5E002C0EFEEF5E0FD
:1051B000849190E09F01FA01318320830895EFEB01
:1051C000F5E0F6CFE3EBF5E0F3CF89E090E025E002
:1051D00036E06115710579F389E090E02EE136E063
:1051E0006130710541F3BACF82E190E02EE236E002
:1051F000E2CF8BE390E023EF35E0DDCF80918403B5
:10520000843011F482E0089581E0089580912203B2
:10521000811102C00C94FE28089580E189BD82E1CD
:1052200089BD09B400FEFDCF8091D8008F7D8093A9
:10523000D8008091E00082608093E0008091E000DF
:1052400081FDFCCF0895AF92BF92CF92DF92FF9283
:105250000F931F93CF93DF936C01EB018A010E94A0
:10526000822AF82E811123C00115110539F0F801A9
:1052700080819181C81BD90BC80ED91EB12CA12CDD
:105280002097A9F08091E80085FD22C08091E80078
:105290008E778093E80001151105A1F0F801808157
:1052A0009181A80EB91EB182A08285E0F82E8F2DC3
:1052B000DF91CF911F910F91FF90DF90CF90BF9022
:1052C000AF9008950E94822A8823D1F2F82EEFCF62
:1052D000F60181916F018093F1002197FFEFAF1AE2
:1052E000BF0ACECFFC0180918B0390918C0386176F
:1052F0009707A0F06115710529F49091E8009E7759
:105300009093E80090E06115710551F4911108C087
:105310008091E80082FF34C080E00895BC01F2CFA4
:10532000809184038823C1F18530C1F18091E80028
:1053300083FD30C08091E80082FDEACF8091E800D3
:1053400080FFE1CF8091F3002091F200382F6115AA
:10535000710519F02830310558F091E028303105F9
:1053600009F090E02091E8002E772093E800CBCF61
:1053700081918093F100615071092F5F3F4FE7CF1A
:1053800080918403882341F0853041F08091E800CA
:1053900083FFBECF81E0089582E0089583E0089501
:1053A000FC0180918B0390918C0386179707A0F0E6
:1053B0006115710529F48091E8008E778093E800EB
:1053C00090E06115710551F4911108C08091E800D9
:1053D00082FF35C080E00895BC01F2CF8091840344
:1053E0008823C9F18530C9F18091E80083FD31C07F
:1053F0008091E80082FDEACF8091E80080FFE1CF54
:105400008091F3002091F200382F6115710519F099
:105410002830310558F091E02830310509F090E04E
:105420008091E8008E778093E800CBCF84918093C1
:10543000F1003196615071092F5F3F4FE6CF8091A7
:105440008403882341F0853041F08091E80083FF98
:10545000BDCF81E0089582E0089583E00895982FFC
:10546000973028F08F708093E90081E00895909341
:10547000E900242F762F50E0981731F07091EC005E
:105480002091ED005091F00021FD02C09F5FE8CF18
:105490003091EB003E7F3093EB003091ED003D7F8B
:1054A0003093ED003091EB0031603093EB0070935E
:1054B000EC002093ED005093F0002091EE0027FDCA
:1054C000E5CF80E008958091850387FF13C0809128
:1054D000E80082FF06C08091E8008B778093E800A7
:1054E00004C0809184038111F2CF089580918403D8
:1054F0008823D9F38091E80080FFF8CF8091E800FD
:105500008E77ECCF2091E4003091E50095E6A9017B
:105510002091EC00822F817020FF06C08091E8006E
:1055200080FF06C080E008952091E80022FD1AC0A7
:1055300080918403882389F0853089F08091EB0085
:1055400085FD0FC02091E4003091E500421753071C
:10555000F9F29150E1F684E0089582E0089583E045
:10556000089581E008950E94212B0E94292BE0EEEE
:10557000F0E0808181608083E8EDF0E080818F77CA
:10558000808319BCA7EDB0E08C918E7F8C938081D5
:105590008F7E80831092830308950F931F93CF9380
:1055A000DF930E94212B0E94292BC8EDD0E0888137
:1055B0008F77888388818068888388818F7D8883BE
:1055C00019BC1092840310928003109282031092EF
:1055D000810300EE10E0F80180818B7F8083888159
:1055E0008160888342E060E080E00E942F2AE1EE43
:1055F000F0E080818E7F8083E2EEF0E08081816048
:105600008083808188608083F80180818E7F8083A1
:10561000888180618883DF91CF911F910F910895D8
:10562000E8EDF0E080818F7E8083E7EDF0E080811F
:105630008160808384E082BF81E0809383030C9447
:10564000CD2AE8EDF0E080818E7F80831092E20029
:1056500008951092DA001092E10008951F920F92BF
:105660000FB60F9211242F933F934F935F936F9335
:105670007F938F939F93AF93BF93EF93FF9380910B
:10568000E10082FF0BC08091E20082FF07C08091A1
:10569000E1008B7F8093E1000E94982D8091DA00D9
:1056A00080FF19C08091D80080FF15C08091DA007A
:1056B0008E7F8093DA008091D90080FF96C080E1D0
:1056C00089BD82E189BD09B400FEFDCF81E08093F0
:1056D00084030E9480278091E10080FF19C080919F
:1056E000E20080FF15C08091E2008E7F8093E2008F
:1056F0008091E20080618093E2008091D800806216
:105700008093D80019BC85E0809384030E9492277F
:105710008091E10084FF2BC08091E20084FF27C0CC
:1057200080E189BD82E189BD89B5982F917080FFA4
:10573000FBCF8091D8008F7D8093D8008091E100CD
:105740008F7E8093E1008091E2008F7E8093E20063
:105750008091E20081608093E20080918003882341
:1057600009F449C084E0809384030E9494278091C7
:10577000E10083FF29C08091E20083FF25C0809172
:10578000E100877F8093E10082E0809384031092A0
:1057900080038091E1008E7F8093E1008091E200A0
:1057A0008E7F8093E2008091E20080618093E2002E
:1057B00042E060E080E00E942F2A8091F000886043
:1057C0008093F0000E949127FF91EF91BF91AF91DC
:1057D0009F918F917F916F915F914F913F912F9109
:1057E0000F900FBE0F901F90189519BC1092840354
:1057F0000E948E2770CF8091E30087FD93E0909305
:105800008403B3CF1F920F920FB60F9211242F93E0
:105810003F934F935F936F937F938F939F93AF9338
:10582000BF93CF93DF93EF93FF93D091E900DF70A5
:105830008091EC00C82FC17080FDC0E81092E90093
:105840008091F000877F8093F00078940E94462C2E
:105850001092E9008091F00088608093F000CD2BD9
:10586000CF70C093E900FF91EF91DF91CF91BF918D
:10587000AF919F918F917F916F915F914F913F91E8
:105880002F910F900FBE0F901F9018951F93CF93DD
:10589000DF93CDB7DEB7AA970FB6F894DEBF0FBE81
:1058A000CDBF85E893E02091F100FC012193CF0169
:1058B000F3E08D389F07B9F70E94A6278091E80092
:1058C00083FF1EC180918503909186039A3008F072
:1058D00017C1E92FF0E0EC5AF04D0C94282E8038D7
:1058E00099F0823809F00CC1809189038F7087305C
:1058F00008F006C18093E9008091EB0085FB8827C2
:1059000080F91092E90006C0809181039091820392
:10591000911182609091E800977F9093E8008093C6
:10592000F1001092F1008091E8008E77E5C08823A5
:1059300009F4D3C0823009F0E3C08091870381115C
:10594000D6C0809189038F702FEF280F263008F082
:10595000D7C08093E9002091EB0020FFC8C09330AE
:1059600031F48091EB0080628093EB00C0C0909195
:10597000EB0090619093EB0021E030E001C0220F3A
:105980008A95EAF72093EA001092EA008091EB00F2
:105990008860EACF8111B4C0109187031F7780918E
:1059A000E3008078812B8093E3008091E800877F7B
:1059B0008093E8000E94632A8091E80080FFFCCF7A
:1059C0008091E30080688093E30082E0111183E01E
:1059D0008093840395C08058823008F091C08091F4
:1059E0008703909188038C3D23E09207A1F583E023
:1059F0008A838AE289834FB7F894DE01139620E008
:105A00003EE051E2E32FF0E050935700E49120FF95
:105A100003C0E295EF703F5FEF708E2F90E0EA30A9
:105A2000C0F0C7968D939D932F5F243159F74FBFD8
:105A30008091E800877F8093E8006AE270E0CE0101
:105A400001960E9472298091E8008B778093E8008C
:105A500057C0C096E7CF6091890370918A03AE0169
:105A60004F5F5F4F0E949E28BC01892B09F448C0FC
:105A70009091E800977F9093E80089819A810E9435
:105A8000D029E1CF8038E1F58091E800877F8093CD
:105A9000E800809180038093F10045CF811130C0F0
:105AA00090918703923060F58091E800877F809322
:105AB000E800909380030E94632A809180038823EA
:105AC00011F084E005C08091E30087FDFACF81E00A
:105AD000809384030E949C2713C0809187038130A8
