:100000000C942D030C9474030C9474030C947403DB
:100010000C9474030C9474030C9474030C94740384
:100020000C9474030C9474030C9414290C94E72915
:100030000C9474030C9474030C9474030C94740364
:100040000C9474030C9488230C9474030C94740320
:100050000C9474030C94AE1F0C9474030C947403EE
:100060000C9474030C9474030C9474030C94740334
:100070000C9474030C9474030C9474030C94740324
:100080000C9474030C9474030C9474030C94740314
:100090000C9474030C9474030C9474030C94740304
:1000A0000C9474030C9474030C947403F1A1290050
:1000B0001E001F0020002100220023002400250034
:1000C000260027002D002E0035002A002B001400EA
:1000D0001A000800150017001C0018000C00120080
:1000E00013002F0030000000310002510400160000
:1000F000070009000A000B000D000E000F0033007E
:100100003400010000002800E10001511D001B0027
:100110000600190005001100100036003700E50048
:10012000380052003800E000E200E3000000000068
:1001300001002C00010000000000E700E600500074
:1001400051004F00005C3A003B003C003D003E0087
:100150003F0040004100420043004400450035009C
:100160004C00C25CC55CC75CC95CC35CBF5CBE5C68
:100170000100010001000100010001000000010078
:100180000251C65CC85CCA5CC45CC15CBD5C010059
:100190000100010001000100010000002800E10051
:1001A000010001006500010001000100AA00A90092
:1001B000A8000100E50001004B004900E000E30059
:1001C000E2000000000001002C000100000000001F
:1001D000E700E600BC004E00BB0029001E001F0027
:1001E00020002100220023002400250026002700F3
:1001F0002D002E0035002A002B0514001A000800DF
:10020000150017001C0018000C05120013002F0029
:100210003000000031000100040016000705090548
:100220000A000B000D000E000F0033003400010027
:1002300000002805E10001001D001B000605190053
:1002400005001100100036003700E50038005205A7
:100250003800E000E200E3000000000001002C0094
:10026000010000000000E700E600500551054F05C1
:1002700000047F3F1F643214643214783C1E1E1445
:100280000A052223252628292A2C2D2F3032333502
:1002900036383A3B3D3E4042434547494A4C4E5032
:1002A00051535557595A5C5E6062646668696B6D5C
:1002B0006F71737577797B7D7F81838587898A8C60
:1002C0008E90929496989A9C9E9FA1A3A5A7A8AA67
:1002D000ACAEAFB1B3B4B6B8B9BBBCBEBFC1C2C39C
:1002E000C5C6C7C9CACBCCCDCED0D1D2D2D3D4D536
:1002F000D6D7D7D8D9D9DADADBDBDBDCDCDCDCDC5F
:10030000DDDDDDDDDCDCDCDCDCDBDBDBDADAD9D936
:10031000D8D7D7D6D5D4D3D2D2D1D0CECDCCCBCAC4
:10032000C9C7C6C5C3C2C1BFBEBCBBB9B8B6B4B3EA
:10033000B1AFAEACAAA8A7A5A3A19F9E9C9A989680
:100340009492908E8C8A89878583817F7D7B797753
:100350007573716F6D6B6968666462605E5C5A5933
:1003600057555351504E4C4A4947454342403E3DF4
:100370003B3A3836353332302F2D2C2A2928262582
:100380002322FFAA7F55400000000000000000006B
:100390000001010101010101010102020202020248
:1003A0000202030303030303030404040404050516
:1003B00005050506060606060707070708080808D4
:1003C0000909090A0A0A0B0B0B0C0C0C0D0D0D0E7A
:1003D0000E0E0F0F1010101111121213131414150A
:1003E0001516161717181819191A1A1B1C1C1D1D7B
:1003F0001E1F1F20212122232324252526272828CC
:10040000292A2B2C2C2D2E2F3031313233343536F6
:100410003738393A3B3C3D3E3F40414243444546F4
:100420004748494B4C4D4E4F5052535455575859CD
:100430005A5C5D5E606163646567686A6B6C6E6F71
:100440007172747677797A7C7D7F818284868789E0
:100450008B8D8E9092949597999B9D9FA1A2A4A617
:10046000A8AAACAEB0B2B4B6B9BBBDBFC1C3C5C813
:10047000CACCCED0D3D5D7DADCDEE1E3E6E8EAEDCC
:10048000EFF2F4F7F9FCFF000000000000000000AC
:100490000000010204060A0F17202C3A4A5D7187FA
:1004A0009DB3C7DAE9F5FCFFFCF5E9DAC7B39D8730
:1004B000715D4A3A2C20170F0A0604020100000061
:1004C000000000000000000403300000000A0344A4
:1004D000006F003600300000002E03530068006FEC
:1004E0000070006B00650079002000620079002038
:1004F0000044006F007900750020005300740075FF
:1005000000640069006F0000000403090409023B55
:1005100000020100A0FA0904000001030101000922
:1005200021110100012240000705810308000A098A
:10053000040100010300000009211101000122C093
:10054000000705820320000A1201100100000008C4
:10055000EDFE606001000102030105010902A10135
:1005600085020901A10005091901290515002501C8
:100570009505750181029501750381010501093019
:1005800009311581257F9502750881060938158185
:10059000257F950175088106050C0A38021581250D
:1005A0007F950175088106C0C005010980A10185FC
:1005B000031601002603001A81002A830075109596
:1005C000018100C0050C0901A10185041601002666
:1005D0009C021A01002A9C02751095018100C00539
:1005E000010906A1018505050719E029E715002580
:1005F0000195087501810205081901290595057500
:100600000191029501750391010507190029EF1564
:1006100000250195F075018102C005010906A101BF
:10062000050719E029E715002501950875018102E4
:1006300095017508810105081901290595057501C0
:1006400091029501750391010507190029FF150015
:1006500026FF00950675088100C011241FBECFEF4C
:10066000DAE0DEBFCDBF04B603FE27C08091B6023C
:100670009091B702A091B802B091B9028730904B27
:10068000A740B04BD1F41092B6021092B70210926C
:10069000B8021092B90214BE84B7877F84BF0FB628
:1006A000F894A89580916000886180936000109212
:1006B00060000FBEE0E0F8E3099511E0A0E0B1E0D2
:1006C000E8EDF8E502C005900D92AC35B107D9F719
:1006D00022E0ACE5B1E001C01D92A63BB207E1F714
:1006E0000E943F260C946A2C0C94000044E664E6B9
:1006F00084E60C94710D0C948C03229A2A9A089526
:100700000E9484090E947D030C94760381FF02C03D
:100710002A9808952A9A0895089580915C0181117C
:1007200002C00C94260F80915F0280FF0E94F00FA0
:1007300080915F028E7F823019F081E00E94B50FB8
:1007400080915C01813061F0823059F727E632E018
:100750004EE46BE282E30E94700B2EE832E009C0A7
:1007600024E632E04EE46BE282E30E94700B21E962
:1007700032E04EE46BE282E30E94700B0C94D00BEB
:10078000CF92DF92EF92FF926B017C010E94DE1DFF
:1007900090915C01891721F080935C010E948D0388
:1007A000C701B601FF90EF90DF90CF90089581E0F0
:1007B000089581E008950C94D9031F93CF93DF939C
:1007C00000D000D01F92CDB7DEB749835A836B8328
:1007D0002091970189819A8121111BC06623A9F07C
:1007E0000E94971C182F682F89819A810E943D1CB6
:1007F00069817A81812F0F900F900F900F900F9049
:10080000DF91CF911F910C94D7060E946C1C182F7A
:10081000EFCF0E94971C69817A81EDCFFC01408166
:1008200051816281738184810C94DD030C947B037C
:10083000E82FE295EF70F0E032A1282F2F7081E0D1
:1008400090E001C0880F2A95EAF78095832382A360
:100850000895CF92DF92EF92FF92873028F58111B1
:1008600024C0909180009F7790938000282F30E0E3
:10087000AFEFBFEF0E94FB2B26E030E040E050E0FE
:100880000E94D32BC9012C3764E1360790F469E04C
:1008900070E00E94AB2B7093890060938800FF90FA
:1008A000EF90DF90CF90089586E09091800090685F
:1008B000DBCF2A50374D4F4F5F4F942F832F722F2E
:1008C000662725EF38E241E050E00E94D32B690112
:1008D0007A01CA01B9010E949B2B9B01AC01C7019F
:1008E000B6010E949B2B672F782F892F99276115BE
:1008F000710521E08207910571F66FEF7FEFCBCF95
:10090000259A85E30E94180482E88093800089E19B
:10091000809381008FEF9FEF9093870080938600F4
:100920000C94C7230E942B1E811102C00E94B81E86
:100930000E9480040C9480030C94860308950E9406
:100940004E170E949E042FEF84E39CE021508040CC
:100950009040E1F700C000000C94D41F0F931F9348
:10096000CF93DF938C010E940E04EC01B8010E942A
:10097000DB03882309F4CCC0B801CE010E943C11EE
:10098000882309F4C5C0CA3C8CE5D80709F402C124
:1009900008F054C0C33CECE5DE0709F4D3C048F5C9
:1009A000C5318CE5D807A8F4C2309CE5D90708F01A
:1009B00056C1C115ECE5DE0709F4A5C0C130DC4520
:1009C00009F4ACC0C801DF91CF911F910F910C9435
:1009D000D703C6318CE5D80709F4C5C1C23CDC4554
:1009E00089F7F8018281882309F492C00E94AE0F32
:1009F0008FC0C63CECE5DE0709F4BAC080F4C43C05
:100A00008CE5D80709F4A9C0C53CDC45D9F6F80146
:100A10008281882309F47CC00E94250D79C0F801E9
:100A20008281C83CFCE5DF0709F4AEC008F4A7C02A
:100A3000882309F46DC00E945F0D6AC0C13DECE5DA
:100A4000DE0709F4DBC070F5CD3C8CE5D80709F46E
:100A5000B1C088F4CB3CECE5DE0709F4A3C0CC3C84
:100A6000DC4509F0AFCFF8018281882309F450C03A
:100A70000E94BF0B4DC0F8018281CF3CFCE5DF072F
:100A800009F4AEC008F49FC0882309F441C00E9455
:100A9000A60B893028F00E94A60B8E3008F465C0A2
:100AA00089E08EC0C53DECE5DE0709F4CAC0B0F4AC
:100AB000F8018281C33DFCE5DF0709F4BDC008F4FD
:100AC000ADC0882329F10E94A60B893128F00E942D
:100AD000A60B823208F449C089E172C0CD3DECE535
:100AE000DE0709F4B5C0CE3DFCE5DF0721F1CC3DC2
:100AF000DC4509F067CFF8018281882349F080E066
:100B00000E94DC2605C0F801828181110E949F04A9
:100B100080E0DF91CF911F910F910895F8018281BC
:100B20008823B1F390912F02892F8E7F90FF8160EF
:100B300080932F02EDCFF8018281882349F30E9430
:100B4000B81EE6CFF8018281882311F30E942C1D84
:100B5000827259F00E94A00FDBCFF80182818823B6
:100B6000B9F20E942C1D8272A9F30E94930FD0CF7C
:100B7000F8018281882361F20E94320DC9CF882357
:100B800039F20E94410DC4CF882309F4C1CF0E94DD
:100B9000500DBECFF8018281882309F4B9CF0E949D
:100BA0006E0DB6CFF8018281882309F4B1CF0E947F
:100BB000AE0BAECFF8018281882309F4A9CF81E082
:100BC0000E94A30FA5CF882309F4A2CF0E94A60BF1
:100BD000823020F00E94A60B853038F282E0F0CF00
:100BE000882309F495CF0E94A60B863028F00E9436
:100BF000A60B883008F4B9CF86E0E2CFF8018281F5
:100C0000882309F485CF0E94A60B8F3028F00E941C
:100C1000A60B843108F4A9CF8FE0D2CF882309F442
:100C200077CF0E94A60B853128F00E94A60B873152
:100C300008F49BCF85E1C4CF882309F469CF88E10C
:100C4000BFCFF8018281882309F462CF83E2B8CF55
:100C5000F8018281882309F45BCF82E051CFF8014B
:100C60008281882309F4AECE0E942B1E811102C01E
:100C70000E94B81E0E94481E90E09093A7028093A5
:100C8000A602FE01E350FC458091A6028160E2319C
:100C9000F105C8F4E25BF94F0C94F52B60066C0685
:100CA0007006740678067C068006840688068C0624
:100CB0009006940698069C06A006A406A806AC0614
:100CC0008091A60282608093A6028091A6020E9473
:100CD0004C1E0E944E171CCF8091A6028460F3CF59
:100CE0008091A6028860EFCF8091A6028061EBCF51
:100CF0008091A6028062E7CF8091A6028064E3CF54
:100D00008091A6028068DFCF8091A6028460EACF3E
:100D10008091A6028E7FD7CF8091A6028D7FD3CF00
:100D20008091A6028B7FCFCF8091A602877FCBCF09
:100D30008091A6028F7EC7CF8091A6028F7DC3CF00
:100D40008091A6028F7BBFCF8091A6028F77BBCF09
:100D50008091A6028B7FEACF9091A602892F97FB04
:100D600087F98058B0CF0E942C1DF80192819923F9
:100D700081F08A7A91E009F490E090935D0181110D
:100D800006C089E20E94071D0E947B1DC1CE85E33B
:100D9000F9CF80915D01811104C089E20E940E1D8E
:100DA000F3CF85E3FBCF90E080E008950895972F7F
:100DB00070E02FE0929F600D711D1124FB019BE4F8
:100DC000899FE00DF11D1124EE0FFF1FE255FF4F2B
:100DD000859194910895FC01EE0FFF1FE455FF4F9C
:100DE000859194910895CF93DF930E94D7060E9436
:100DF000E108EC018115914508F04BC0C11580E573
:100E0000D80708F036C1C83ED10510F5C03ED1055F
:100E100080F5C83AD10570F4C53AD10508F0B4C0E0
:100E2000C130D10531F118F0C430D10510F5D0E052
:100E3000C0E01FC0CF3BD10508F4B1C0CE01805C3B
:100E40009109C03CD10598F30E94EB06EC0111C05A
:100E5000C11520E3D20788F4C11580E2D80708F055
:100E6000FFC0C03FD10518F3CF3FD10509F008F40A
:100E7000F5C0CE01DF91CF910895C11520E4D207CE
:100E800008F0F4C0CE019927D3FFEDC0EC01D86C77
:100E9000F0CFC11589E5D80768F5C11528E5D20757
:100EA00008F030C1C11584E5D80778F4C11523E5F1
:100EB000D20708F00EC1C11582E5D80708F0F5C0C9
:100EC000DC2FCC27C16FD06AD4CFC11525E5D2075E
:100ED00008F413C1C11586E5D80708F0A8CF8C2FF8
:100EE0000E946109C82FD0E0DC2FCC27CC27DF710E
:100EF000D062BFCFCD3B2CE5D20709F40EC1F0F490
:100F0000CB3B2CE5D20709F402C108F003C1C1159F
:100F10002AE5D20708F08BCF8C2F8F700E946109D1
:100F200034E0D695C7953A95E1F7CF70D0E0DC2F45
:100F3000CC27D06A8F70806EC82B9BCFC03C8CE5CD
:100F4000D80709F4F0C060F4CE3B8CE5D80709F46B
:100F5000E7C0CF3BDC4509F06ACFC0E0D2ED89CFD6
:100F6000CE0190568115904208F061CF8D2F8F7180
:100F70000E946109DD27D06290E0982F882788279A
:100F80009F71C82BD92B75CFC53AD10509F4CEC0B6
:100F9000C63AD10509F4CDC0C3E8D0E46ACFC83A57
:100FA000D10509F4C9C0C93AD10509F4C8C0CA3A83
:100FB000D10509F4C7C0CB3AD10509F4C6C0CC3A73
:100FC000D10509F4C5C0CB3BD10509F4C4C0CC3B65
:100FD000D10509F4C3C0CD3AD10509F4C2C0C03B64
:100FE000D10509F4C1C0CE3AD10509F4C0C0CF3A49
:100FF000D10509F4BFC0C13BD10509F4BEC0C23B55
:10100000D10509F4BDC0C33BD10509F4BCC0C43B44
:10101000D10509F4BBC0C53BD10509F4BAC0C63B34
:10102000D10509F4B9C0C73BD10509F4B8C0C83B24
:10103000D10509F4B7C0C93BD10509F4B6C0CD3B11
:10104000D10509F4B5C0CE3BD10509F4B4C0CA3B03
:10105000D10509F0B3C0CAE2D6E40BCFD06509CF01
:10106000CE019F70F1CEEC01D06C03CFDF70D06A5F
:1010700000CFCE01F4E096958795FA95E1F783705D
:101080009C2F937021E030E002C0220F331F9A950D
:10109000E2F73C68382BC695C695C37080E2C89FBE
:1010A000E0011124C22BD32BE4CECE01837099270B
:1010B00021E030E002C0220F331F8A95E2F7C69587
:1010C000C69580E2C89FE0011124C22BD32BDC68B7
:1010D000D0CECE018370992721E030E002C0220FEC
:1010E000331F8A95E2F7C695C69580E2C89FE00156
:1010F0001124C22BD32BDA68BCCEDC2FCC27C46FD3
:10110000D06AB7CEDC2FCC27C06FD06AB2CEC0E099
:10111000D4EDAFCEC0E0D5EDACCEC0E0D1EDA9CEE0
:10112000C0E0D0EDA6CEC0E0D3EDA3CEC1E8D0E4C0
:10113000A0CEC2E8D0E49DCEC2EED4E49ACEC9EEF1
:10114000D4E497CECAEED4E494CEC5EBD4E491CEE9
:10115000C6EBD4E48ECEC3EBD4E48BCEC4EBD4E4A4
:1011600088CEC7EBD4E485CECCECD4E482CECDECF3
:10117000D4E47FCEC3E8D5E47CCECAE8D5E479CE0A
:10118000C2E9D5E476CEC4E9D5E473CEC1E2D6E4B3
:1011900070CEC3E2D6E46DCEC4E2D6E46ACEC5E238
:1011A000D6E467CEC6E2D6E464CEC7E2D6E461CE2A
:1011B000CFE6D4E45ECEC0E7D4E45BCEC0E0D4E4B6
:1011C00058CE8238910549F1B0F48133910509F484
:1011D0005CC048F48932910509F452C08A32910505
:1011E00009F458C008958533910509F444C0893342
:1011F000910599F00895833E910531F138F4803ED0
:10120000910591F0823E9105B1F00895863E9105D9
:1012100011F1873E910541F108952091A6022370B6
:10122000C9F080EE90E008952091A60220FF12C040
:1012300089E390E008952091A60222FF0BC024FFCD
:101240002EC090E080E008952091A60222FD2AC0E1
:1012500024FDF7CF08952091A60223FFFBCF24FDA4
:10126000F0CF87EE90E008952091A60223FFF0CF03
:1012700086EE90E008952091A60225FD16C00895FF
:101280002091A60225FD14C008952091A60226FDF6
:1012900012C008952091A60226FD10C0089583EE85
:1012A00090E0089582EE90E0089589E290E008953C
:1012B00085E390E008958AE290E0089581E390E06C
:1012C000C9CF9091A60292FF06C0282F287128301E
:1012D00069F4877F846093FF06C0282F2871283126
:1012E00061F4877E846194FD877E0895282F2471A0
:1012F000243089F78B7F8860EECF282F247124312A
:1013000091F78B7E8861EFCF0895E82FF0E0EE0F24
:10131000FF1FE25AFE4F8081918108950895CF9377
:10132000DF93A2E3B1E027E331E061E070E09D915B
:10133000E92FE295EF70F0E041A19F70EB0102C050
:10134000CC0FDD1F9A95E2F7CE018095842381A30F
:101350002A173B0761F7A3E2B1E061E070E08D91ED
:10136000E82FE295EF70F0E041A18F709B0101C082
:10137000220F8A95EAF7922F9095942391A382A148
:10138000822B82A3D1E0A233BD0749F710926901F5
:101390001092680110925F0110925E0110926B0131
:1013A00010926A01109261011092600110926D0119
:1013B00010926C01109263011092620110926F0101
:1013C00010926E01109265011092640110927101E9
:1013D00010927001109267011092660185E00E94E0
:1013E000870ADF91CF910C9492047F928F929F9203
:1013F000AF92BF92CF92DF92EF92FF920F931F9323
:10140000CF93DF93A8E6B1E042E351E0712CEE24E4
:10141000E394F12CAD90BC90119711961C921E9202
:10142000EA018991AE01E82FE295EF70F0E091A119
:101430008F70B70101C0660F8A95EAF7892F862B56
:1014400081A382A1962E9094892182A3D0EADA9575
:10145000F1F783E2C82E81E0D82E30E020E0E601EB
:1014600089906E01082D02950F7010E0E80188A1A7
:101470000D911C91119790E0D82DDF7002C09595C9
:101480008795DA95E2F780FD3FC0C701022E02C0C2
:10149000880F991F0A94E2F7082B192B11961C93B9
:1014A0000E932F5F3F4F2F303105C9F681A189215F
:1014B00081A382A1682B62A381E02D913C911197B9
:1014C0002A153B0509F480E0782A1296D1E04733CB
:1014D0005D0709F09FCF272D45E06EE571E088E6B6
:1014E00091E00E94880A0E941604872DDF91CF9117
:1014F0001F910F91FF90EF90DF90CF90BF90AF9032
:101500009F908F907F90089590E080E0C5CF0895E0
:10151000FF920F931F93CF93DF93F82E092F162F6F
:10152000D72FC42F222349F081E0809374010E94B9
:10153000781F9093730180937201809174018823C6
:10154000A1F080917201909173010E94841F06970F
:1015500060F0EF2DF02FA12FBD2F90E080E0D0E0C4
:101560008C179D0744F010927401DF91CF911F9169
:101570000F91FF900895219131912D933D93019604
:10158000EFCFAF92BF92CF92DF92EF92FF920F9385
:101590001F93CF93DF93F62EE72E382F282FE82FB7
:1015A000F0E0711110C0E957FC4F6491762F862F3F
:1015B000DF91CF911F910F91FF90EF90DF90CF902F
:1015C000BF90AF900895072F10E046E0649FC001E0
:1015D0001124CFEFD0E0BE010E94AB2BAB018F2DC9
:1015E00090E0880F991FA5E5A49FB001A59F700DFD
:1015F0001124861B970B982F990F980FBE01601B23
:10160000710B6E9FD0016F9FB00D7E9FB00D1124A6
:101610008B2F9E9DB0011124672F77277E01E61A3C
:10162000F70AB7016E9F70016F9FF00C7E9FF00C60
:1016300011247F2D5E01A91AB108A09E6001A19E10
:10164000D00CB09ED00C1124CD2CDD24CC19DD099A
:10165000CE9F8001CF9F100DDE9F100D11244230D0
:10166000510541F150F44115510591F041305105BA
:1016700089F02B2F8F2D732F0DC044305105E9F0C9
:101680002F2D7B2F44305105D0F04630510589F77E
:10169000732F212FE72FF0E0E957FC4F7491E22FD1
:1016A000F0E0E957FC4F6491E82FF0E0E957FC4F78
:1016B00084917ECF7B2F812FEDCF712F2B2F832F06
:1016C000E9CF0895CF93DF93762FE901682F842F18
:1016D0000E94C10A798368838A83DF91CF9108953C
:1016E0000C94620B80915F02982F9E7F29F4817089
:1016F000826080935F0208958A34E8F38170886481
:10170000F8CF88E090E00C942A2CCF92DF92EF92F1
:10171000FF926B017C010E94720BB701A60188E069
:1017200090E0FF90EF90DF90CF900C94482CEFE585
:10173000F2E083E0808311828FEF828383831482BF
:1017400060817181828193810C94850B80915F020D
:1017500080FF02C08695089580E00895809163021D
:10176000833018F48F5F8093630260915F02709101
:10177000600280916102909162020C94850B8091CD
:101780006302882319F081508093630260915F02A5
:101790007091600280916102909162020C94850BBD
:1017A0006091040170E080915F0280FF0AC0809127
:1017B000790123E0829FC00111248C599D4F0C9424
:1017C000C510809178019091030123E0829FF00180
:1017D0001124EC59FD4F891750F7118210821282A3
:1017E0008F5F3396F8CF90915F0290FF14C0909175
:1017F00078012091030133E0939FF0011124EC590B
:10180000FD4F921710F00C94D00B818360834283BC
:101810009F5F3396F6CF0895CF93DF9300D01F924A
:10182000CDB7DEB790915F0290FF0AC09E012F5F97
:101830003F4F0E94620B4B8169818A810E94F30BAA
:101840000F900F900F90DF91CF910895CF93DF937A
:10185000EC01EC81F0E0EE57FD4F4491EFE5F2E052
:10186000628181810E940C0C8C818F5F8C83DF915F
:10187000CF910895CF93DF93EC01EFE5F2E0438140
:1018800062818C810E940C0C8C818F5F8C83DF9134
:10189000CF9108950F931F93CF93DF9300D01F92A2
:1018A000CDB7DEB78C018091750181110AC09E0110
:1018B0002F5F3F4F4FEF6FEF0E94620B8A81809343
:1018C0007501F8018481813069F038F0409175012B
:1018D000823009F040E080E003C08091750140E073
:1018E00060E004C06091750140E080E00E94F30B6D
:1018F000F801848190E0019663E070E00E94BF2BC4
:1019000084830F900F900F90DF91CF911F910F91D3
:101910000895AF92BF92CF92DF92EF92FF920F9312
:101920001F93CF93DF9300D01F92CDB7DEB7182F50
:10193000F62E042FE22E90915F0290FF29C0E92F2E
:10194000E695AE2FB0E0A95CBE4F8C9180938101EB
:101950009E7F923059F59E012F5F3F4F812F0E944D
:10196000620B4B8169818A810E94F30B10936002A4
:10197000F092610200936202EE2051F060915F02EA
:101980007091600280916102909162020E94850BC9
:101990000F900F900F90DF91CF911F910F91FF90BB
:1019A000EF90DF90CF90BF90AF900895823019F400
:1019B00000916202DBCF863019F410916002D6CF1D
:1019C0008930D9F3893191F6E9518E2F8170D82E63
:1019D000E695F0E0EE57FC4FA590B490C12CBB24E7
:1019E00060910201C61618F00E94D00BBFCF2C2DBB
:1019F00030E0A29EC001A39E900DB29E900D1124D6
:101A000070E00E94AB2B812FD11013C0860F409144
:101A10007801420F532F511D9A01220F331F240FBB
:101A2000351F2C593D4F402F6F2D0E94620BC394E0
:101A3000D7CF861BECCFEFE5F2E09181282F4381D1
:101A400062818AE0890F0C94890C81E00C941B0D53
:101A5000EFE5F2E09181282F4381628186EF890FC3
:101A60000C94890C81E00C94280DEFE5F2E0628182
:101A70002FE0620F08F46FEF282F438181810C94CF
:101A8000890C81E00C94350DEFE5F2E062812FE0E6
:101A9000621B08F460E0282F438181810C94890C3B
:101AA00081E00C94440DEFE5F2E043812FE0420F1A
:101AB00008F44FEF282F628181810C94890C81E01A
:101AC0000C94530DEFE5F2E043812FE0421B08F444
:101AD00040E0282F628181810C94890C81E00C9474
:101AE000620D21E00C94890C20E00C94890CEF929B
:101AF000FF921F93CF93DF93EC0110E0EE24EA9462
:101B0000F12C60910201161770F00E94D00B9A819F
:101B10008C8190FF27C08F5F8C83DF91CF911F91C5
:101B2000FF90EF90089520917801422F410F5527A3
:101B3000551FCA019A01220F331F280F391F2C5934
:101B40003D4F70E0C7010E94BF2B962F8C814091C2
:101B5000620260916102199F800D11240E94620B44
:101B60001F5FCFCF8150D8CFBF92CF92DF92EF923D
:101B7000FF920F931F93CF93DF93FC0182810FEFAE
:101B800080FF01E010E0809102011817C0F00E9470
:101B9000D00B80917701013009F04DC0811102C056
:101BA00080910201815080937701DF91CF911F9145
:101BB0000F91FF90EF90DF90CF90BF900895C0916C
:101BC0007801C12ED12CCC0DDD2DD11DCE01880F79
:101BD000991FC80FD91FCC59DD4F198218821A825C
:101BE00034E0E32EF12CB12C809177018B0D87FF2F
:101BF00003C090910201890F082E000C990BC816A2
:101C0000D90691F4809162028E9DA0018F9D500DA6
:101C1000112455954795559547959E016091610210
:101C2000809160020E94620BB00EF1E0EF1AF108A1
:101C3000D9F61F5FA8CF90E001966091020170E095
:101C40000E94BF2BB0CF0F931F93CF93DF93809150
:101C500078019091030123E0829FF0011124EC5957
:101C6000FD4F891740F1C0E0D3E060910201C61733
:101C700040F10E94D00B2091000180917601820FEB
:101C80008093760190910101920F909301011916B2
:101C900054F4082E000C990B409102014150550B51
:101CA000841795071CF0219520930001DF91CF91B7
:101CB0001F910F9108951182108212828F5F3396C7
:101CC000D0CF0C2F10E070E0C8010E94BF2B2091F4
:101CD0007801820F482F50E020917601022E000CEF
:101CE000330B02171307BCF020910101022E000CE8
:101CF000330B201731077CF08D9F900111242C5954
:101D00003D4F4091620260916102809160020E94A9
:101D1000620BCF5FAACFFA01EE0FFF1FE40FF51F92
:101D2000EC59FD4F118210821282F3CF0F931F9353
:101D3000CF93DF938C01FC018481958101968170A2
:101D4000992795838483C0E0D5E580910201C81767
:101D500030F0DF91CF911F910F910C94D00B209117
:101D60007801422F4C0F5527551FCA019A01220FA7
:101D7000331F280F391F2C593D4F8C2F8695F801A2
:101D800044815581840F952F911D8170409162028D
:101D9000609161028D9F802D11240E94620BCF5FA4
:101DA000D4CF0F931F93CF93DF93EC0110E000E0AB
:101DB000909102019017110609F06CF40E94D00B6B
:101DC0008C8190E00196817099278C83DF91CF916F
:101DD0001F910F91089520917801A801420F511D84
:101DE0009A01220F331F240F351F2C593D4F4C8170
:101DF000609161028091600296959017110651F0F2
:101E00004CF0442349F0409162020E94620B0F5F44
:101E10001F4FCECF4423B9F340E0F7CFEFE5F2E018
:101E200080818E7F808360817181828193810E9415
:101E3000850B109282012FEF80E792E021508040C5
:101E40009040E1F700C000000C94D00BEFE5F2E009
:101E500080818E7F8083109282012FEF80E792E055
:101E6000215080409040E1F700C000000C94D00B5E
:101E700060915F02669570E04BE050E085E091E094
:101E80000E94152C892B19F481E0809382010E9415
:101E9000781F90937B0180937A01089590915F025F
:101EA00090FF35C09170811128C0926090935F02BD
:101EB000662351F060915F0270916002809161022F
:101EC000909162020E94850B60915F02669570E0BE
:101ED0004BE050E085E091E00E94152C892BA1F0A9
:101EE0001092820181E080937D01409162026091B5
:101EF0006102809160020C94740D853210F0986438
:101F0000D5CF880F982BD2CF0E94380FEBCF0895F2
:101F1000682F90915F02969581E0890F853208F0D5
:101F200081E00C944E0F81E00C94880F682F909103
:101F30005F0296958FEF890F09F484E20C944E0F9F
:101F400081E00C94960F61E00C944E0FEFE5F2E007
:101F500080818160808386950C94A30F80915F02BD
:101F600080FD0C940E0F0C94A60F60E00C944E0FA5
:101F700080918001811133C080912F028160809314
:101F80002F020E942B1E811104C00E94B81E0E94C5
:101F9000970B0E94810B60935F02709360028093A5
:101FA0006102909362026E7F61F40E94970B0E941F
:101FB000810B60935F027093600280936102909343
:101FC00062020E94720B1092820180915F0280FF78
:101FD00003C086950E94B50F81E08093800108952B
:101FE000EFE5F2E080818160808386950C94B50FE7
:101FF0000F931F93CF93DF9380918201882309F47D
:102000008DC080918101E0915F02E695E81BE0932D
:102010007C018230C9F5F0E0E258FD4FE491CE2F0B
:10202000D0E006E21CE080917D01882389F01092C7
:102030007D010E94781F9E0120953095820F931F8D
:1020400090937B0180937A0110927F0110927E0120
:1020500080917A0190917B010E94841F8C179D07CB
:1020600008F45CC0E0917A01F0917B01CE0FDF1F94
:10207000D0937B01C0937A018AE791E0F801DF9168
:10208000CF911F910F910994863049F4F0E0E55803
:10209000FD4FE491CE2FD0E00AE31CE0C4CF89309D
:1020A00051F4E695F0E0E858FD4FE491CE2FD0E0F2
:1020B00007E71DE0B8CF8F3051F4E695F0E0EB581C
:1020C000FD4FE491CE2FD0E004EB1DE0ACCF853185
:1020D00049F4F0E0EE58FD4FE491CE2FD0E003E25A
:1020E0001EE0A1CFC8EED3E006E91EE0883109F476
:1020F0009ACF833239F4E0E7F2E0C591D4910AE453
:102100001CE091CFC4EFD1E001ED1EE0843209F470
:102110008ACFC0EDD7E001E61BE085CFDF91CF91FC
:102120001F910F91089531B3242F2095232331B3AC
:10213000432B3FB7F894FC01680F791FE617F707A8
:1021400011F43FBF0895819198E041BB000000C0A9
:1021500087FF21BB880F000000C000C000C021BB6A
:1021600000C09A9591F7EACF20B3242B20BB9B01A6
:10217000220F331F620F731F0E94931087EC90E0B1
:102180000197F1F700C00000089540E20C94B410EC
:102190000F931F93CF93DF93C62FD42F022FFC01F1
:1021A00082818823C9F0609385010E94781F9093F3
:1021B00084018093830180E28C0F883008F057C03F
:1021C000C77081E001C0880FCA95EAF7DF91CF910F
:1021D0001F910F910C94641410918501161335C052
:1021E00080918301909184010E94841F883C910515
:1021F00060F5C0E2CD0F1D17B9F080E2810F883085
:1022000040F4177081E001C0880F1A95EAF70E9428
:102210006B14C83028F581E09D2F977001C0880F9E
:102220009A95EAF70E946414802F0E945114C830D6
:10223000F0F4D77081E001C0880FDA95EAF7DF91FA
:10224000CF911F910F910C946B1480E28C0F88300A
:1022500070F4C77081E001C0880FCA95EAF7EFCF2C
:10226000802FDF91CF911F910F910C945114DF912A
:10227000CF911F910F9108959C01CB01203F4CE518
:10228000340731F190F4283DFCE53F07E9F0293DA2
:102290004CE5340769F1273D3C4579F426E241EEEF
:1022A00061EE0E94C81080E00895223FFCE53F07E0
:1022B000B9F090F0233F3C45B9F0FC0182818823BE
:1022C000D1F010928501089527E245EE65EEE9CF41
:1022D00026E241EE60EEE5CF27E245EE64EEE1CF87
:1022E00026E241EE62EEDDCF27E245EE66EED9CF83
:1022F00028E241E0EBCF81E0089590938B01809339
:102300008A010895E0918A01F0918B01309721F0C4
:102310000190F081E02D099480E00895E0918A0118
:10232000F0918B01309799F020912201222359F0EE
:102330002091A60227FF07C0DC012C9111962C9357
:10234000119725E02C930280F381E02D09940895E4
:10235000E0918A01F0918B01309739F022E0DC01A5
:102360002C930480F581E02D099408952091880133
:10237000309189012817390771F090938901809372
:102380008801E0918A01F0918B01309721F006805D
:10239000F781E02D099408952091860130918701FD
:1023A0002817390771F09093870180938601E09197
:1023B0008A01F0918B01309721F00084F185E02DA6
:1023C0000994089585B7806885BF85B7806885BF03
:1023D0000895089508950C94E91108950C94ED1151
:1023E0000E94E2110E94EA110C94EB1181E0089521
:1023F0000E946F1F0E948F090E9443200E94C723E2
:102400000E94B80F0C94EE115F926F927F928F92A0
:102410009F92AF92BF92CF92DF92EF92FF920F9373
:102420001F93CF93DF93CDB7DEB72A970FB6F894FB
:10243000DEBF0FBECDBF0E94F5090E94F6118823B2
:1024400009F47AC09DE8A92E91E0B92E10E000E0D1
:1024500088248394912C502E802F0E9485097C0122
:10246000F501C190D1905F01C816D90609F45EC08C
:1024700080912F0281FD0E948E0990E080E0CE24A1
:10248000DF243401082E02C0660C771C0A94E2F7A0
:10249000960126213721232B09F443C08E835F82C6
:1024A000E620F72081E0EF2809F480E088870E9489
:1024B000781F8160782F9A8789874E815F81688530
:1024C0008A850E94C312000F111FF801E357FE4FC7
:1024D0008081918168267926718260820E94C6225D
:1024E0000E94821190918C018917B9F10E9482118A
:1024F00080938C012A960FB6F894DEBF0FBECDBF35
:10250000DF91CF911F910F91FF90EF90DF90CF90CF
:10251000BF90AF909F908F907F906F905F900C9442
:102520009C0401968F30910509F0ABCF0F5F1F4FD0
:102530000530110509F08FCF8FEF89838A831B82C5
:102540000E94781F8160782F9D838C8349815A81F6
:102550006B818D810E94C312C1CF2A960FB6F89469
:10256000DEBF0FBECDBFDF91CF911F910F91FF90C6
:10257000EF90DF90CF90BF90AF909F908F907F9023
:102580006F905F900895CF93DF93CDB7DEB72B9711
:102590000FB6F894DEBF0FBECDBF4F835887698753
:1025A0007A878B871E821D8285E0FE013796DE01C9
:1025B000119601900D928A95E1F749815A816B81BC
:1025C0007C818D819E812B960FB6F894DEBF0FBE65
:1025D000CDBFDF91CF910C94101AFC0180819181C5
:1025E0000C94D91C882309F405C18238B9F40E94DF
:1025F000821181FDFFC089E30E94071D0E947B1D9F
:102600002FEF81EE94E0215080409040E1F700C030
:10261000000089E30E940E1D0C947B1D8338A1F4F9
:102620000E94821180FDE6C083E50E94071D0E9482
:102630007B1D2FEF81EE94E0215080409040E1F728
:1026400000C0000083E5E6CF8438A1F40E94821127
:1026500082FDD0C087E40E94071D0E947B1D2FEFE2
:1026600081EE94E0215080409040E1F700C00000EE
:1026700087E4D0CF9CEF980F913A18F40E94071D81
:10268000CBCF90E2980F983050F4877091E001C062
:10269000990F8A95EAF7892F0E942F1DBDCF9BE5E0
:1026A000980F933070F4853A31F0863A39F083E828
:1026B00090E00C94B61181E890E0FBCF82E890E0C6
:1026C000F8CF98E5980F973108F08EC0883A09F452
:1026D00046C0893A09F446C08A3A09F446C08B3AA2
:1026E00009F446C08C3A09F446C08B3B09F446C055
:1026F0008C3B09F446C08D3A09F446C0803B09F48E
:1027000046C08E3A09F446C08F3A09F446C0813B70
:1027100009F446C0823B09F446C0833B09F446C035
:10272000843B09F446C0853B09F446C0863B09F466
:1027300046C0873B09F446C0883B09F446C0893B44
:1027400009F446C08D3B09F446C08E3B09F446C0EF
:102750008A3B09F446C090E080E00C94CC1182EEF4
:1027600090E0FBCF89EE90E0F8CF8AEE90E0F5CFD5
:1027700085EB90E0F2CF86EB90E0EFCF83EB90E03B
:10278000ECCF84EB90E0E9CF87EB90E0E6CF8CECE8
:1027900090E0E3CF8DEC90E0E0CF83E891E0DDCFF7
:1027A0008AE891E0DACF82E991E0D7CF84E991E03D
:1027B000D4CF81E292E0D1CF83E292E0CECF84E227
:1027C00092E0CBCF85E292E0C8CF86E292E0C5CF1F
:1027D00087E292E0C2CF8FE690E0BFCF80E790E043
:1027E000BCCF8AE292E0B9CF803F20F00E94CF2197
:1027F0000C94BB220895882309F452C0823871F4E6
:102800000E94821181FF4CC089E30E94071D0E9433
:102810007B1D89E30E940E1D0C947B1D833859F4A7
:102820000E94821180FF3CC083E50E94071D0E9428
:102830007B1D83E5EFCF843859F40E94821182FF1B
:102840002FC087E40E94071D0E947B1D87E4E2CF12
:102850009CEF980F913AF0F290E2980F983050F474
:10286000877091E001C0990F8A95EAF7892F0E943D
:10287000351DD2CF9BE5980F933020F490E080E097
:102880000C94B61198E5980F973120F490E080E011
:102890000C94CC11803F20F00E9437220C94BB2274
:1028A0000895CF93C82F0E94F212C93349F42FEF35
:1028B00083EC99E0215080409040E1F700C0000097
:1028C0008C2FCF910C94FB13882321F00E942F1D95
:1028D0000C947B1D0895882321F00E94351D0C94D3
:1028E0007B1D0895CF92DF92EF92FF920F931F937B
:1028F000CF93DF936C01D62FC72FFC010581029582
:102900000F70128111110E944E1D0E94251DE82E8C
:10291000882371F0112331F180E28D0F883010F19E
:1029200082E00E94C61D0E94251D91E0E82EE92646
:10293000FC2EF2949FE0F922EF2DF0E0EE55FB4ED5
:102940000C94F52BB414B414011501154815701529
:102950004F154F15B2154F1541164116CB16D4160B
:102960004F15F716E12CE4CF0C2F0F70C07F11F03C
:102970000295007F1123A9F0002359F080E28D0F0A
:10298000883010F0D11109C0802F0E942F1D0E94A5
:102990007B1D8D2F0E94F21214C0802F0E94401DBB
:1029A000F6CF8D2F0E94FB13002359F080E28D0F8C
:1029B000883010F0D11121C0802F0E94351D0E9457
:1029C0007B1DEE2009F41AC20E94211D80FD16C253
:1029D000F60112820E941B1D0E94A11BC6010E94CB
:1029E00007170E941B1DDF91CF911F910F91FF9040
:1029F000EF90DF90CF900C94C21B802F0E94461D59
:102A0000DECFFC2FFF70FF2EC07FC03219F0F29492
:102A100080EFF822DD2369F0D13049F1112391F1E3
:102A2000002351F1F601858180FFB3CF8F7085833C
:102A300023C0112381F0011106C00E94621D8F295D
:102A40000E946414BECF0130C1F70E94621D8F291D
:102A50000E94681DB6CF011106C00E94711D8F2D06
:102A60000E946B14AECF013009F4ABCFF6CF112327
:102A700029F0063008F0A5CF8F2DE2CF053008F001
:102A8000A0CFEDCF002359F38D2F0E94FB1399CFD8
:102A90008C2F86958695837079F08130B9F098E017
:102AA000F91609F49AC0F91608F48BCF86EF8F0D4A
:102AB000823008F492C085CF8D2F9C2F9370111116
:102AC00002C090E080E00E94B6117BCF8D2F9C2F3A
:102AD0009370111102C090E080E00E94CC1171CF80
:102AE000112309F1D53F99F0D63FB9F0D43F49F40D
:102AF0008091A0029091A10281609093A1028093A5
:102B0000A0028D2F0E94CF210E94BB225ACF80911C
:102B1000A0029091A1028260F0CF8091A0029091DA
:102B2000A1028460EACFD53F89F0D63FA9F0D43F17
:102B300049F48091A0029091A1028E7F9093A1020E
:102B40008093A0028D2F0E943722DECF8091A002B9
:102B50009091A1028D7FF2CF8091A0029091A1026D
:102B60008B7FECCF8C2F837009F045C0111135C0DD
:102B70004D2F429546954770440F440F0D2F0F700F
:102B800010E030E020E0042E04C0000F111F221FCF
:102B9000331F0A94D2F760E070E0CB01D4FF0FC07E
:102BA0006FE070E080E090E004C0660F771F881F40
:102BB000991F4A95D2F76095709580959095602BF6
:102BC000712B822B932BC695C695C370C23069F0CA
:102BD00078F4C13039F00E94551B0E9482110E9486
:102BE0009C04EFCE0E94431BF8CF0E94671BF5CFD9
:102BF0000E94411BF2CF8695112311F08C2F81701A
:102C0000882359F34D2F429546954770440F440F42
:102C10000D2F0F7010E030E020E0042E04C0000FF4
:102C2000111F221F331F0A94D2F760E070E0CB011E
:102C3000D4FF0FC06FE070E080E090E004C0660F4A
:102C4000771F881F991F4A95D2F7609570958095D8
:102C50009095602B712B822B932BC695C695C370D4
:102C6000C23049F058F4C13019F00E94181CB5CF99
:102C70000E94061CB2CF0E942A1CAFCF0E947B1B71
:102C8000ACCFE0E2ED0FE53108F066C0F0E0E55BC7
:102C9000F94E0C94F52B60166016601660166016DF
:102CA0006016601660166016601660166016601674
:102CB00060166016601671167F1686168D169716AA
:102CC000DF708C2F8F71112331F00E94A11B8D2F8B
:102CD0000E946414E4CE0E94C21B8D2F0E946B14CC
:102CE000DECE112341F0053008F0D9CE8C2F8F7144
:102CF0000E94E51BD4CE063008F0D1CEF7CF8C2F42
:102D00008F71112339F00E94A11BC9CE8C2F8F71B6
:102D10001123C9F30E94C21BC2CE112329F08C2FAC
:102D20008F710E948C1BBBCE0E94871BB8CE1123D3
:102D300049F0CF718C2F0E94A11B63E08C2F0E9461
:102D4000B11DADCE81E00E94C61D023008F4A7CEB1
:102D500082E00E94C61DA3CE112349F0002321F07A
:102D60008D2F0E94F2129BCE8C2F8F71CCCF00231F
:102D700079F0D93349F4FFEF23EC89E0F15020409A
:102D80008040E1F700C000008D2F0E94FB1387CE2A
:102D90008C2F8F71BFCF4C2F4F706D2FC6010E94AB
:102DA000D3060E94B91A0DCE11110BCECF70C230CE
:102DB000B1F040F4CC2381F0C13009F070CE0E9414
:102DC000F823FFCDC43089F068F080E0C53009F009
:102DD00066CE0E945E24F5CD0E94E023F2CD0E94D3
:102DE0003424EFCD0E943B24ECCD86E0F2CF4C2F73
:102DF0004F706D2FC6010E94D606E3CDDF91CF91B3
:102E00001F910F91FF90EF90DF90CF9008950F9357
:102E10001F93CF93DF93EC01988189812B813C81B3
:102E2000232B39F08F3F19F481E09F3F19F080E0A8
:102E300001C081E080FD17C0CE010E94AE0488234E
:102E400091F0688179818A810E94E31C8C010E9443
:102E50003C1C0E94401BB801CE01DF91CF911F9115
:102E60000F910C947214DF91CF911F910F910895DF
:102E70000E944E1D0E945F1D0E947B1D0E945E23CA
:102E80000E94BB2290E080E00E94B61190E080E0BA
:102E90000C94CC110E94151D0C9438170E943D1DF6
:102EA0000C944A17E92FE295EF70E250EE30E0F40F
:102EB000F0E0E35AF84E0C94F52B6B176B17741770
:102EC000741776177417741774176B176B177B17B3
:102ED000741774177B17803F19F020F4803E20F49C
:102EE00081E00895843FE1F380E00895803EC0F3DF
:102EF000813FD1F7F5CF93FB882780F908950E9491
:102F0000D91C0C945217CF93DF9300D000D01F929E
:102F1000CDB7DEB70F900F900F900F900F90DF910D
:102F2000CF910895CF93DF9300D000D000D0CDB7DC
:102F3000DEB726960FB6F894DEBF0FBECDBFDF9189
:102F4000CF9108951F93CF93DF93C091980116E01E
:102F5000809199018C1304C0DF91CF911F91089546
:102F6000D0E01C9FF0011D9FF00D1124E656FE4F8E
:102F70004081518162817381848195810E94921781
:102F80002196C770E5CF4091CA015091CB01609165
:102F9000CC017091CD018091CE019091CF010C9424
:102FA00092171F93CF93DF938091CF01807FD1F44D
:102FB0008091CC018823B1F080919801D091990142
:102FC000B091CA01C091CB014091CD015091CE0189
:102FD000A1E0BF3F09F0A0E0BA016095709516E04E
:102FE000D81304C0DF91CF911F91089521E04115BE
:102FF000510521F02A2FCF3F09F020E090E020FD7D
:1030000038C0189FF001199FF00D1124E656FE4FAD
:1030100021812C132EC020812B132BC02281211142
:1030200028C0238134812417350700F1241B350B78
:10303000283C3105F0F42091CF012F7020612093BE
:10304000CF0126E0289FF001299FF00D1124E156C1
:10305000FE4F80818F70806180838AEC91E00E94B6
:103060000717DF91CF911F910C94A217260F371FDE
:10307000DFCF01968770B4CFAF92BF92CF92DF922D
:10308000EF92FF920F931F93CF93DF93CDB7DEB7ED
:1030900061970FB6F894DEBF0FBECDBF8C0185E0FF
:1030A000F801DE011D9601900D928A95E1F7D80195
:1030B0004C9111965C9111971296EC903091CA0147
:1030C0006091CB018091CD019091CE0121E00097DC
:1030D00031F06F3F19F421E03F3F09F020E0B22FBB
:1030E000B170BB2E20FD80C1F801C380D480A090B8
:1030F000CC01AA2009F427C1C816D906D0F1D601FF
:10310000A81BB90BCD01FF24F394883C910508F06E
:10311000F12C8091CF01982F907FFF2009F4CEC031
:10312000911187C0FE2C651329C0341327C0E1100C
:1031300025C08F7080618093CF010E94C3178AECF5
:1031400091E00E9407178091CF01F80185838F2DB0
:1031500061960FB6F894DEBF0FBECDBFDF91CF9161
:103160001F910F91FF90EF90DF90CF90BF90AF90A5
:103170000895809590958C0D9D1DC5CF81E0CD283B
:1031800031F05F3F19F481E04F3F09F080E080FDAE
:1031900024C081E08E25F82FF170DF2E80FF3FC024
:1031A000809198012091990136E0821318C04D87D3
:1031B0005E878D859E850E94D91C292F22952F70B0
:1031C000223008F1243030F59F7009F1D8011596AE
:1031D0009C91907FE1F4FB2CBACF80E0DCCF90E0B3
:1031E000389FF001399FF00D1124E656FE4F6181A2
:1031F000561306C06081461303C062816E110FC072
:1032000001968770D2CF9F7011F0882321F3805EE2
:10321000883008F3C8010E940717BD2CDCCFEE20D0
:1032200009F495CF8091CF0181608093CF01F12C7B
:103230008ECF651314C0341312C0E11010C0F80112
:103240008583C8010E94071786E0F801AAECB1E067
:1032500001900D928A95E1F70E94C31778CF4D87B0
:103260005E878D859E850E947F17882319F1EE2049
:1032700009F18091CF01803270F02091CA01309124
:10328000CB0138872F831986DB86CA868C87CE01CF
:1032900007960E94071786E0F801AAECB1E00190BA
:1032A0000D928A95E1F70E94D1170E94C317FF245F
:1032B000F3944DCFC8010E940717F9CF911113C0A5
:1032C0007C2DD98AC88A6E2D89890E9483178AEC41
:1032D00091E00E94071786E0EAECF1E0DF011D9221
:1032E0008A95E9F7B9CF651312C0341310C0E11005
:1032F0000EC0F8018583C8010E940717EAECF1E0CF
:1033000086E0DF011D928A95E9F7FA2C20CF4D87E0
:103310005E878D859E850E947F17882359F2EE2057
:1033200049F28091CF01803208F4B5CF2091CA01D3
:103330003091CB013A8329831B82DD82CC828E833C
:10334000CE010196A6CFC816D90638F1F601E81BC2
:10335000F90BCF01F12C883C910508F03DC0FE2C03
:10336000EE2009F4A7CF651326C0341324C0809142
:10337000CF0180FD17C0982F907FA1F0D80115963E
:103380008C931597903F09F45CCF982F907F905FB6
:103390008F70892B15968C9354CF809590958C0DBA
:1033A0009D1DD8CF86E0F801AAECB1E001900D9206
:1033B0008A95E1F7CCCE4D875E878D859E850E94EC
:1033C0007F17811168CF8091CF0181608093CF01F9
:1033D000C8010E940717BBCE7C2DD98AC88A6E2DE2
:1033E00089890E94831777CFEE2009F463CF4D8738
:1033F0005E878D859E850E947F17F82E882309F4AD
:1034000059CF86E0F801AAECB1E001900D928A95BF
:10341000E1F78AEC91E00E94ED120E94D1171CCFD7
:103420001F93CF93DF93CDB7DEB72C970FB6F894E9
:10343000DEBF0FBECDBF4F83588769877A878B87E2
:103440009C87CE0107960E943C18882309F442C04D
:103450009F8188852A853B85232B39F08F3F19F47E
:1034600081E09F3F19F080E001C081E080FD08C04D
:103470004F81588569857A858B859C850E94921736
:1034800016E08091980190919901891709F467C01D
:10349000819FC001112486569E4F0E943C188823AC
:1034A00009F45DC0E09198011E9FF0011124E656D9
:1034B000FE4F4081518162817381848195810E9498
:1034C00092178091980190E00196877099278093D8
:1034D0009801D7CF86E0FE013796DE011196019064
:1034E0000D928A95E1F79F8188852A853B85232B5C
:1034F00039F08F3F19F481E09F3F19F080E001C05F
:1035000081E080FDBDCF2091990130E0C901019695
:1035100087709927409198014817190699F096E00D
:10352000929FD001939FB00D1124A656BE4FFE016D
:10353000319601900D929A95E1F7809399010E943E
:10354000A2179ECF0E944E171092990110929801D7
:1035500086E0EAECF1E0DF011D928A95E9F72C960E
:103560000FB6F894DEBF0FBECDBFDF91CF911F9194
:103570000895EF92FF920F931F93CF93DF938C01E7
:10358000892B81F0F12CEE24E394E8012196F801D7
:103590008491843770F4843008F05FC08130B1F0DA
:1035A0008230A1F1DF91CF911F910F91FF90EF90A9
:1035B0000895853709F44CC008F43DC09CE7980F86
:1035C000903780F78F770E94FB1349C00E5F1F4F23
:1035D000FE01849190E2980F983060F48770FE2D80
:1035E00001C0FF0F8A95EAF78F2F0E94511D0E949C
:1035F0007B1D02C00E94F2128F2D815030F2EFE944
:10360000FFE03197F1F700C00000F7CF0E5F1F4FCA
:10361000FE01849190E2980F983050F48770FE2D4F
:1036200001C0FF0F8A95EAF78F2F0E94571DDFCF49
:103630000E94FB13E1CF0E5F1F4FFE01C491C150EA
:10364000D8F28FE99FE00197F1F700C00000F7CFB3
:103650000E5F1F4FFE01F490CFCF0E94F2128E0139
:10366000CBCF08950C94311B0E94321B609306024D
:103670007093070280930802909309020C94381704
:1036800008950C94341B0F931F9300910602109120
:1036900007022091080230910902602B712B822BC6
:1036A000932B1F910F910C94341B0F931F93009138
:1036B000060210910702209108023091090260234E
:1036C0007123822393231F910F910C94341B0F932A
:1036D0001F93009106021091070220910802309179
:1036E000090260277127822793271F910F910C945D
:1036F000341B0C94C0030E94791B609302027093E8
:10370000030280930402909305020C94381760E042
:1037100070E0CB010C947B1B0F931F9341E050E0B2
:1037200060E070E08A019B0104C0000F111F221F9E
:10373000331F8A95D2F7C901B8011F910F910C94DC
:103740007B1B0F931F9341E050E060E070E004C0EA
:10375000440F551F661F771F8A95D2F7809102028A
:1037600090910302A0910402B09105028A019B018D
:10377000082B192B2A2B3B2BC901B8011F910F9144
:103780000C947B1B0F931F9341E050E060E070E0CE
:1037900004C0440F551F661F771F8A95D2F7CB01CF
:1037A000BA016095709580959095009102021091F4
:1037B00003022091040230910502602371238223C9
:1037C00093231F910F910C947B1B0F931F9341E048
:1037D00050E060E070E004C0440F551F661F771F83
:1037E0008A95D2F78091020290910302A09104027F
:1037F000B09105028A019B01082719272A273B2738
:10380000C901B8011F910F910C947B1B0F931F935B
:1038100000910202109103022091040230910502EE
:10382000602B712B822B932B1F910F910C947B1B80
:103830000F931F9300910202109103022091040242
:103840003091050260237123822393231F910F91EE
:103850000C947B1B0F931F930091020210910302A3
:103860002091040230910502602771278227932757
:103870001F910F910C947B1B08952FE0929F800D58
:103880001124982F977071E001C0770F9A95EAF78D
:1038900086958695869525E0829FC001112450E08B
:1038A00040E0A62FB0E0FC01E40FF51FE053FE4F0F
:1038B00060819D01042E02C0369527950A94E2F797
:1038C0002170219526272723262720834F5F5F4FCE
:1038D0004530510541F708952FE0929F800D112446
:1038E000982F977086958695869525E0829FA001F2
:1038F000112470E060E080E0FA01E60FF71FE0536A
:10390000FE4F208130E0092E02C0369527950A949B
:10391000E2F721703327062E01C0220F0A94EAF73E
:10392000822B6F5F7F4F6530710531F70895BF922D
:10393000CF92DF92EF92FF920F931F93CF93DF937B
:103940008C01C0900202D0900302E0900402F0903B
:1039500005028091060290910702A0910802B091A1
:103960000902C82AD92AEA2AFB2ACFE1D0E0BC2ED4
:10397000D701C6010C2E04C0B695A79597958795DB
:103980000A94D2F780FD0EC0219788F7B12C8B2DB9
:10399000DF91CF911F910F91FF90EF90DF90CF902B
:1039A000BF900895B8018C2F0E94F306019761F330
:1039B000EECFCF93DF93EC010E94971CBE01DF9105
:1039C000CF910C94F3061F93CF93DF93EB0190916B
:1039D0009701992331F0CB01DF91CF911F910C9486
:1039E000D91C882379F0CB010E94971C182F682FCF
:1039F000CE010E943D1CBE01812FDF91CF911F910E
:103A00000C94F306CB010E946C1C182FF4CF682F86
:103A100080911001909111010C941E1F682F8091CC
:103A20001001909111010C94291F80911001909127
:103A300011010C94341F80910A0285958595859516
:103A4000089580910A028770089590910A029770F4
:103A500081E009F480E0089580912E02089590910C
:103A60002E02892B80932E020895982F9095809195
:103A70002E02892380932E02089510922E0208951B
:103A800090912D02892B80932D020895982F909567
:103A900080912D02892380932D02089510922D028A
:103AA000089590912C02892B80932C020895982FD1
:103AB000909580912C02892380932C020895109276
:103AC0002C02089580910B02089508950C94651DB1
:103AD00090910B02981721F080930B020C94661DB5
:103AE000089580910B02882329F010920B0280E048
:103AF0000C94661D0895E0911001F09111018091E0
:103B00002E028083E0911001F0911101808190914B
:103B10002D02892B8083E0911001F09111018081A9
:103B200090912C02892B808390910B02992381F034
:103B3000E0911001F09111018081892B80838091A7
:103B40001001909111010E94BA1E81110E94711DF5
:103B500080911001909111010C948E1108950C9494
:103B6000AE1D98E0899F90011124622B60930A0298
:103B70000E94A11B80910A028595859585950C94DC
:103B8000AF1D10920A0280E00C94AF1D90910A02C2
:103B90008095892380930A02282F277071F4282F9B
:103BA000082E000C330B9217130639F08595859576
:103BB00085950E94C21B0C94C11D0895CF92DF927F
:103BC000EF92FF926C01EE24FF2420E0C114D10497
:103BD000E104F10419F0C701B60120E1C72ED82E87
:103BE000E92EFF24C114D104E104F10419F0285F87
:103BF000C701B6016B017C0154E0F694E794D794B9
:103C0000C7945A95D1F7C114D104E104F10419F015
:103C10002C5FC701B6016B017C0142E0F694E7948A
:103C2000D794C7944A95D1F7C114D104E104F104A3
:103C300019F02E5FC701B601969587957795679520
:103C4000672B682B692B09F02F5F822FFF90EF9075
:103C5000DF90CF90089590E080E00E94302C21E02A
:103C60008D3E9E4F09F020E0822F089582E090E083
:103C70000C94222C682F82E090E00C94362C83E088
:103C800090E00C94222C682F83E090E00C94362C6A
:103C900084E090E00C94222C682F84E090E00C9457
:103CA000362C86E090E00C94222C682F86E090E081
:103CB0000C94362CAB01BC018FE090E00C94482CA6
:103CC000AB01BC0183E190E00C94482C60E070E013
:103CD000CB010C94601E60E070E0CB010E945A1E84
:103CE0000C94661E6DEE7EEF90E080E00E94542CF6
:103CF00060E082E090E00E94362C60E083E090E09B
:103D00000E94362C109206021092070210920802AE
:103D10001092090260E084E090E00E94362C60E09E
:103D200085E090E00E94362C60E086E090E00E9402
:103D3000362C6FEF87E090E00E94362C40E050E098
:103D4000BA0188E090E00E94482C60E08DE090E0AD
:103D50000E94362C40E050E0BA0188E190E00E94D9
:103D6000482C60E087E190E00E94362C0C946B1E9A
:103D70000C94721EFC01329680912201882321F05E
:103D80008091A6029EE187FF96E080E0915008F4C2
:103D9000089521912223D1F38F5FF8CF9C01FC017C
:103DA00032969FEF80E04191461751F09F3F19F402
:103DB000411101C0982F8F5F8630A9F79F3F09F40A
:103DC0000895290F311D97FD3A95F90162830895F1
:103DD000FC01329608962191261303C0DF0111974A
:103DE0001C92E817F907B9F70895E62FE695E695CE
:103DF000E695EE3168F4E80FF92FF11D677021E0C8
:103E000030E001C0220F6A95EAF78281822B82831B
:103E10000895E62FE695E695E695EE3170F4E80F05
:103E2000F92FF11D677021E030E001C0220F6A9583
:103E3000EAF7209582812823228308952091220188
:103E4000222329F02091A60227FD0C94F51E0C9444
:103E5000CE1E20912201222329F02091A60227FDC7
:103E60000C94091F0C94E81EFC01329680912201EB
:103E7000882351F08091A60287FF06C08EE1DF0102
:103E80001D928A95E9F7089586E0F9CF089508957F
:103E90000C94471F0C94481F0895CF930E94461F0F
:103EA0000E94F5090E944C1FC0E08C2F0E948509DA
:103EB000892B31F4CF5FC530C1F780E0CF910895F1
:103EC00081E0FCCF08950C94621F0E944E170E945F
:103ED000C7230E9482110E949C040C94631F82E0FD
:103EE00084BD93E095BD9AEF97BD80936E000895D1
:103EF0002FB7F8948091A2029091A302A091A402FE
:103F0000B091A5022FBF0895CF92DF92EF92FF925A
:103F10000F931F932FB7F8944091A2025091A302E0
:103F20006091A4027091A5022FBF6A017B01EE246B
:103F3000FF248C0130E020E0C016D106E206F30633
:103F400050F0481B590BCA011F910F91FF90EF9041
:103F5000DF90CF90089541505109F3CF78941F928C
:103F60000F920FB60F9211248F939F93AF93BF932D
:103F70008091A2029091A302A091A402B091A50207
:103F80000196A11DB11D8093A2029093A302A0935C
:103F9000A402B093A502BF91AF919F918F910F9012
:103FA0000FBE0F901F90189581E08093E00080E293
:103FB0008093D8001092C9008FE19EE40197F1F739
:103FC00000C0000087E090EBDC018093B602909384
:103FD000B702A093B802B093B90288E19CE00FB693
:103FE000F894A895809360000FBE90936000FFCF77
:103FF000AF92BF92CF92DF92EF92FF920F931F93F7
:10400000CF93C0E0CC24C394D12CE82EF12C8C2F7C
:104010000E9485095C0110E000E0C601002E02C08C
:10402000880F991F0A94E2F78A219B21892B99F422
:104030000F5F1F4F0F30110581F7CF5FC53039F784
:1040400080E0CF911F910F91FF90EF90DF90CF9084
:10405000BF90AF900895602F7C2F80E00E94D7061C
:10406000E816F90629F781E0ECCFCF93C82F8CE250
:104070000E94F81F882321F08C2FCF910C94F81FF9
:1040800080E0CF910895CF930E942B1E811102C032
:104090000E94B81EC5E608C00E94F5098FE39CE99E
:1040A0000197F1F700C00000C150B1F789E20E940A
:1040B00035208111EFC08AE20E94352081110E94D3
:1040C000B81E85E00E94352081110E94D41F0E94F5
:1040D000361E80932F0287E00E943520882371F0DE
:1040E0008BE10E943520882309F4B1C090912F0202
:1040F000892F8D7F91FF826080932F0280912F0204
:104100000E943A1E0E94481E90E09093A70280935E
:10411000A60280EE0E943520882341F09091A602ED
:10412000892F8E7F90FF81608093A60289E30E9491
:104130003520882341F09091A602892F8D7F91FF31
:1041400082608093A60282EE0E943520882341F08F
:104150009091A602892F8B7F92FF84608093A602A4
:1041600086EE0E943520882341F09091A602892F87
:10417000877F93FF88608093A60283EE0E9435209C
:10418000882341F09091A602892F8F7E94FF806151
:104190008093A60285E30E943520882341F0909108
:1041A000A602892F8F7D95FF80628093A60281E30E
:1041B0000E943520882341F09091A602892F8F7BA1
:1041C00096FF80648093A60281E10E9435208823B7
:1041D00041F09091A602892F97FB87F98058809330
:1041E000A6028091A6020E944C1E87E20E94352002
:1041F000C82F8EE10E9435208111C2608FE10E949C
:1042000035208111C46080E20E9435208111C86090
:1042100081E20E9435208111C06182E20E94352036
:104220008111C06283E20E9435208111C06484E262
:104230000E943520882341F1C0688C2F0E94431EC4
:104240006C2F70E090E080E0CF910C94411B8EE0E9
:104250000E943520882339F090912F02892F8B7F7F
:1042600092FF846049CF80E10E94352090912F0217
:10427000882329F0892F877F93FF88603DCF892F7E
:104280008E7F90FF816038CFC111D7CF0E943F1E33
:10429000682FD7CFCF9108958091330280FF12C04D
:1042A0006091150185E0689FB001112475956795AF
:1042B0007595679560387105A8F561157105A1F1CF
:1042C000862F089581FF09C06091150185E0689FE0
:1042D000B001112475956795EDCF82FF07C06091FD
:1042E000150185E0689FB0011124E4CF20913202CE
:1042F0002223A9F0909114016091150185E0689F37
:10430000B00111242917B0F6269FA001279F500D58
:104310001124692F70E0CA010E94BF2BCBCF65E04A
:1043200070E0CECF8FE7089581E008958091330249
:1043300080FF0CC06091130170E0759567957595CD
:1043400067956115710549F1862F089581FF06C0B3
:104350006091130170E075956795F3CF609113013B
:1043600082FD0BC0909132029923A1F0609112015D
:1043700080911301961738F0682F70E0603871054E
:1043800000F38FE70895899FC001112470E00E9417
:10439000BF2BF4CF61E070E0D7CF81E00895803F7C
:1043A00031F40E944C218195809337020895813F1A
:1043B00019F40E944C21F8CF823F31F40E944C2125
:1043C0008195809336020895833F19F40E944C2111
:1043D000F8CF893F29F40E949621809338020895EE
:1043E0008A3F21F40E9496218195F7CF8B3F31F4CB
:1043F0000E94962181958093390208958C3F19F48B
:104400000E949621F8CF843F31F48091350281607B
:10441000809335020895853F21F4809135028260B2
:10442000F7CF863F21F4809135028460F1CF873F3A
:1044300021F4809135028860EBCF883F21F4809190
:1044400035028061E5CF8D3F31F480913302816088
:104450008093330208958E3F21F48091330282606D
:10446000F7CF8F3FB9F7809133028460F1CF803F5F
:10447000C1F48091370287FD109237028091360295
:1044800081110EC08091370281110AC080913802DB
:10449000811106C080913902811102C0109232024E
:1044A0000895813F29F48091370218162CF3E6CF46
:1044B00090913602823F29F497FFE0CF10923602A6
:1044C000DDCF833F19F41916CCF3D8CF893F39F4E7
:1044D00080913802181694F610923802CFCF8A3F96
:1044E00029F48091380287FFC9CFF6CF8B3F39F48A
:1044F0008091390287FFC2CF10923902BFCF8C3F23
:1045000029F4809139021816BCF3B8CF843F31F4F6
:10451000809135028E7F80933502B0CF853F21F4A4
:10452000809135028D7FF7CF863F21F4809135024F
:104530008B7FF1CF873F21F480913502877FEBCFCE
:10454000883F21F4809135028F7EE5CF8D3F31F495
:10455000809133028E7F8093330290CF8E3F21F47F
:10456000809133028D7FF7CF8F3F09F087CF809105
:1045700033028B7FF0CF84E392E00E94A8110E9467
:10458000781F909331028093300208951F93CF9348
:10459000DF9380913002909131020E94841FAC0120
:1045A000909132022091160130E0911106C02091C5
:1045B00017018AE0289F900111244217530780F0C9
:1045C0008091360210913702D0913802C0913902A1
:1045D00081110AC011116EC0D1116CC0C1116AC025
:1045E000DF91CF911F9108959F3F19F09F5F9093A6
:1045F0003202181624F40E944C21809336028091D6
:10460000360287FF05C00E944C21819580933602B7
:10461000111624F40E944C218093370280913702B6
:1046200087FF05C00E944C2181958093370230910D
:1046300036023323A1F020913702222381F045EB8B
:104640003403C0011124992369F19093360245EB9C
:10465000240390011124332349F1309337021D16AE
:1046600024F40E949621809338028091380287FFBB
:1046700005C00E9496218195809338021C1624F46F
:104680000E949621809339028091390287FF05C0EC
:104690000E949621819580933902DF91CF911F91DD
:1046A0000C94BB2281E080933602D1CF81E08093CD
:1046B0003702D5CF9F3F09F099CFAACF86E0E4E338
:1046C000F2E0DF011D928A95E9F710923202109212
:1046D00033020895E1E8F0E0808188608083808182
:1046E000816080838FB7F89493E09093890090ED78
:1046F000909388008FBF0895EFE6F0E0808182609C
:1047000080830895EFE6F0E080818D7F80830895B7
:104710001F920F920FB60F9211242F933F934F9336
:104720005F936F937F938F939F93AF93BF93EF9319
:10473000FF9380913A0290913B02019690933B0245
:1047400080933A02811103C082E00E949C04E091B0
:104750003B02E695E695F0E0E957FB4FE491809146
:104760003A028E1303C080E00E949C04FF91EF91F7
:10477000BF91AF919F918F917F916F915F914F9179
:104780003F912F910F900FBE0F901F9018950E9490
:104790002B1E811102C00E94B81E0E94511E8093E0
:1047A000A8028E3020F081708C608093A8028091E6
:1047B000A80280FF03C086950C94290480E0FCCFFA
:1047C0008091A802982F9695963030F49F5F990FAC
:1047D0008170892B8093A8028091A80281608093C8
:1047E000A8020E94551E8091A80286950C94290467
:1047F0008091A802982F9E7F79F082508093A80222
:104800008E7F91E009F490E08091A80290FB80F9FE
:104810008093A8020E94551E8091A80286950C9450
:1048200029048091A80280FD11C081608093A802B4
:10483000813019F483E08093A8028091A8020E943D
:10484000551E8091A80286950C94290408958091A4
:10485000A80280FF08C08E7F8093A8020E94551E88
:1048600080E00C94290408958091A80280FD0C94A6
:1048700027240C9411249091A802892F86958F5F8C
:104880008F7791708730B8F4880F892B8093A802B6
:104890008091A8028E7F91E009F490E08091A802B7
:1048A00090FB80F98093A8020E94551E8091A80277
:1048B00086950C9429049093A802EACF873008F0DB
:1048C00086E0982F990F8091A8028170892B8093A0
:1048D000A8028E7F91E009F490E08091A80290FBFD
:1048E00080F98093A8020E94551E8091A8028695A7
:1048F0000C94290480915C0208950F931F93CF9329
:10490000DF9300D01F92CDB7DEB78C010E94EC265A
:10491000823011F0843021F584E089831B830A837F
:1049200082E08093E9008FEF9091E800815095FD3F
:1049300006C095ED9A95F1F700008111F5CF8091B1
:10494000E80085FF0DC050E040E063E070E0CE017C
:1049500001960E9409278091E8008E778093E800F5
:104960000F900F900F90DF91CF911F910F910895AD
:10497000CF93DF9300D01F92CDB7DEB72091AD0269
:10498000243031F523E02983805891099B838A8361
:1049900082E08093E9008FEF9091E800815095FDCF
:1049A00006C095ED9A95F1F700008111F5CF809141
:1049B000E80085FF0DC050E040E063E070E0CE010C
:1049C00001960E9409278091E8008E778093E80085
:1049D0000F900F900F90DF91CF910895CF93DF93B9
:1049E000EC010E94EC26823011F08430F9F482E070
:1049F0008093E9008FEF9091E800815095FD06C00B
:104A000095ED9A95F1F700008111F5CF8091E800BE
:104A100085FF0CC050E040E066E070E0CE010E94EF
:104A200009278091E8008E778093E800DF91CF918D
:104A30000895CF93DF93EC010E94EC26823011F0B1
:104A40008430B9F5809122018823B1F18091A602CA
:104A500087FF32C060E282E08093E9008FEF90919F
:104A6000E800815095FD06C095ED9A95F1F700009C
:104A70008111F5CF8091E80085FF1BC08091220154
:104A800070E050E040E0811104C050E040E068E098
:104A900070E0CE010E9409278091E8008E77809314
:104AA000E80080E2FE01ACE3B2E001900D928A954D
:104AB000E1F7DF91CF91089568E081E0CDCF80915B
:104AC000AC02811109C00E9499280E94F6288091A9
:104AD000E20084608093E20008951092AC02089591
:104AE00008950C947C230E94651F0E9482230E94DB
:104AF00082110C949C0442E061EC81E00E94172832
:104B000042E261EC82E00C9417288091AF0283307E
:104B100009F462C030F48130D9F1823009F49EC0CA
:104B200008958A3009F48AC08B3009F470C0893046
:104B300009F051C08091AE02813209F04CC08091E1
:104B4000B2029091B302029708F045C08091E8004C
:104B5000877F8093E8008091E80082FF38C08091D1
:104B6000F3009091F200892798278927029729F46A
:104B70008091F1008B7F813021F48091F10080934E
:104B80005C028091E8008B778093E8000C944B28BE
:104B90008091AE02813AF9F48091E800877F80939A
:104BA000E8008091B2029091B302892B61F460E237
:104BB0008CE392E070E00E9458278091E8008B77A8
:104BC0008093E800089560E090E080E0F3CF80916A
:104BD000AD028111C0CF08958091AE02813AD9F71C
:104BE0008091B2029091B302892BA9F78091E800DD
:104BF000877F8093E8008091E80080FFFCCF809160
:104C000022018093F1008091E8008E77BDCF8091E2
:104C1000AE02813201F78091B2029091B302892BEA
:104C2000D1F68091E800877F8093E8000E944B28AE
:104C30008091B002809322010C944E178091AE02B5
:104C4000813249F68091E800877F8093E8000E94D6
:104C50004B288091B10280935D0208958091AE024D
:104C6000813A09F0B8CF8091E800877F8093E8000F
:104C70008091E80080FFFCCF80915D02C2CF84B7B5
:104C8000877F84BF0FB6F894A895809160008861F3
:104C900080936000109260000FBE80E880936100F6
:104CA000109261000E94F0110E9499280E94F6283B
:104CB0008091E20084608093E20078940E947F2BD0
:104CC0000E94F81188E191E00E947D110E946A2300
:104CD0008091AD02853029F00E9404120E94F80FE5
:104CE000F7CF0E944A1F8091AB02882389F30E946C
:104CF0004D1F882369F30E94F326EACF0C94802687
:104D0000292F33272330310571F158F42130310533
:104D1000E9F02230310511F190E080E030E020E050
:104D200019C021323105C1F122323105A9F780E4E1
:104D300090E02AE136E06115710561F080EC90E0C9
:104D40002AE535E06130710529F0E6CF82E190E097
:104D500028E435E0FA013183208308958BE390E065
:104D60002DE035E0F7CF99278130910579F040F0BB
:104D70008230910571F0039779F6E7ECF4E002C018
:104D8000E9E0F5E0849190E09F01E4CFE9EDF4E003
:104D9000F9CFEDECF4E0F6CF89E090E02FE135E0DB
:104DA00061157105B9F289E090E028E335E06130E2
:104DB000710581F2B1CF0895CF93C82F0E94DB26F1
:104DC000C0935E02CF9108958091AD02843011F0BE
:104DD00081E0089582E0089580915E02811102C011
:104DE0000C94E426089580E189BD82E189BD09B46F
:104DF00000FEFDCF8091D8008F7D8093D8008091F8
:104E0000E00082608093E0008091E00081FDFCCFB3
:104E10000895AF92BF92CF92DF92FF920F931F93AC
:104E2000CF93DF936C01EB018A010E946A28F82E70
:104E3000811123C00115110539F0F801808191819C
:104E4000C81BD90BC80ED91EB12CA12C2097A9F0D4
:104E50008091E80085FD22C08091E8008E778093E4
:104E6000E80001151105A1F0F80180819181A80EDB
:104E7000B91EB182A08285E0F82E8F2DDF91CF91EF
:104E80001F910F91FF90DF90CF90BF90AF9008954A
:104E90000E946A288823D1F2F82EEFCFF601819183
:104EA0006F018093F1002197FFEFAF1ABF0ACECFB9
:104EB000FC018091B4029091B50286179707A0F08B
:104EC0006115710529F49091E8009E779093E800B0
:104ED00090E06115710551F4911108C08091E800CE
:104EE00082FF35C080E00895BC01F2CF8091AD0211
:104EF0008823C9F18530C9F18091E80083FD31C074
:104F00008091E80082FDEACF8091E80080FFE1CF48
:104F10002091F3008091F200322F282F6115710546
:104F200019F02830310558F091E02830310509F0AA
:104F300090E02091E8002E772093E800CACF81917D
:104F40008093F100615071092F5F3F4FE7CF80914F
:104F5000AD02882341F0853041F08091E80083FF65
:104F6000BDCF81E0089582E0089583E00895FC01BB
:104F70008091B4029091B50286179707A0F0611551
:104F8000710529F48091E8008E778093E80090E025
:104F90006115710551F4911108C08091E80082FFFC
:104FA00036C080E00895BC01F2CF8091AD02882325
:104FB000D1F18530D1F18091E80083FD32C080913C
:104FC000E80082FDEACF8091E80080FFE1CF2091E8
:104FD000F3008091F200322F282F6115710519F02E
:104FE0002830310558F091E02830310509F090E083
:104FF0008091E8008E778093E800CACF84918093F7
:10500000F1003196615071092F5F3F4FE6CF8091DB
:10501000AD02882341F0853041F08091E80083FFA4
:10502000BCCF81E0089582E0089583E00895982F31
:10503000973028F08F708093E90081E00895909375
:10504000E900242F762F50E0981731F07091EC0092
:105050002091ED005091F00021FD02C09F5FE8CF4C
:105060003091EB003E7F3093EB003091ED003D7FBF
:105070003093ED003091EB0031603093EB00709392
:10508000EC002093ED005093F0002091EE0027FDFE
:10509000E5CF80E008958091AE0287FF13C0809134
:1050A000E80082FF06C08091E8008B778093E800DB
:1050B00004C08091AD028111F2CF08958091AD02BC
:1050C0008823D9F38091E80080FFF8CF8091E80031
:1050D0008E77ECCF2091E4003091E50085E6909149
:1050E000EC0090FF06C09091E80090FF06C080E0C1
:1050F00008959091E80092FDFACF9091AD02992326
:1051000091F0953091F09091EB0095FD10C0409199
:10511000E4005091E5002417350709F381509A0106
:10512000F1F684E0089582E0089583E0089581E037
:1051300008950E9407290E940F29E0EEF0E0808187
:1051400081608083E8EDF0E080818F77808319BCF7
:10515000A7EDB0E08C918E7F8C9380818F7E8083D1
:105160001092AC0208950F931F93CF93DF930E9488
:1051700007290E940F29C8EDD0E088818F778883A6
:1051800088818068888388818F7D888319BC10928C
:10519000AD021092A9021092AB021092AA0200EE88
:1051A00010E0F80180818B7F808388818160888313
:1051B00042E060E080E00E941728E1EEF0E08081AC
:1051C0008E7F8083E2EEF0E0808181608083808149
:1051D00088608083F80180818E7F808388818061F0
:1051E0008883DF91CF911F910F910895E8EDF0E052
:1051F00080818F7E8083E7EDF0E080818160808315
:1052000084E082BF81E08093AC020C94B328E8ED87
:10521000F0E080818E7F80831092E20008951092EA
:10522000DA001092E10008951F920F920FB60F92CC
:1052300011242F933F934F935F936F937F938F939B
:105240009F93AF93BF93EF93FF938091E10082FF11
:105250000BC08091E20082FF07C08091E1008B7F4C
:105260008093E1000E947E2B8091DA0080FF19C0BC
:105270008091D80080FF15C08091DA008E7F8093E6
:10528000DA008091D90080FF94C080E189BD82E17D
:1052900089BD09B400FEFDCF81E08093AD020E947C
:1052A0005F258091E10080FF19C08091E20080FFBE
:1052B00015C08091E2008E7F8093E2008091E20031
:1052C00080618093E2008091D80080628093D80052
:1052D00019BC85E08093AD020E9471258091E100A8
:1052E00084FF29C08091E20084FF25C080E189BD50
:1052F00082E189BD09B400FEFDCF8091D8008F7D89
:105300008093D8008091E1008F7E8093E1008091AE
:10531000E2008F7E8093E2008091E20081608093C2
:10532000E2008091A902882309F449C084E08093B7
:10533000AD020E9473258091E10083FF29C0809116
:10534000E20083FF25C08091E100877F8093E10028
:1053500082E08093AD021092A9028091E1008E7FDD
:105360008093E1008091E2008E7F8093E200809143
:10537000E20080618093E20042E060E080E00E9411
:1053800017288091F00088608093F0000E947025BB
:10539000FF91EF91BF91AF919F918F917F916F910D
:1053A0005F914F913F912F910F900FBE0F901F90E3
:1053B000189519BC1092AD020E946D2572CF809194
:1053C000E30087FD02C081E0B2CF83E0B0CF1F923F
:1053D0000F920FB60F9211242F933F934F935F9329
:1053E0006F937F938F939F93AF93BF93CF93EF93DD
:1053F000FF93C091E900CF708091EC001092E9001A
:105400008091F000877F8093F00078940E94232A97
:105410001092E9008091F00088608093F000C093C2
:10542000E900FF91EF91CF91BF91AF919F918F9143
:105430007F916F915F914F913F912F910F900FBE90
:105440000F901F9018951F93CF93DF93CDB7DEB7C2
:10545000AA970FB6F894DEBF0FBECDBFEEEAF2E01A
:105460008091F100819322E0E63BF207C9F70E94A8
:1054700085258091E80083FF44C08091AE02909121
:10548000AF029A3008F03DC0E92FF0E0E65BF54D41
:105490000C94F52B542A7A2A812A7A2A812AD82A2E
:1054A000FA2A812A512B5E2B803889F0823849F5FF
:1054B0008091B2028F70873020F58093E90080914F
:1054C000EB0085FB882780F91092E90006C08091E7
:1054D000AA029091AB02911182609091E800977FAF
:1054E0009093E8008093F1001092F1008091E80021
:1054F0008E772DC0282F2D7F21F48823D1F0823084
:1055000059F18091E80083FF0AC08091E800877F0D
:105510008093E8008091EB0080628093EB00AA9674
:105520000FB6F894DEBF0FBECDBFDF91CF911F91B4
:1055300008958091B002813021F7933009F080E026
:105540008093AB021092E9008091E800877F8093FE
:10555000E8000E944B28D5CF8091B0028111F2CF94
:105560008091B2028F702FEF280F263050F6809373
:10557000E9002091EB0020FFE5CF933031F48091DA
:10558000EB0080628093EB00DDCF9091EB009061A7
:105590009093EB0021E030E001C0220F8A95EAF7FA
:1055A0002093EA001092EA008091EB008860EACF35
:1055B0008111A7CF1091B0021F778091E30080780E
:1055C000812B8093E3008091E800877F8093E8003F
:1055D0000E944B288091E80080FFFCCF8091E3007F
:1055E00080688093E30083E0111101C082E0809322
:1055F000AD0287CF8058823008F083CF8091B0020F
:105600009091B1028C3D23E09207A1F583E08A835B
:105610008AE289834FB7F894DE01139620E03EE0DA
:1056200051E2E32FF0E050935700E49120FF03C0D4
:10563000E295EF703F5FEF708E2F90E0EA30C0F0A0
:10564000C7968D939D932F5F243159F74FBF80915B
:10565000E800877F8093E8006AE270E0CE0101965F
:105660000E9458278091E8008B778093E80049CF0B
:10567000C096E7CF6091B2027091B302AE014F5F66
:105680005F4F0E947E26BC01892B09F43ACF90918E
:10569000E800977F9093E80089819A810E94B7275C
:1056A000E1CF803809F02DCF8091E800877F80938B
:1056B000E8008091A9028093F10018CF811121CFD9
:1056C0009091B002923008F01CCF8091E800877F63
:1056D0008093E8009093A9020E944B288091A90230
:1056E000882331F084E08093AD020E947B2509CFAE
:1056F0008091E30087FDF6CF81E0F5CF0895CF9349
:105700008091AD02882399F0C091E900CF7080911B
:10571000EC0080FD0EC080E0C82B1092E900809163
:10572000E80083FD0E94232ACF70C093E900CF9147
:10573000089580E8F1CFDB018F939F930E940A2C9C
:10574000BF91AF91A29F800D911DA39F900DB29F1D
:10575000900D11240895AA1BBB1B51E107C0AA1F7D
:10576000BB1FA617B70710F0A61BB70B881F991F02
:105770005A95A9F780959095BC01CD01089597FBA6
:10578000072E16F4009407D077FD09D00E94AB2BAA
:1057900007FC05D03EF4909581959F4F0895709534
:1057A00061957F4F0895A1E21A2EAA1BBB1BFD0134
:1057B0000DC0AA1FBB1FEE1FFF1FA217B307E407F0
:1057C000F50720F0A21BB30BE40BF50B661F771F48
:1057D000881F991F1A9469F7609570958095909528
:1057E0009B01AC01BD01CF010895EE0FFF1F059095
:1057F000F491E02D0994A29FB001B39FC001A39F33
:10580000700D811D1124911DB29F700D811D1124F9
:10581000911D08950E94FB2BA59F900DB49F900DA4
:10582000A49F800D911D11240895FC01415050400A
:1058300030F001900616D1F73197CF0108958827EF
:1058400099270895F999FECF92BD81BDF89A9927BD
:1058500080B50895A6E1B0E044E050E00C945C2CE3
:10586000A8E1B0E042E050E00C945C2C262FF999BE
:10587000FECF92BD81BDF89A019700B4021639F0AF
:105880001FBA20BD0FB6F894FA9AF99A0FBE089580
:105890000396272F0E94372C0E94362C252F0E941A
:1058A000372C242F0C94372C0196272F0E94372C4D
:1058B0000C94362CDC01CB01FC01F999FECF06C01B
:1058C000F2BDE1BDF89A319600B40D9241505040BE
:0858D000B8F70895F894FFCF2A
:1058D800010214141401191A1B1C1D1E1F20212259
:1058E8000C022808140A321E7A241925EE24B8243A
:1058F8007D2401F0F1C6676636943137F434979603
:105908003330909192939500010202020206060636
:105918000909090909090F0F0F0F0F0F1515151898
:0C59280019191919191919191919232432
:00000001FF
