:100000000C9468020C94AF020C94AF020C94AF02F3
:100010000C94AF020C94AF020C94AF020C94AF029C
:100020000C94AF020C94AF020C94CD270C94A02832
:100030000C94721E0C94AF020C94AF020C94AF029D
:100040000C94AF020C94AF020C94AF020C94AF026C
:100050000C94AF020C94DA1E0C94AF020C94AF0215
:100060000C94AF020C94AF020C94AF020C94AF024C
:100070000C94AF020C94AF020C94AF020C94AF023C
:100080000C94AF020C94AF020C94AF020C94AF022C
:100090000C94AF020C94AF020C94AF020C94AF021C
:1000A0000C94AF020C94AF020C94AF02076342367B
:1000B000B79BD8A71A39685618AEBAAB558C1D3CF9
:1000C000B7CC5763BD6DEDFD753EF6177231BF00BD
:1000D0000000803F05A84CCDB2D44EB93836A902F5
:1000E0000C50B9918688083CA6AAAA2ABE00000036
:1000F000803FF1A129001E001F00200021002200E6
:10010000230024002500260027002D002E003500A6
:100110002A002B0014001A000800150017001C000C
:1001200018000C00120013002F00300000003100F6
:10013000002004001600070009000A000B000D0053
:100140000E000F0033003400000000002800E10022
:1001500000201D001B000600190005001100100002
:1001600036003700E500380052003800E000E200B9
:10017000E300000000002C002C002C000000000018
:10018000E7000020500051004F00005C3A003B00A7
:100190003C003D003E003F00400041004200430063
:1001A0004400450000004C00C25CC55CC75CC95CF3
:1001B000C35CBF5CBE5C00000000000000000000EB
:1001C0000000000000000020C65CC85CCA5CC45C83
:1001D000C15CBD5C000000000000000000000000E9
:1001E00000002800E1000020000065000000000081
:1001F0000000AA00A900A8000000E50000004B00D4
:100200004900E000E300E200000000002C002C00A8
:100210002C0000000000E700002000004E0000005D
:1002200000047F3F1F643214643214783C1E1E1495
:100230000A056801F000B40078005A0000000000D0
:100240000001010101010101010102020202020299
:10025000020202030303030303030304040404046C
:10026000040505050505060606060607070707082F
:100270000808080909090A0A0A0A0B0B0B0C0C0CDE
:100280000D0D0D0E0E0F0F0F101011111112121374
:10029000131414151516161717181819191A1A1BEE
:1002A0001C1C1D1D1E1F1F2020212222232425254A
:1002B00026272728292A2B2B2C2D2E2F2F30313281
:1002C00033343536363738393A3B3C3D3E3F404192
:1002D000424344464748494A4B4C4D4F5051525374
:1002E000555657585A5B5C5E5F6062636466676927
:1002F0006A6C6D6E707173747678797B7C7E8081A8
:10030000838486888A8B8D8F91929496989A9B9DF0
:100310009FA1A3A5A7A9ABADAFB1B3B5B7B9BBBDFD
:10032000BFC1C4C6C8CACCCFD1D3D6D8DADCDFE1CE
:10033000E4E6E8EBEDF0F2F5F7FAFCFF0403300039
:1003400000000A0344006F003600300000002E0356
:10035000530068006F0070006B006500790020009A
:1003600062007900200044006F00790075002000D1
:10037000530074007500640069006F0000000403FE
:10038000090409023B00020100A0FA09040000016F
:10039000030101000921110100012240000705812C
:1003A0000308000A090401000103000000092111EB
:1003B00001000122C0000705820320000A1201107B
:1003C0000100000008EDFE6060010001020301056C
:1003D000010902A10185020901A1000509190129EC
:1003E00005150025019505750181029501750381AB
:1003F000010501093009311581257F9502750881B4
:100400000609381581257F950175088106050C0AB6
:1004100038021581257F950175088106C0C0050148
:100420000980A10185031601002603001A81002A14
:100430008300751095018100C0050C0901A101859B
:1004400004160100269C021A01002A9C02751095D0
:10045000018100C005010906A1018505050719E014
:1004600029E7150025019508750181020508190184
:1004700029059505750191029501750391010507FF
:10048000190029EF1500250195F075018102C005BD
:10049000010906A101050719E029E71500250195C5
:1004A0000875018102950175088101050819012966
:1004B00005950575019102950175039101050719CF
:1004C0000029FF150026FF00950675088100C00071
:1004D00011241FBECFEFDAE0DEBFCDBF04B603FEAE
:1004E00027C08091A3029091A402A091A502B0918F
:1004F000A6028730904BA740B04BD1F41092A302D4
:100500001092A4021092A5021092A60214BE84B703
:10051000877F84BF0FB6F894A895809160008861AA
:1005200080936000109260000FBEE0E0F8E3099550
:1005300011E0A0E0B1E0ECEDFCE502C005900D9209
:10054000A633B107D9F722E0A6E3B1E001C01D92BE
:10055000A33AB207E1F70E94FA240C946C2E0C9493
:10056000000044E664E684E690E00C94960C0C945B
:10057000C802229A2A9A08950E94A3080E94B902EA
:100580000C94B10281FF02C02A9808952A9A089516
:10059000089581E0089581E008950C94CB020C94B5
:1005A000B702CF92DF92EF92FF92873028F5811148
:1005B00024C0909180009F7790938000282F30E096
:1005C000AFEFBFEF0E94FD2D26E030E040E050E0AD
:1005D0000E94D52DC9012C3764E1360790F469E0FB
:1005E00070E00E94AD2D7093890060938800FF90A9
:1005F000EF90DF90CF90089586E090918000906812
:10060000DBCF2A50374D4F4F5F4F942F832F722FE0
:10061000662725EF38E241E050E00E94D52D6901C0
:100620007A01CA01B9010E949D2D9B01AC01C7014D
:10063000B6010E949D2D672F782F892F992761156C
:10064000710521E08207910571F66FEF7FEFCBCF47
:10065000259A2D9882E88093800089E1809381001B
:100660008FEF9FEF90938700809386000C948922F0
:100670000E94FD1C811102C00E948A1D0E94280355
:100680000C94BC020C94C20208950E946B160E9446
:1006900044032FEF84E39CE0215080409040E1F739
:1006A00000C000000C94001FFF920F931F93CF9384
:1006B000DF938C01FC01C081D18180918501811182
:1006C00049C08281882309F440C0CE010E94B61B34
:1006D000F82E682FCE010E945C1BBE018F2D0E9458
:1006E000F605EC01B8010E94CD02882309F4D7C0B9
:1006F000CC3CFCE5DF0709F423C108F071C0C43C21
:100700009CE5D90709F4F5C008F048C0C531FCE5FF
:10071000DF0728F5C2308CE5D80708F06EC1C11597
:100720009CE5D90709F4B6C0C130DC4509F4BEC068
:1007300081E080933B0180933C01C801DF91CF9120
:100740001F910F91FF900C94C902CE010E948B1B48
:10075000F82EC3CFCE010E94B61BBE01C0CFC23C53
:10076000FCE5DF0709F4B3C008F0B8C0C631DC45CA
:10077000F9F60E944B1CF8019281992309F428C2D2
:100780008A7A91E009F490E09093360181111EC2BB
:1007900089E20E94261C0E949A1C81C0F801828175
:1007A000C83CFCE5DF0709F4B9C068F4C63CECE5D9
:1007B000DE0709F4AEC008F4A7C0882309F46FC0AF
:1007C0000E943C0C6CC0CA3C9CE5D90709F4B2C03D
:1007D00008F4AAC0882309F462C00E94B90A5FC065
:1007E000C43DFCE5DF0709F4F1C040F5F801828162
:1007F000C03DFCE5DF0709F4BFC0A8F4CE3CECE542
:10080000DE0709F4ACC008F4A3C0882309F447C08C
:100810000E94B00A863028F00E94B00A883008F49E
:1008200070C086E099C0C23D9CE5D90709F4C0C0FC
:1008300008F4B0C0882399F188E18EC0C93DFCE579
:10084000DF0709F4A8C188F4C73D9CE5D90709F47E
:1008500058C108F07DC1C53DDC4509F069CFF801FC
:1008600082818823E1F083E277C0CD3D8CE5D80713
:1008700009F4BCC0CE3D9CE5D90711F1CC3DDC4567
:1008800009F056CFF8018281882349F080E00E9468
:10089000952505C0F801828181110E94450380E001
:1008A000DF91CF911F910F91FF900895F801828100
:1008B0008823A9F380911D02816080931D02EFCFF0
:1008C000F8018281882359F30E948A1DE8CFF8013C
:1008D0008281882321F30E94610DE1CFF80182819A
:1008E0008823E9F20E944B1C827259F00E94FD0C91
:1008F000D6CFF8018281882391F20E944B1C82722C
:10090000A9F30E94EF0CCBCF882349F20E94FC0B85
:10091000C6CF882321F20E941F0CC1CF882309F47F
:10092000BECF0E94590CBBCF882309F4B8CF0E94D8
:10093000760CB5CF882309F4B2CF0E94930CAFCFC9
:10094000F8018281882309F4AACF0E94CE0AA7CF9A
:10095000882309F4A4CF81E00E94000DA0CF882352
:1009600009F49DCF0E94B00A823020F00E94B00AA4
:10097000853038F282E0F0CF882309F490CF0E94CE
:10098000B00A893028F00E94B00A8E3008F4B9CF3E
:1009900089E0E2CF882309F482CF0E94B00A8F3029
:1009A00028F00E94B00A843108F4ABCF8FE0D4CF96
:1009B000882309F474CF0E94B00A853128F00E9480
:1009C000B00A873108F49DCF85E1C6CFF801828156
:1009D000882309F464CF0E94B00A893128F00E946C
:1009E000B00A823208F48DCF89E1B6CFF801828156
:1009F000882309F454CF82E04ACFF801828188230A
:100A000009F49BCE0E94FD1C811102C00E948A1D28
:100A10000E941A1D90E09093940280939302FE012D
:100A2000E350FC45809193028160E231F105C8F406
:100A3000E45EFA4F0C94F72D2E053A053E0542056B
:100A400046054A054E05520556055A055E056205DE
:100A500066056A056E05720576057A058091930232
:100A6000826080939302809193020E941E1D0E94D7
:100A70006B1615CF809193028460F3CF809193021F
:100A80008860EFCF809193028061EBCF80919302D9
:100A90008062E7CF809193028064E3CF80919302DC
:100AA0008068DFCF809193028460EACF80919302C7
:100AB0008E7FD7CF809193028D7FD3CF8091930289
:100AC0008B7FCFCF80919302877FCBCF8091930292
:100AD0008F7EC7CF809193028F7DC3CF8091930289
:100AE0008F7BBFCF809193028F77BBCF8091930292
:100AF0008B7FEACF90919302892F97FB87F98058DB
:100B0000B0CFF8018281882361F010923B010E94EE
:100B1000A41E909338018093370182E00E946C13E9
:100B2000BECE80913B0181110FC080913701909121
:100B300038010E94B01E883C910530F486E20E9484
:100B40000D1286E20E94161382E00E947313A7CE54
:100B5000F8018281882351F010923C010E94A41E6A
:100B600090933A018093390180E2D8CF80913C0183
:100B700081110FC08091390190913A010E94B01EFD
:100B8000883C910530F487E20E940D1287E20E94B2
:100B9000161380E2DACFF80182818111DDCF8091D6
:100BA0003C018111F6CF8091390190913A010E9468
:100BB000B01E883C910568F780E20E94731388E2BA
:100BC0000E940D1288E20E94161369CE85E3E1CDE2
:100BD00080913601811104C089E20E942D1CDBCD79
:100BE00085E3FBCF90E080E008950895972F70E0B3
:100BF0002FE0929F600D711D1124FB019BE4899FE2
:100C0000E00DF11D1124EE0FFF1FEC50FF4F8591F9
:100C100094910895FC01EE0FFF1FEE50FF4F859158
:100C200094910895CF93DF930E94F6050E940008E7
:100C3000EC018115914508F04BC0C11580E5D8073E
:100C400008F036C1C83ED10510F5C03ED10580F58B
:100C5000C83AD10570F4C53AD10508F0B4C0C13026
:100C6000D10531F118F0C430D10510F5D0E0C0E065
:100C70001FC0CF3BD10508F4B1C0CE01805C910903
:100C8000C03CD10598F30E940A06EC0111C0C115C1
:100C900020E3D20788F4C11580E2D80708F0FFC02E
:100CA000C03FD10518F3CF3FD10509F008F4F5C0D6
:100CB000CE01DF91CF910895C11520E4D20708F04D
:100CC000F4C0CE019927D3FFEDC0EC01D86CF0CF72
:100CD000C11589E5D80768F5C11528E5D20708F0E0
:100CE00030C1C11584E5D80778F4C11523E5D207D2
:100CF00008F00EC1C11582E5D80708F0F5C0DC2F59
:100D0000CC27C16FD06AD4CFC11525E5D20708F42E
:100D100013C1C11586E5D80708F0A8CF8C2F0E9413
:100D20008008C82FD0E0DC2FCC27CC27DF71D06221
:100D3000BFCFCD3B2CE5D20709F40EC1F0F4CB3B7D
:100D40002CE5D20709F402C108F003C1C1152AE558
:100D5000D20708F08BCF8C2F8F700E94800834E070
:100D6000D695C7953A95E1F7CF70D0E0DC2FCC2728
:100D7000D06A8F70806EC82B9BCFC03C8CE5D807A3
:100D800009F4F0C060F4CE3B8CE5D80709F4E7C065
:100D9000CF3BDC4509F06ACFC0E0D2ED89CFCE0170
:100DA00090568115904208F061CF8D2F8F710E946F
:100DB0008008DD27D06290E0982F882788279F71D0
:100DC000C82BD92B75CFC53AD10509F4CEC0C63A88
:100DD000D10509F4CDC0C3E8D0E46ACFC83AD10543
:100DE00009F4C9C0C93AD10509F4C8C0CA3AD10545
:100DF00009F4C7C0CB3AD10509F4C6C0CC3AD10535
:100E000009F4C5C0CB3BD10509F4C4C0CC3BD10526
:100E100009F4C3C0CD3AD10509F4C2C0C03BD10525
:100E200009F4C1C0CE3AD10509F4C0C0CF3AD1050A
:100E300009F4BFC0C13BD10509F4BEC0C23BD10516
:100E400009F4BDC0C33BD10509F4BCC0C43BD10506
:100E500009F4BBC0C53BD10509F4BAC0C63BD105F6
:100E600009F4B9C0C73BD10509F4B8C0C83BD105E6
:100E700009F4B7C0C93BD10509F4B6C0CD3BD105D3
:100E800009F4B5C0CE3BD10509F4B4C0CA3BD105C5
:100E900009F0B3C0CAE2D6E40BCFD06509CFCE01CA
:100EA0009F70F1CEEC01D06C03CFDF70D06A00CF21
:100EB000CE01F4E096958795FA95E1F783709C2F23
:100EC000937021E030E002C0220F331F9A95E2F7C1
:100ED0003C68382BC695C695C37080E2C89FE00178
:100EE0001124C22BD32BE4CECE018370992721E0AD
:100EF00030E002C0220F331F8A95E2F7C695C695EF
:100F000080E2C89FE0011124C22BD32BDC68D0CE35
:100F1000CE018370992721E030E002C0220F331FF9
:100F20008A95E2F7C695C69580E2C89FE001112434
:100F3000C22BD32BDA68BCCEDC2FCC27C46FD06A8F
:100F4000B7CEDC2FCC27C06FD06AB2CEC0E0D4EDD4
:100F5000AFCEC0E0D5EDACCEC0E0D1EDA9CEC0E0C3
:100F6000D0EDA6CEC0E0D3EDA3CEC1E8D0E4A0CEB4
:100F7000C2E8D0E49DCEC2EED4E49ACEC9EED4E469
:100F800097CECAEED4E494CEC5EBD4E491CEC6EBB2
:100F9000D4E48ECEC3EBD4E48BCEC4EBD4E488CEC1
:100FA000C7EBD4E485CECCECD4E482CECDECD4E453
:100FB0007FCEC3E8D5E47CCECAE8D5E479CEC2E9D9
:100FC000D5E476CEC4E9D5E473CEC1E2D6E470CEE2
:100FD000C3E2D6E46DCEC4E2D6E46ACEC5E2D6E47E
:100FE00067CEC6E2D6E464CEC7E2D6E461CECFE6F1
:100FF000D4E45ECEC0E7D4E45BCEC0E0D4E458CE07
:101000008238910549F1B0F48133910509F45CC04F
:1010100048F48932910509F452C08A32910509F4E5
:1010200058C008958533910509F444C0893391056A
:1010300099F00895833E910531F138F4803E910591
:1010400091F0823E9105B1F00895863E910511F12F
:10105000873E910541F10895209193022370C9F0D4
:1010600080EE90E008952091930220FF12C089E362
:1010700090E008952091930222FF0BC024FF2EC020
:1010800090E080E008952091930222FD2AC024FD83
:10109000F7CF08952091930223FFFBCF24FDF0CFDB
:1010A00087EE90E008952091930223FFF0CF86EE23
:1010B00090E008952091930225FD16C00895209197
:1010C000930225FD14C008952091930226FD12C0BD
:1010D00008952091930226FD10C0089583EE90E0BC
:1010E000089582EE90E0089589E290E0089585E306
:1010F00090E008958AE290E0089581E390E0C9CFFE
:101100009091930292FF06C0282F2871283069F42D
:10111000877F846093FF06C0282F2871283161F4EF
:10112000877E846194FD877E0895282F2471243062
:1011300089F78B7F8860EECF282F2471243191F7B7
:101140008B7E8861EFCF0895CF93DF93A0E3B1E06A
:1011500025E331E061E070E09D91E92FE295EF70C9
:10116000F0E041A19F70EB0102C0CC0FDD1F9A950A
:10117000E2F7CE018095842381A32A173B0761F70C
:10118000A1E2B1E061E070E08D91E82FE295EF70AF
:10119000F0E041A18F709B0101C0220F8A95EAF710
:1011A000922F9095942391A382A1822B82A3D1E0C8
:1011B000A033BD0749F710924801109247011092E1
:1011C0003E0110923D0110924A0110924901109285
:1011D000400110923F0110924C0110924B0110926D
:1011E00042011092410110924E0110924D01109255
:1011F0004401109243011092500110924F0110923D
:1012000046011092450185E00E94A709DF91CF9128
:101210000C9438036F927F929F92AF92BF92CF92BD
:10122000DF92EF92FF920F931F93CF93DF93A7E488
:10123000B1E090E3692E91E0792E20E0EE24E39472
:10124000F12CAD90BC90119711961C921E92E30167
:1012500089913E01E82FE295EF70F0E091A18F7047
:10126000B70101C0660F8A95EAF7892F862B81A303
:1012700082A1962E9094892182A3D0EADA95F1F783
:1012800081E2C82E81E0D82E50E040E0E60139919D
:101290006E01032F02950F7010E0E80188A10D91F7
:1012A0001C91119790E03F7002C0959587953A95F3
:1012B000E2F780FD3FC0C701042E02C0880F991FCE
:1012C0000A94E2F7082B192B11961C930E934F5F8B
:1012D0005F4F4F305105D1F681A1892181A382A1B1
:1012E000682B62A381E04D915C9111974A155B05D3
:1012F00009F480E0282B1296D5E36D16D1E07D0627
:1013000009F09FCF45E06DE371E087E491E00E9432
:10131000A8090E94CF0281E0DF91CF911F910F9128
:10132000FF90EF90DF90CF90BF90AF909F907F9015
:101330006F90089590E080E0C5CFE82FF0E0EE0FC9
:10134000FF1FE35CFE4F8081918108950895089509
:10135000FF920F931F93CF93DF93F82E092F162F31
:10136000D72FC42F222349F081E0809353010E949C
:10137000A41E9093520180935101809153018823C0
:10138000A1F080915101909152010E94B01E0697E8
:1013900060F0EF2DF02FA12FBD2F90E080E0D0E086
:1013A0008C179D0744F010925301DF91CF911F914C
:1013B0000F91FF900895219131912D933D930196C6
:1013C000EFCFCF92DF92EF92FF920F931F93CF93C5
:1013D000DF93E901662309F466C0E42EF12CEFEFF8
:1013E000F0E0E61BF109EE9D8001EF9D100DFE9DE2
:1013F000100D1124212FE12FFF27EE1AFF0A5CE3C5
:10140000C52ED12CB6010E94AD2DFB01BC01E69E7C
:10141000C001E79E900DF69E900D1124B6010E942A
:10142000AD2DE230F10589F168F4812F262F210FCF
:10143000309781F0242F461B319761F080E020E047
:1014400040E008C0E430F10551F128F1842F861BFB
:101450003597A1F7E42FF0E0E45CFD4F4491E22FD3
:10146000F0E0E45CFD4F9491E82FF0E0E45CFD4F88
:10147000E49149839883EA83DF91CF911F910F9183
:10148000FF90EF90DF90CF900895862F810FE42F8B
:10149000412F2E2FDFCFE42FE61B842FF9CF842F8F
:1014A000462F410FD7CF842F242FD4CF80914C02C9
:1014B000982F9E7739F58178826080934C02309125
:1014C0004C02432F441F4427441F20914D02522FAA
:1014D000550F852F842B27FB992790F9893641E0FA
:1014E000940778F068E671E00E94C12D80FB37F91F
:1014F00030934C0286952078282B90FB27F9209377
:101500004D020895982F96959F739532C0F2817879
:101510008864D3CF88E090E00C942C2ECF92DF9299
:10152000EF92FF926B017C010E94560AB701A6015F
:1015300088E090E0FF90EF90DF90CF900C944A2EDF
:10154000ECE4F2E083E0808310924D028FEF82831F
:101550008383148260817181828193810C948E0ACD
:1015600080914C0280FF03C086958F73089580E0C0
:1015700008958091500290E001968430910514F016
:1015800083E090E08093500260914C0270914D0294
:1015900080914E0290914F020C948E0A80915002DD
:1015A0008150990B97FF02C090E080E08430910554
:1015B00014F083E090E08093500260914C027091AF
:1015C0004D0280914E0290914F020C948E0A8091B0
:1015D000710123E0829FC00111248F5A9D4F6091B9
:1015E000020170E020914C02E1E5F2E020FD0C9454
:1015F0009510118210821282339622E0ED38F207A4
:10160000C1F7F5CF90914C0290FF0CC0E1E5F2E0FC
:10161000818360834283339692E0ED38F907C1F706
:101620000C94E70A0895CF93DF9300D01F92CDB7B3
:10163000DEB720914C0220FF0AC09E012F5F3F4F72
:101640000E94E1094B8169818A810E94020B0F90FF
:101650000F900F90DF91CF9108955F926F927F92DC
:101660008F929F92AF92BF92CF92DF92EF92FF92B2
:101670000F931F93CF93DF9300D01F92CDB7DEB7A8
:101680008C01E62EF42E522E80914C0280FF2FC04A
:10169000982F9E779230F1F59E012F5F3F4FC80142
:1016A0000E94E1094B8169818A810E94020B80912D
:1016B0004C0200FB87F980934C02902F9695809105
:1016C0004D028078892B10FB87F980934D02E092C0
:1016D0004E02F0924F02552051F060914C027091F1
:1016E0004D0280914E0290914F020E948E0A0F90FF
:1016F0000F900F90DF91CF911F910F91FF90EF907E
:10170000DF90CF90BF90AF909F908F907F906F9021
:101710005F900895E82FE695EF739EE39E0F9F7309
:10172000943018F4F0904F02C2CF9AE39E0F9F734B
:10173000993068F4881F8827881F90914D02292FBF
:10174000220F022F082B97FB112710F9B0CF87E249
:101750008E0F8F738A3008F0AACFE951FF0B2FEF5D
:10176000E0FF21E0EE7FEE5CFD4F8591949164E116
:1017700070E00E94AD2D26034001279F900C11249C
:10178000580188E9A81A8EEFB80A81E5C82E82E0D0
:10179000D82E98E6692E77247394C501B3010E9470
:1017A000AD2D96014F2D6E2D0E94E109A80CB91C9C
:1017B00083E0C80ED11C8DE8C81682E0D80669F710
:1017C0000E94E70A74CF282FECE4F2E03081331F47
:1017D0003327331F40914D02542F550F852F832BF4
:1017E00047FB992790F90A9668E671E00E94C12D9F
:1017F000438162810C942D0B81E00C94E30B282F24
:1018000030914C02331F3327331F40914D02542F28
:10181000550F852F832B47FB992790F98A30910527
:1018200040F4825A9E4F40914F0260914E020C94B8
:101830002D0B0A9768E671E00E94C12DF4CF81E07C
:101840000C94FF0B60914E02613FA0F4615F3091F8
:101850004C02331F3327331F90914D02592F550FE0
:1018600097FB992790F9282F40914F02852F832BC2
:101870000C942D0B6FEFEBCF81E00C94220C609158
:101880004E026F30A0F06F5030914C02331F33275F
:10189000331F90914D02592F550F97FB992790F9BF
:1018A000282F40914F02852F832B0C942D0B60E045
:1018B000EBCF81E00C943F0C40914F02413FA0F4EC
:1018C000415F30914C02331F3327331F90914D02FB
:1018D000592F550F97FB992790F9282F60914E02A9
:1018E000852F832B0C942D0B4FEFEBCF81E00C94C5
:1018F0005C0C40914F024F30A0F04F5030914C02A1
:10190000331F3327331F90914D02592F550F97FBEB
:10191000992790F9282F60914E02852F832B0C94E4
:101920002D0B40E0EBCF81E00C94790C21E00C947E
:101930002D0B20E00C942D0BCF9390914C0290FF37
:1019400040C09178811131C0926090934C0266231F
:1019500051F060914C0270914D0280914E02909135
:101960004F020E948E0AC0914C026C2F66956F73D5
:1019700070E04BE050E083E091E00E94172E892B4D
:10198000E1F010927201CC1FCC27CC1F90914D0238
:10199000892F880F97FB992790F940914F0260910A
:1019A0004E028C2BCF910C94990C853210F09864D8
:1019B000CCCF8F73880F982BC8CF81E080937201B2
:1019C000E2CFCF910895682F90914C0296959F7326
:1019D00081E0890F853208F081E00C949C0C81E055
:1019E0000C94E30C682F90914C0296959F738FEFA7
:1019F000890F09F484E20C949C0C81E00C94F20CA5
:101A000061E00C949C0CECE4F2E0808181608083C6
:101A100086958F730C94000D60E00C949C0C809163
:101A20007301811135C080911D02816080931D0278
:101A30000E94FD1C811104C00E948A1D0E94A00A00
:101A40000E948A0A60934C0270934D0280934E026A
:101A500090934F026E7761F40E94A00A0E948A0A56
:101A600060934C0270934D0280934E0290934F020C
:101A70000E94560A81E08093720180914C0280FF9F
:101A800004C086958F730E940C0D81E080937301D2
:101A90000895ECE4F2E080818E7F80836081718123
:101AA000828193810E948E0A109272012FEF80E74B
:101AB00092E0215080409040E1F700C000000C947B
:101AC000E70A80914C0280FD0C94490D0C94030DA3
:101AD000CF93E82FF0E0E25DFD4FC49180916F015C
:101AE000909170010E94B01EC817190611F008F0FD
:101AF00042C00E94A41E9093700180936F01609178
:101B00006E0170E090E080E00E949E2B20E030E0CB
:101B10004FE753E40E94C12A2BED3FE049E450E433
:101B20000E94C72C0E94342D0E943B2B2BE43AE3E9
:101B30004EE25FE30E94542A20EF3BEF48ED52E46F
:101B40000E94C72C0E946D2B462F80914C02881F4B
:101B50008827881F90914D02292F220F97FB9927E4
:101B600090F960914E02822B0E94130B80916E01BE
:101B70008F5F80936E01CF910895CF93E82FF0E0AF
:101B8000E55DFD4FC49180916C0190916D010E94C3
:101B9000B01EC817190609F0E8F40E94A41E90931D
:101BA0006D0180936C0140914F0260914E028091D3
:101BB0006A0190916B010E94130B80916A019091D0
:101BC0006B01019668E671E00E94AD2D90936B0168
:101BD00080936A01CF910895CF92DF92FF920F9385
:101BE0001F93CF93DF93F82EE82FE695F0E0E85DA2
:101BF000FD4FC49180916801909169010E94B01ECF
:101C0000C817190609F0A8F50E94A41E909369014F
:101C10008093680101E512E0D0E0C0E088E6C82EBC
:101C2000DD24D39480916601909167018C0F9D1FF4
:101C3000B6010E94AD2D980140914F0260914E0275
:101C40000E94E10962960D5F1F4FC83681E0D807F8
:101C500049F70E94E70A8091660190916701F0FEC2
:101C600010C00196BE010E94AD2D90936701809334
:101C70006601DF91CF911F910F91FF90DF90CF9080
:101C800008950197F2CFCF92DF92EF92FF920F93D8
:101C90001F93CF93DF93FF24FA9480FD02C0FF24AB
:101CA000F3948695E82FF0E0EB5DFD4FC4918091B1
:101CB0006401909165010E94B01EC817190611F0C9
:101CC00008F051C00E94A41E9093650180936401A6
:101CD00001E512E0D0E0C0E0F8011182108212822A
:101CE00094E0C92ED12CE12C809163018E0D87FDEB
:101CF0008C5E082E000C990BC817D907E9F4809167
:101D00004F028C9DA0018D9D500D11245595479536
:101D10005595479580914C02881F8827881F909180
:101D20004D02592F550F97FB992790F99801609113
:101D30004E02852B0E94E109EF0CF1E0CF1AD10889
:101D400099F621960D5F1F4FC431D10529F60E94E7
:101D5000E70A8091630191E0F91210C081110CC073
:101D600083E180936301DF91CF911F910F91FF90E9
:101D7000EF90DF90CF9008958150F3CF90E00196DF
:101D8000BE010E94C12DEDCF0F931F93CF93DF9320
:101D9000E82FF0E0EE5DFD4FC491809161019091DC
:101DA00062010E94B01EC817190611F008F052C057
:101DB0000E94A41E9093620180936101C1E5D2E06C
:101DC000FE01118210821282339682E0ED38F8070C
:101DD000C1F710E000E080916001082E000C990B23
:101DE00008171907E4F180910101082E000C990BE6
:101DF00080179107A4F180914C02881F8827881FC3
:101E000090914D02592F550F97FB992790F99E01FC
:101E100040914F0260914E02852B0E94E1090F5FB5
:101E20001F4F239604311105B1F60E94E70A8091F5
:101E3000000190916001980F909360012091010141
:101E4000280F20930101121614F493311CF0819590
:101E500080930001DF91CF911F910F910895198216
:101E600018821A82DCCFEF92FF920F931F93CF93C9
:101E7000DF9380915E0190915F010E94B01E883EC9
:101E80009340C8F10E94A41E90935F0180935E016D
:101E9000C0915C01D0915D012196C170DD27D09386
:101EA0005D01C0935C0181E5E82E82E0F82E10E030
:101EB00008E7812F86958C0F9D2F911D81709927A2
:101EC000970140914F0260914E02FC010E9FC001AC
:101ED0000F9F900D11240E94E1091F5FF3E0EF0EA8
:101EE000F11C143131F7DF91CF911F910F91FF90C9
:101EF000EF900C94E70ADF91CF911F910F91FF9023
:101F0000EF900895CF93DF9300D01F92CDB7DEB747
:101F100080915A0190915B010E94B01EE0E2F2E0D4
:101F20002591349182179307B8F18091590181115D
:101F30000CC09E012F5F3F4F4FEF6FEF90E080E0AE
:101F40000E94E1098A81809359010E94A41E909306
:101F50005B0180935A0180915801813069F038F01B
:101F600040915901823009F040E080E003C0809147
:101F7000590140E060E004C06091590140E080E018
:101F80000E94020B8091580190E0019663E070E09E
:101F90000E94C12D809358010F900F900F90DF91F8
:101FA000CF9108950F931F93CF93DF9380915601A4
:101FB000909157010E94B01E843F9140D8F10E9439
:101FC000A41E9093570180935601C1E5D2E010E022
:101FD00000E0409154015091550160914E02809172
:101FE0004C02282F221F2227221F90914D02892F59
:101FF000880F822B97FB992790F90A301105FCF482
:10200000452BF9F09E0140914F020E94E1090F5FBC
:102010001F4F239604311105E1F60E94E70A8091D3
:102020005401909155010196817099279093550123
:1020300080935401DF91CF911F910F910895452B0B
:1020400009F39E0140E0E1CF809172018823D1F134
:1020500090914C02892F86958F732EE3280F2F7352
:10206000243018F482500C94680D2AE3280F2F7343
:10207000233018F486500C94BD0D27E3280F2F73DE
:10208000263018F489500C94EC0D21E3280F2F739F
:10209000263018F48F500C94430E2BE2280F2F7328
:1020A000233018F485510C94C40E9E77903311F4AC
:1020B0000C94330F963411F40C94820F983411F46D
:1020C0000C94D20F089531B3242F2095232331B3DC
:1020D000432B3FB7F894FC01680F791FE617F70709
:1020E00011F43FBF0895819198E041BB000000C00A
:1020F00087FF21BB880F000000C000C000C021BBCB
:1021000000C09A9591F7EACF20B3242B20BB9B0106
:10211000220F331F620F731F0E94631087EC90E041
:102120000197F1F700C00000089540E20C9484107C
:1021300090937901809378010895E0917801F0916E
:102140007901309721F00190F081E02D099480E031
:102150000895E0917801F0917901309799F02091FC
:102160002001222359F02091930227FF07C0DC01B0
:102170002C9111962C93119725E02C930280F381DA
:10218000E02D09940895E0917801F091790130975C
:1021900039F022E0DC012C930480F581E02D0994D4
:1021A000089520917601309177012817390771F051
:1021B0009093770180937601E0917801F091790115
:1021C000309721F00680F781E02D09940895209141
:1021D0007401309175012817390771F090937501DA
:1021E00080937401E0917801F0917901309721F0AA
:1021F0000084F185E02D0994089585B7806885BF36
:1022000085B7806885BF0895089508950C940411DA
:1022100008950C9408110E94FD100E9405110C9461
:10222000061181E008950E949B1E0E94A4080E944E
:102230006F1F0E9489220E940F0D0C9409115F925A
:102240006F927F928F929F92AF92BF92CF92DF92C6
:10225000EF92FF920F931F93CF93DF93CDB7DEB72B
:102260002A970FB6F894DEBF0FBECDBF0E940A09B1
:102270000E941111882309F47AC09BE7A92E91E0EE
:10228000B92E10E000E088248394912C502E802FEA
:102290000E949D097C01F501C190D1905F01C81693
:1022A000D90609F45EC080911D0281FD0E94A60935
:1022B00090E080E0CE24DF243401082E02C0660CBA
:1022C000771C0A94E2F7960126213721232B09F483
:1022D00043C08E835F82E620F72081E0EF2809F477
:1022E00080E088870E94A41E8160782F9A87898762
:1022F0004E815F8168858A850E94DE11000F111F63
:10230000F801E558FE4F8081918168267926718217
:1023100060820E94F2210E949D1090917A0189179B
:10232000B9F10E949D1080937A012A960FB6F89415
:10233000DEBF0FBECDBFDF91CF911F910F91FF90F8
:10234000EF90DF90CF90BF90AF909F908F907F9055
:102350006F905F900C94420301968F30910509F0C5
:10236000ABCF0F5F1F4F0530110509F08FCF8FEFF7
:1023700089838A831B820E94A41E8160782F9D839B
:102380008C8349815A816B818D810E94DE11C1CF7E
:102390002A960FB6F894DEBF0FBECDBFDF91CF9166
:1023A0001F910F91FF90EF90DF90CF90BF90AF9073
:1023B0009F908F907F906F905F900895CF93DF9361
:1023C000CDB7DEB72B970FB6F894DEBF0FBECDBFEB
:1023D0004F83588769877A878B871E821D8285E0A5
:1023E000FE013796DE01119601900D928A95E1F774
:1023F00049815A816B817C818D819E812B960FB69C
:10240000F894DEBF0FBECDBFDF91CF910C942D1994
:10241000FC01808191810C94F81B882309F405C18B
:102420008238B9F40E949D1081FDFFC089E30E94AB
:10243000261C0E949A1C2FEF81EE94E021508040D0
:102440009040E1F700C0000089E30E942D1C0C942D
:102450009A1C8338A1F40E949D1080FDE6C083E59C
:102460000E94261C0E949A1C2FEF81EE94E02150BE
:1024700080409040E1F700C0000083E5E6CF84385B
:10248000A1F40E949D1082FDD0C087E40E94261C0A
:102490000E949A1C2FEF81EE94E0215080409040E2
:1024A000E1F700C0000087E4D0CF9CEF980F913A8D
:1024B00018F40E94261CCBCF90E2980F983050F46D
:1024C000877091E001C0990F8A95EAF7892F0E94E1
:1024D0004E1CBDCF9BE5980F933070F4853A31F0D8
:1024E000863A39F083E890E00C94D11081E890E0CE
:1024F000FBCF82E890E0F8CF98E5980F973108F08D
:102500008EC0883A09F446C0893A09F446C08A3A2E
:1025100009F446C08B3A09F446C08C3A09F446C027
:102520008B3B09F446C08C3B09F446C08D3A09F454
:1025300046C0803B09F446C08E3A09F446C08F3A43
:1025400009F446C0813B09F446C0823B09F446C009
:10255000833B09F446C0843B09F446C0853B09F43B
:1025600046C0863B09F446C0873B09F446C0883B19
:1025700009F446C0893B09F446C08D3B09F446C0C6
:102580008E3B09F446C08A3B09F446C090E080E0E7
:102590000C94E71082EE90E0FBCF89EE90E0F8CF4C
:1025A0008AEE90E0F5CF85EB90E0F2CF86EB90E0FD
:1025B000EFCF83EB90E0ECCF84EB90E0E9CF87EBBB
:1025C00090E0E6CF8CEC90E0E3CF8DEC90E0E0CFB4
:1025D00083E891E0DDCF8AE891E0DACF82E991E00B
:1025E000D7CF84E991E0D4CF81E292E0D1CF83E2EA
:1025F00092E0CECF84E292E0CBCF85E292E0C8CFEA
:1026000086E292E0C5CF87E292E0C2CF8FE690E00B
:10261000BFCF80E790E0BCCF8AE292E0B9CF803FA5
:1026200020F00E94FB200C94E7210895882309F4F0
:1026300052C0823871F40E949D1081FF4CC089E322
:102640000E94261C0E949A1C89E30E942D1C0C9457
:102650009A1C833859F40E949D1080FF3CC083E58A
:102660000E94261C0E949A1C83E5EFCF843859F4FF
:102670000E949D1082FF2FC087E40E94261C0E94AA
:102680009A1C87E4E2CF9CEF980F913AF0F290E227
:10269000980F983050F4877091E001C0990F8A9597
:1026A000EAF7892F0E94541CD2CF9BE5980F9330F4
:1026B00020F490E080E00C94D11098E5980F9731C9
:1026C00020F490E080E00C94E710803F20F00E941E
:1026D00063210C94E7210895882321F00E944E1C69
:1026E0000C949A1C0895882321F00E94541C0C9489
:1026F0009A1C08958F929F92AF92BF92DF92EF92B1
:10270000FF920F931F93CF93DF937C01D62FC72F98
:10271000FC01058102950F70128111110E946D1C40
:102720000E94441CD82E882371F0112331F180E2DD
:102730008D0F883010F182E00E94E51C0E94441C3D
:1027400091E0D82ED926BC2EB2949FE0B922EB2D71
:10275000F0E0E355FC4E0C94F72DBF13BF130F149C
:102760000F1456147E145D145D14C0145D145B15B3
:102770005B15E515EE155D141116D12CE4CF0C2F69
:102780000F70C07F11F00295007F1123A9F0002384
:1027900059F080E28D0F883010F0D11109C0802FE0
:1027A0000E944E1C0E949A1C8D2F0E940D1214C074
:1027B000802F0E945F1CF6CF8D2F0E9416130023DE
:1027C00059F080E28D0F883010F0D11124C0802F95
:1027D0000E94541C0E949A1CDD2009F429C20E9408
:1027E000401C80FD25C2F70112820E943A1C0E9403
:1027F000C01AC7010E9424160E943A1CDF91CF9193
:102800001F910F91FF90EF90DF90BF90AF909F903E
:102810008F900C94E11A802F0E94651CDBCFFC2F57
:10282000FF70BF2EC07FC03219F0B29480EFB82283
:10283000DD2369F0D13049F1112391F1002351F1E9
:10284000F701858180FFB0CF8F70858323C011236E
:1028500081F0011106C00E94811C8B290E946C131B
:10286000BBCF0130C1F70E94811C8B290E94871CBD
:10287000B3CF011106C00E94901C8B2D0E947313D0
:10288000ABCF013009F4A8CFF6CF112329F00630E1
:1028900008F0A2CF8B2DE2CF053008F09DCFEDCF11
:1028A000002359F38D2F0E94161396CF8C2F8695F7
:1028B0008695837079F08130B9F098E0B91609F403
:1028C0009BC0B91608F488CF86EF8B0D823008F4D0
:1028D00093C082CF8D2F9C2F9370111102C090E076
:1028E00080E00E94D11078CF8D2F9C2F9370111112
:1028F00002C090E080E00E94E7106ECF112309F142
:10290000D53F99F0D63FB9F0D43F49F480918D027C
:1029100090918E02816090938E0280938D028D2F14
:102920000E94FB200E94E72157CF80918D02909159
:102930008E028260F0CF80918D0290918E02846031
:10294000EACFD53F89F0D63FA9F0D43F49F4809132
:102950008D0290918E028E7F90938E0280938D02D5
:102960008D2F0E946321DECF80918D0290918E0287
:102970008D7FF2CF80918D0290918E028B7FECCF74
:102980008C2F837009F04BC0111136C02D2F22956A
:1029900026952770220F220F6D2F6F70862E912C97
:1029A000B12CA12C022E04C0880C991CAA1CBB1CA3
:1029B0000A94D2F760E070E0CB01D4FF0FC06FE063
:1029C00070E080E090E004C0660F771F881F991FB9
:1029D0002A95D2F76095709580959095C695C69585
:1029E000C370C23071F0A0F4682979298A299B2923
:1029F000C13091F00E94721A0E949D100E94420301
:102A0000EBCE682979298A299B290E94841AF4CF60
:102A10000E94721AC501B4010E94601AEDCF86951A
:102A2000112311F08C2F8170882331F32D2F2295E3
:102A300026952770220F220F6D2F6F70862E912CF6
:102A4000B12CA12C022E04C0880C991CAA1CBB1C02
:102A50000A94D2F760E070E0CB01D4FF0FC06FE0C2
:102A600070E080E090E004C0660F771F881F991F18
:102A70002A95D2F76095709580959095C695C695E4
:102A8000C370C23051F080F4682979298A299B29C2
:102A9000C13071F00E94371BAFCF682979298A298C
:102AA0009B290E94491BA8CF0E94371BC501B40176
:102AB0000E94251BA1CFE0E2ED0FE53108F066C0D2
:102AC000F0E0EB59FA4E0C94F72D7A157A157A1539
:102AD0007A157A157A157A157A157A157A157A157E
:102AE0007A157A157A157A157A158B159915A01518
:102AF000A715B115DF708C2F8F71112331F00E9453
:102B0000C01A8D2F0E946C13D8CE0E94E11A8D2F0F
:102B10000E947313D2CE112341F0053008F0CDCEC0
:102B20008C2F8F710E94041BC8CE063008F0C5CED2
:102B3000F7CF8C2F8F71112339F00E94C01ABDCEB0
:102B40008C2F8F711123C9F30E94E11AB6CE112385
:102B500029F08C2F8F710E94AB1AAFCE0E94A61A5B
:102B6000ACCE112349F0CF718C2F0E94C01A63E0C4
:102B70008C2F0E94D01CA1CE81E00E94E51C023067
:102B800008F49BCE82E00E94E51C97CE112349F009
:102B9000002321F08D2F0E940D128FCE8C2F8F716C
:102BA000CCCF002379F0D93349F4FFEF27EE83E04F
:102BB000F15020408040E1F700C000008D2F0E94BE
:102BC00016137BCE8C2F8F71BFCF4C2F4F706D2F74
:102BD000C7010E94F2050E94D619FECD1111FCCD4D
:102BE000CF70C230B1F040F4CC2381F0C13009F095
:102BF00064CE0E94BA22F0CDC43089F068F080E043
:102C0000C53009F05ACE0E942023E6CD0E94A222B0
:102C1000E3CD0E94F622E0CD0E94FD22DDCD86E0CC
:102C2000F2CF4C2F4F706D2FC7010E94F505D4CD08
:102C3000DF91CF911F910F91FF90EF90DF90BF90A8
:102C4000AF909F908F9008950F931F93CF93DF9332
:102C5000EC01988189812B813C81232B39F08F3FB6
:102C600019F481E09F3F19F080E001C081E080FD10
:102C700017C0CE010E945403882391F068817981A6
:102C80008A810E94021C8C010E945B1B0E945D1ABB
:102C9000B801CE01DF91CF911F910F910C947A135F
:102CA000DF91CF911F910F9108950E946D1C0E949A
:102CB0007E1C0E949A1C0E947D220E94E72190E0C7
:102CC00080E00E94D11090E080E00C94E7100E9418
:102CD000341C0C9455160E945C1C0C946716E92F4A
:102CE000E295EF70E250EE30E0F4F0E0E658F94E95
:102CF0000C94F72D88168816911691169316911636
:102D0000911691168816881698169116911698168F
:102D1000803F19F020F4803E20F481E00895843F44
:102D2000E1F380E00895803EC0F3813FD1F7F5CF15
:102D300093FB882780F908950E94F81B0C946F1666
:102D4000CF93DF9300D000D01F92CDB7DEB70F90A6
:102D50000F900F900F900F90DF91CF910895CF9328
:102D6000DF9300D000D000D0CDB7DEB726960FB6E7
:102D7000F894DEBF0FBECDBFDF91CF9108951F93B2
:102D8000CF93DF93C091860116E0809187018C1369
:102D900004C0DF91CF911F910895D0E01C9FF001F6
:102DA0001D9FF00D1124E857FE4F40815181628133
:102DB0007381848195810E94AF162196C770E5CFFB
:102DC0004091B8015091B9016091BA017091BB0175
:102DD0008091BC019091BD010C94AF161F93CF93CD
:102DE000DF938091BD01807FD1F48091BA01882367
:102DF000B1F080918601D0918701B091B801C09166
:102E0000B9014091BB015091BC01A1E0BF3F09F065
:102E1000A0E0BA016095709516E0D81304C0DF9168
:102E2000CF911F91089521E04115510521F02A2FDE
:102E3000CF3F09F020E090E020FD38C0189FF0015E
:102E4000199FF00D1124E857FE4F21812C132EC03D
:102E500020812B132BC02281211128C02381348192
:102E60002417350700F1241B350B283C3105F0F4FD
:102E70002091BD012F7020612093BD0126E0289F85
:102E8000F001299FF00D1124E357FE4F80818F70D0
:102E90008061808388EB91E00E942416DF91CF91BE
:102EA0001F910C94BF16260F371FDFCF0196877036
:102EB000B4CFAF92BF92CF92DF92EF92FF920F9377
:102EC0001F93CF93DF93CDB7DEB761970FB6F8941A
:102ED000DEBF0FBECDBF8C0185E0F801DE011D967F
:102EE00001900D928A95E1F7D8014C9111965C9171
:102EF00011971296EC903091B8016091B9018091D0
:102F0000BB019091BC0121E0009731F06F3F19F4B3
:102F100021E03F3F09F020E0B22FB170BB2E20FD31
:102F200080C1F801C380D480A090BA01AA2009F41E
:102F300027C1C816D906D0F1D601A81BB90BCD01FF
:102F4000FF24F394883C910508F0F12C8091BD0199
:102F5000982F907FFF2009F4CEC0911187C0FE2CDE
:102F6000651329C0341327C0E11025C08F7080611C
:102F70008093BD010E94E01688EB91E00E94241628
:102F80008091BD01F80185838F2D61960FB6F8946D
:102F9000DEBF0FBECDBFDF91CF911F910F91FF908C
:102FA000EF90DF90CF90BF90AF900895809590956F
:102FB0008C0D9D1DC5CF81E0CD2831F05F3F19F408
:102FC00081E04F3F09F080E080FD24C081E08E2544
:102FD000F82FF170DF2E80FF3FC080918601209195
:102FE000870136E0821318C04D875E878D859E85E8
:102FF0000E94F81B292F22952F70223008F12430CF
:1030000030F59F7009F1D80115969C91907FE1F4FD
:10301000FB2CBACF80E0DCCF90E0389FF001399FE5
:10302000F00D1124E857FE4F6181561306C06081F0
:10303000461303C062816E110FC001968770D2CF14
:103040009F7011F0882321F3805E883008F3C80157
:103050000E942416BD2CDCCFEE2009F495CF809180
:10306000BD0181608093BD01F12C8ECF651314C02A
:10307000341312C0E11010C0F8018583C8010E940A
:10308000241686E0F801A8EBB1E001900D928A9534
:10309000E1F70E94E01678CF4D875E878D859E858B
:1030A0000E949C16882319F1EE2009F18091BD0140
:1030B000803270F02091B8013091B90138872F83A8
:1030C0001986DB86CA868C87CE0107960E94241655
:1030D00086E0F801A8EBB1E001900D928A95E1F746
:1030E0000E94EE160E94E016FF24F3944DCFC80113
:1030F0000E942416F9CF911113C07C2DD98AC88A59
:103100006E2D89890E94A01688EB91E00E942416FA
:1031100086E0E8EBF1E0DF011D928A95E9F7B9CF8F
:10312000651312C0341310C0E1100EC0F80185837E
:10313000C8010E942416E8EBF1E086E0DF011D9251
:103140008A95E9F7FA2C20CF4D875E878D859E857D
:103150000E949C16882359F2EE2049F28091BD010D
:10316000803208F4B5CF2091B8013091B9013A838B
:1031700029831B82DD82CC828E83CE010196A6CF6D
:10318000C816D90638F1F601E81BF90BCF01F12C6E
:10319000883C910508F03DC0FE2CEE2009F4A7CF35
:1031A000651326C0341324C08091BD0180FD17C073
:1031B000982F907FA1F0D80115968C931597903F8A
:1031C00009F45CCF982F907F905F8F70892B1596B4
:1031D0008C9354CF809590958C0D9D1DD8CF86E013
:1031E000F801A8EBB1E001900D928A95E1F7CCCE01
:1031F0004D875E878D859E850E949C16811168CFC4
:103200008091BD0181608093BD01C8010E94241698
:10321000BBCE7C2DD98AC88A6E2D89890E94A016C2
:1032200077CFEE2009F463CF4D875E878D859E852D
:103230000E949C16F82E882309F459CF86E0F801E5
:10324000A8EBB1E001900D928A95E1F788EB91E04F
:103250000E9408120E94EE161CCF1F93CF93DF939B
:10326000CDB7DEB72C970FB6F894DEBF0FBECDBF3B
:103270004F83588769877A878B879C87CE0107960B
:103280000E945917882309F442C09F8188852A85A6
:103290003B85232B39F08F3F19F481E09F3F19F0D4
:1032A00080E001C081E080FD08C04F8158856985BC
:1032B0007A858B859C850E94AF1616E080918601E9
:1032C00090918701891709F467C0819FC00111247B
:1032D00088579E4F0E945917882309F45DC0E091DA
:1032E00086011E9FF0011124E857FE4F4081518155
:1032F00062817381848195810E94AF1680918601DD
:1033000090E001968770992780938601D7CF86E059
:10331000FE013796DE01119601900D928A95E1F734
:103320009F8188852A853B85232B39F08F3F19F4AF
:1033300081E09F3F19F080E001C081E080FDBDCFBA
:103340002091870130E0C90101968770992740914B
:1033500086014817190699F096E0929FD001939F35
:10336000B00D1124A857BE4FFE01319601900D9269
:103370009A95E1F7809387010E94BF169ECF0E9425
:103380006B16109287011092860186E0E8EBF1E05F
:10339000DF011D928A95E9F72C960FB6F894DEBFEF
:1033A0000FBECDBFDF91CF911F910895EF92FF9295
:1033B0000F931F93CF93DF938C01892B81F0F12C16
:1033C000EE24E394E8012196F8018491843770F4A7
:1033D000843008F05FC08130B1F08230A1F1DF911C
:1033E000CF911F910F91FF90EF900895853709F4C9
:1033F0004CC008F43DC09CE7980F903780F78F775A
:103400000E94161349C00E5F1F4FFE01849190E287
:10341000980F983060F48770FE2D01C0FF0F8A95D9
:10342000EAF78F2F0E94701C0E949A1C02C00E9413
:103430000D128F2D815030F2EFE9FFE03197F1F757
:1034400000C00000F7CF0E5F1F4FFE01849190E295
:10345000980F983050F48770FE2D01C0FF0F8A95A9
:10346000EAF78F2F0E94761CDFCF0E941613E1CF60
:103470000E5F1F4FFE01C491C150D8F28FE99FE04B
:103480000197F1F700C00000F7CF0E5F1F4FFE015C
:10349000F490CFCF0E940D128E01CBCF08950C94E3
:1034A0004E1A0E944F1A6093F4017093F5018093B5
:1034B000F6019093F7010C94551608950C94511A47
:1034C0000F931F930091F4011091F5012091F601E3
:1034D0003091F701602B712B822B932B1F910F9151
:1034E0000C94511A0F931F930091F4011091F50160
:1034F0002091F6013091F7016023712382239323F9
:103500001F910F910C94511A0F931F930091F40186
:103510001091F5012091F6013091F7016027712794
:10352000822793271F910F910C94511A0C944E1AD5
:103530000C94961A0E94981A6093F0017093F1010E
:103540008093F2019093F3010C94551660E070E0C3
:10355000CB010C949A1A0F931F9341E050E060E066
:1035600070E08A019B0104C0000F111F221F331F4E
:103570008A95D2F7C901B8011F910F910C949A1A3C
:103580000F931F9341E050E060E070E004C0440FEF
:10359000551F661F771F8A95D2F78091F001909191
:1035A000F101A091F201B091F3018A019B01082B76
:1035B000192B2A2B3B2BC901B8011F910F910C9499
:1035C0009A1A0F931F9341E050E060E070E004C04E
:1035D000440F551F661F771F8A95D2F7CB01BA019A
:1035E00060957095809590950091F0011091F10192
:1035F0002091F2013091F301602371238223932300
:103600001F910F910C949A1A0F931F9341E050E071
:1036100060E070E004C0440F551F661F771F8A9555
:10362000D2F78091F0019091F101A091F201B09157
:10363000F3018A019B01082719272A273B27C90183
:10364000B8011F910F910C949A1A0F931F93009138
:10365000F0011091F1012091F2013091F301602B02
:10366000712B822B932B1F910F910C949A1A0F930D
:103670001F930091F0011091F1012091F20130911E
:10368000F30160237123822393231F910F910C94E4
:103690009A1A0F931F930091F0011091F10120915C
:1036A000F2013091F30160277127822793271F9140
:1036B0000F910C949A1A08952FE0929F800D112477
:1036C000982F977071E001C0770F9A95EAF7869569
:1036D0008695869525E0829FC001112450E040E048
:1036E000A62FB0E0FC01E40FF51FE254FE4F60810D
:1036F0009D01042E02C0369527950A94E2F72170A9
:10370000219526272723262720834F5F5F4F4530AB
:10371000510541F708952FE0929F800D1124982FB5
:10372000977086958695869525E0829FA001112445
:1037300070E060E080E0FA01E60FF71FE254FE4F10
:10374000208130E0092E02C0369527950A94E2F7D1
:1037500021703327062E01C0220F0A94EAF7822B2C
:103760006F5F7F4F6530710531F70895BF92CF923B
:10377000DF92EF92FF920F931F93CF93DF938C0111
:10378000C090F001D090F101E090F201F090F301CF
:103790008091F4019091F501A091F601B091F701AB
:1037A000C82AD92AEA2AFB2ACFE1D0E0BC2ED701C9
:1037B000C6010C2E04C0B695A795979587950A94D7
:1037C000D2F780FD0EC0219788F7B12C8B2DDF91A9
:1037D000CF911F910F91FF90EF90DF90CF90BF900E
:1037E0000895B8018C2F0E941206019761F3EECF65
:1037F000CF93DF93EC010E94B61BBE01DF91CF9106
:103800000C9412061F93CF93DF93EB0190918501E7
:10381000992331F0CB01DF91CF911F910C94F81BCC
:10382000882379F0CB010E94B61B182F682FCE0198
:103830000E945C1BBE01812FDF91CF911F910C94E0
:103840001206CB010E948B1B182FF4CF682F80919A
:103850000E0190910F010C94F01D682F80910E01C4
:1038600090910F010C94FB1D80910E0190910F011E
:103870000C94061E8091F80185958595859508958F
:103880008091F801877008959091F801977081E018
:1038900009F480E0089580911C02089590911C0223
:1038A000892B80931C020895982F909580911C027B
:1038B000892380931C02089510921C020895909110
:1038C0001B02892B80931B020895982F909580915D
:1038D0001B02892380931B02089510921B020895F6
:1038E00090911A02892B80931A020895982F90952F
:1038F00080911A02892380931A02089510921A0265
:1039000008958091F901089508950C94841C909174
:10391000F901981721F08093F9010C94851C089502
:103920008091F901882329F01092F90180E00C942C
:10393000851C0895E0910E01F0910F0180911C0209
:103940008083E0910E01F0910F01808190911B0224
:10395000892B8083E0910E01F0910F01808190917D
:103960001A02892B80839091F901992381F0E091CB
:103970000E01F0910F018081892B808380910E01CF
:1039800090910F010E948C1D81110E94901C8091CA
:103990000E0190910F010C94A91008950C94CD1C68
:1039A00098E0899F90011124622B6093F8010E9496
:1039B000C01A8091F8018595859585950C94CE1C4B
:1039C0001092F80180E00C94CE1C9091F801809543
:1039D00089238093F801282F277071F4282F082E4F
:1039E000000C330B9217130639F085958595859554
:1039F0000E94E11A0C94E01C089590E080E00E947F
:103A0000322E21E08D3E9E4F09F020E0822F089556
:103A100082E090E00C94242E682F82E090E00C94D9
:103A2000382E83E090E00C94242E682F83E090E001
:103A30000C94382E84E090E00C94242E682F84E0BF
:103A400090E00C94382E86E090E00C94242E682FA1
:103A500086E090E00C94382EAB01BC018FE090E042
:103A60000C944A2EAB01BC0183E190E00C944A2EE9
:103A700060E070E0CB010C94321D60E070E0CB019F
:103A80000E942C1D0C94381D6DEE7EEF90E080E0BE
:103A90000E94562E60E082E090E00E94382E60E0A6
:103AA00083E090E00E94382E1092F4011092F5010C
:103AB0001092F6011092F70160E084E090E00E941D
:103AC000382E60E085E090E00E94382E60E086E0CD
:103AD00090E00E94382E6FEF87E090E00E94382E31
:103AE00040E050E0BA0188E090E00E944A2E60E099
:103AF0008DE090E00E94382E40E050E0BA0188E16D
:103B000090E00E944A2E60E087E190E00E94382E0B
:103B10000C943D1D0C94441DFC01329680912001B3
:103B2000882321F0809193029EE187FF96E080E058
:103B3000915008F4089521912223D1F38F5FF8CF9B
:103B40009C01FC0132969FEF80E04191461751F0B5
:103B50009F3F19F4411101C0982F8F5F8630A9F75C
:103B60009F3F09F40895290F311D97FD3A95F901FA
:103B700062830895FC01329608962191261303C0B2
:103B8000DF0111971C92E817F907B9F70895E62F9E
:103B9000E695E695E695EE3168F4E80FF92FF11D0C
:103BA000677021E030E001C0220F6A95EAF7828158
:103BB000822B82830895E62FE695E695E695EE3111
:103BC00070F4E80FF92FF11D677021E030E001C0BB
:103BD000220F6A95EAF7209582812823228308958F
:103BE00020912001222329F02091930227FD0C949B
:103BF000C71D0C94A01D20912001222329F02091A3
:103C0000930227FD0C94DB1D0C94BA1DFC01329627
:103C100080912001882351F08091930287FF06C094
:103C20008EE1DF011D928A95E9F7089586E0F9CFCC
:103C3000089508950C94191E0E941A1E80919A02EC
:103C4000843061F110921E0288E190E020E40FB60A
:103C5000F894A895809360000FBE2093600080E0E8
:103C60000E94D10280E00E9442030E941A1E83B784
:103C7000817F846083BF83B7816083BF7894889598
:103C800083B78E7F83BF0FB6F894A89580916000AC
:103C9000886180936000109260000FBE08950895BF
:103CA000CF930E94181E0E940A090E944F1EC0E076
:103CB0008C2F0E949D09892B31F4CF5FC530C1F74D
:103CC00080E0CF91089581E0FCCF08950C94651EAB
:103CD0000E946B160E9489220E949D100E9442033E
:103CE0000C94661E1F920F920FB60F9211248F93A1
:103CF0009F93AF93BF9380911E02811113C0809157
:103D00008F0290919002A0919102B09192024196FF
:103D1000A11DB11D80938F0290939002A0939102F8
:103D2000B0939202BF91AF919F918F910F900FBE70
:103D30000F901F90189582E084BD93E095BD9AEF97
:103D400097BD80936E0008952FB7F89480918F02ED
:103D500090919002A0919102B09192022FBF08958C
:103D6000CF92DF92EF92FF920F931F932FB7F894A9
:103D700040918F0250919002609191027091920255
:103D80002FBF6A017B01EE24FF248C0130E020E08C
:103D9000C016D106E206F30650F0481B590BCA01C3
:103DA0001F910F91FF90EF90DF90CF9008954150B9
:103DB0005109F3CF78941F920F920FB60F921124EE
:103DC0008F939F93AF93BF9380918F0290919002B6
:103DD000A0919102B09192020196A11DB11D809314
:103DE0008F0290939002A0939102B0939202BF91A0
:103DF000AF919F918F910F900FBE0F901F901895CC
:103E000081E08093E00080E28093D8001092C900A6
:103E10008FE19EE40197F1F700C0000087E090EB8E
:103E2000DC018093A3029093A402A093A502B09317
:103E3000A60288E19CE00FB6F894A89580936000F4
:103E40000FBE90936000FFCFAF92BF92CF92DF92F0
:103E5000EF92FF920F931F93CF93C0E0CC24C394B3
:103E6000D12CE82EF12C8C2F0E949D095C0110E0D2
:103E700000E0C601002E02C0880F991F0A94E2F7E5
:103E80008A219B21892B99F40F5F1F4F0F30110559
:103E900081F7CF5FC53039F780E0CF911F910F9147
:103EA000FF90EF90DF90CF90BF90AF900895602F7C
:103EB0007C2F80E00E94F605E816F90629F781E0DC
:103EC000ECCFCF93C82F8CE20E94241F882321F0CF
:103ED0008C2FCF910C94241F80E0CF910895CF9325
:103EE0000E94FD1C811102C00E948A1DC5E608C007
:103EF0000E940A098FE39CE90197F1F700C00000D6
:103F0000C150B1F789E20E94611F8111EFC08AE2BE
:103F10000E94611F81110E948A1D85E00E94611F1D
:103F200081110E94001F0E94081D80931D0287E0DE
:103F30000E94611F882371F08BE10E94611F88231A
:103F400009F4B1C090911D02892F8D7F91FF82608D
:103F500080931D0280911D020E940C1D0E941A1D5B
:103F600090E0909394028093930280EE0E94611FF0
:103F7000882341F090919302892F8E7F90FF81607A
:103F80008093930289E30E94611F882341F09091FE
:103F90009302892F8D7F91FF82608093930282EE3E
:103FA0000E94611F882341F090919302892F8B7F9B
:103FB00092FF84608093930286EE0E94611F8823A3
:103FC00041F090919302892F877F93FF88608093BF
:103FD000930283EE0E94611F882341F09091930227
:103FE000892F8F7E94FF80618093930285E30E94E6
:103FF000611F882341F090919302892F8F7D95FF57
:1040000080628093930281E30E94611F882341F0C4
:1040100090919302892F8F7B96FF80648093930207
:1040200081E10E94611F882341F090919302892FC2
:1040300097FB87F9805880939302809193020E94A6
:104040001E1D87E20E94611FC82F8EE10E94611F22
:104050008111C2608FE10E94611F8111C46080E202
:104060000E94611F8111C86081E20E94611F81115D
:10407000C06182E20E94611F8111C06283E20E94DE
:10408000611F8111C06484E20E94611F882341F195
:10409000C0688C2F0E94151D6C2F70E090E080E0AE
:1040A000CF910C945E1A8EE00E94611F882339F034
:1040B00090911D02892F8B7F92FF846049CF80E110
:1040C0000E94611F90911D02882329F0892F877F0C
:1040D00093FF88603DCF892F8E7F90FF816038CF1E
:1040E000C111D7CF0E94111D682FD7CFCF9108954E
:1040F0008091220280FF12C06091130185E0689FC9
:10410000B0011124759567957595679560387105AF
:10411000A8F561157105A1F1862F089581FF09C0E9
:104120006091130185E0689FB00111247595679532
:10413000EDCF82FF07C06091130185E0689FB00159
:104140001124E4CF209121022223A9F090911201A1
:104150006091130185E0689FB00111242917B0F622
:10416000269FA001279F500D1124692F70E0CA01DE
:104170000E94C12DCBCF65E070E0CECF8FE70895D0
:1041800081E008958091220280FF0CC060911101AE
:1041900070E075956795759567956115710549F19D
:1041A000862F089581FF06C06091110170E075951A
:1041B0006795F3CF6091110182FD0BC090912102B0
:1041C0009923A1F06091100180911101961738F0A8
:1041D000682F70E06038710500F38FE70895899FBC
:1041E000C001112470E00E94C12DF4CF61E070E0A5
:1041F000D7CF81E00895803F31F40E9478208195E7
:10420000809326020895813F19F40E947820F8CF08
:10421000823F31F40E947820819580932502089591
:10422000833F19F40E947820F8CF893F29F40E9437
:10423000C2208093270208958A3F21F40E94C22061
:104240008195F7CF8B3F31F40E94C22081958093F6
:10425000280208958C3F19F40E94C220F8CF843FB1
:1042600031F4809124028160809324020895853F77
:1042700021F4809124028260F7CF863F21F480915F
:1042800024028460F1CF873F21F48091240288606A
:10429000EBCF883F21F4809124028061E5CF8D3FF0
:1042A00031F48091220281608093220208958E3F32
:1042B00021F4809122028260F7CF8F3FB9F780917D
:1042C00022028460F1CF803FC1F48091260287FDF5
:1042D000109226028091250281110EC08091260243
:1042E00081110AC080912702811106C080912802A5
:1042F000811102C0109221020895813F29F480911A
:10430000260218162CF3E6CF90912502823F29F45D
:1043100097FFE0CF10922502DDCF833F19F41916E5
:10432000CCF3D8CF893F39F480912702181694F640
:1043300010922702CFCF8A3F29F48091270287FF6E
:10434000C9CFF6CF8B3F39F48091280287FFC2CFC7
:1043500010922802BFCF8C3F29F4809128021816B2
:10436000BCF3B8CF843F31F4809124028E7F8093D8
:104370002402B0CF853F21F4809124028D7FF7CFB6
:10438000863F21F4809124028B7FF1CF873F21F477
:1043900080912402877FEBCF883F21F48091240213
:1043A0008F7EE5CF8D3F31F4809122028E7F809306
:1043B000220290CF8E3F21F4809122028D7FF7CF91
:1043C0008F3F09F087CF809122028B7FF0CF83E26D
:1043D00092E00E94C3100E94A41E9093200280933A
:1043E0001F0208951F93CF93DF9380911F02909136
:1043F00020020E94B01EAC01909121022091140174
:1044000030E0911106C0209115018AE0289F9001AB
:1044100011244217530780F0809125021091260243
:10442000D0912702C091280281110AC0111161C0E8
:10443000D1115FC0C1115DC0DF91CF911F9108956F
:104440009F3F19F09F5F90932102181624F40E9459
:104450007820809325028091250287FF05C00E9465
:104460007820819580932502111624F40E947820EB
:10447000809326028091260287FF05C00E94782043
:1044800081958093260240912502442379F0309152
:104490002602332359F025EB4203A0011124509347
:1044A0002502320390011124309326021D1624F4B4
:1044B0000E94C220809327028091270287FF05C0B7
:1044C0000E94C2208195809327021C1624F40E942A
:1044D000C220809328028091280287FF05C00E9495
:1044E000C220819580932802DF91CF911F910C9477
:1044F000E7219F3F09F0A6CFB7CF86E0E3E2F2E0E5
:10450000DF011D928A95E9F7109221021092220292
:1045100008950E94FD1C811102C00E948A1D0E9404
:10452000231D809395028E3020F081708C608093E3
:1045300095028091950280FF03C086950C94D1026C
:1045400080E0FCCF80919502982F9695963030F4BC
:104550009F5F990F8170892B8093950280919502BE
:104560008160809395020E94271D80919502869517
:104570000C94D10280919502982F9E7F79F0825001
:10458000809395028E7F91E009F490E080919502EE
:1045900090FB80F9809395020E94271D80919502DF
:1045A00086950C94D1028091950280FD11C08160A6
:1045B00080939502813019F483E080939502809175
:1045C00095020E94271D8091950286950C94D10238
:1045D00008958091950280FF08C08E7F8093950298
:1045E0000E94271D80E00C94D102089580919502CD
:1045F00080FD0C94E9220C94D32290919502892F8E
:1046000086958F5F8F7791708730B8F4880F892BEC
:1046100080939502809195028E7F91E009F490E05D
:104620008091950290FB80F9809395020E94271D4E
:104630008091950286950C94D10290939502EACFD1
:10464000873008F086E0982F990F8091950281704D
:10465000892B809395028E7F91E009F490E0809100
:10466000950290FB80F9809395020E94271D80910E
:10467000950286950C94D1028091490208950F937A
:104680001F93CF93DF9300D01F92CDB7DEB78C017D
:104690000E94A525823011F0843021F584E08983C1
:1046A0001B830A8382E08093E9008FEF9091E800FA
:1046B000815095FD06C095ED9A95F1F700008111A6
:1046C000F5CF8091E80085FF0DC050E040E063E049
:1046D00070E0CE0101960E94C2258091E8008E779D
:1046E0008093E8000F900F900F90DF91CF911F9172
:1046F0000F910895CF93DF9300D01F92CDB7DEB70F
:1047000020919A02243031F523E0298380589109C1
:104710009B838A8382E08093E9008FEF9091E80089
:10472000815095FD06C095ED9A95F1F70000811135
:10473000F5CF8091E80085FF0DC050E040E063E0D8
:1047400070E0CE0101960E94C2258091E8008E772C
:104750008093E8000F900F900F90DF91CF91089514
:10476000CF93DF93EC010E94A525823011F08430B5
:10477000F9F482E08093E9008FEF9091E800815096
:1047800095FD06C095ED9A95F1F700008111F5CFE2
:104790008091E80085FF0CC050E040E066E070E0EA
:1047A000CE010E94C2258091E8008E778093E800B8
:1047B000DF91CF910895CF93DF93EC010E94A5255F
:1047C000823011F08430B9F5809120018823B1F155
:1047D0008091930287FF32C060E282E08093E9001B
:1047E0008FEF9091E800815095FD06C095ED9A9568
:1047F000F1F700008111F5CF8091E80085FF1BC023
:104800008091200170E050E040E0811104C050E050
:1048100040E068E070E0CE010E94C2258091E8008F
:104820008E778093E80080E2FE01A9E2B2E0019079
:104830000D928A95E1F7DF91CF91089568E081E0CC
:10484000CDCF80919902811109C00E9452270E9408
:10485000AF278091E20084608093E2000895109277
:1048600099020895089508950C94681E42E061EC41
:1048700081E00E94D02642E261EC82E00C94D026D6
:1048800080919C02833009F462C030F48130D9F108
:10489000823009F49EC008958A3009F48AC08B30B2
:1048A00009F470C0893009F051C080919B028132B7
:1048B00009F04CC080919F029091A002029708F0ED
:1048C00045C08091E800877F8093E8008091E800F0
:1048D00082FF38C08091F3009091F20089279827D9
:1048E0008927029729F48091F1008B7F813021F490
:1048F0008091F100809349028091E8008B7780934A
:10490000E8000C94042780919B02813AF9F480918D
:10491000E800877F8093E80080919F029091A00239
:10492000892B61F460E289E292E070E00E94112636
:104930008091E8008B778093E800089560E090E034
:1049400080E0F3CF80919A028111C0CF08958091C9
:104950009B02813AD9F780919F029091A002892B06
:10496000A9F78091E800877F8093E8008091E800B4
:1049700080FFFCCF809120018093F1008091E800BE
:104980008E77BDCF80919B02813201F780919F028B
:104990009091A002892BD1F68091E800877F8093C7
:1049A000E8000E94042780919D02809320010C94CE
:1049B0006B1680919B02813249F68091E800877FD7
:1049C0008093E8000E94042780919E0280934A020F
:1049D000089580919B02813A09F0B8CF8091E80058
:1049E000877F8093E8008091E80080FFFCCF809172
:1049F0004A02C2CF84B7877F84BF0FB6F894A895C8
:104A000080916000886180936000109260000FBE0A
:104A100080E880936100109261000E940B110E9457
:104A200052270E94AF278091E20084608093E200C9
:104A300078940E94382A0E94131186E191E00E9426
:104A4000981080919A02853029F00E941F110E94CF
:104A50002410F7CF0E941C1E80919802882389F3AE
:104A60000E94501E882369F30E94AC25EACF0C9463
:104A70003925292F33272330310571F158F421309E
:104A80003105E9F02230310511F190E080E030E0AD
:104A900020E019C021323105C1F122323105A9F7D8
:104AA00080E490E02FE834E06115710561F080EC5E
:104AB00090E02FEC33E06130710529F0E6CF82E120
:104AC00090E02DEB33E0FA013183208308958BE3EE
:104AD00090E022E833E0F7CF99278130910579F013
:104AE00040F08230910571F0039779F6ECE3F3E042
:104AF00002C0EEE7F3E0849190E09F01E4CFEEE4A2
:104B0000F3E0F9CFE2E4F3E0F6CF89E090E024E9C6
:104B100033E061157105B9F289E090E02DEA33E0E8
:104B20006130710581F2B1CF0895CF93C82F0E94F3
:104B30009425C0934B02CF91089580919A028430BE
:104B400011F081E0089582E0089580914B02811177
:104B500002C00C949D25089580E189BD82E189BD44
:104B600009B400FEFDCF8091D8008F7D8093D800DE
:104B70008091E00082608093E0008091E00081FD00
:104B8000FCCF0895AF92BF92CF92DF92FF920F9326
:104B90001F93CF93DF936C01EB018A010E942327BF
:104BA000F82E811123C00115110539F0F80180811B
:104BB0009181C81BD90BC80ED91EB12CA12C2097EE
:104BC000A9F08091E80085FD22C08091E8008E77F1
:104BD0008093E80001151105A1F0F8018081918111
:104BE000A80EB91EB182A08285E0F82E8F2DDF912C
:104BF000CF911F910F91FF90DF90CF90BF90AF901A
:104C000008950E9423278823D1F2F82EEFCFF601D2
:104C100081916F018093F1002197FFEFAF1ABF0AD6
:104C2000CECFFC018091A1029091A2028617970736
:104C3000A0F06115710529F49091E8009E7790939A
:104C4000E80090E06115710551F4911108C0809160
:104C5000E80082FF35C080E00895BC01F2CF80916A
:104C60009A028823C9F18530C9F18091E80083FD5B
:104C700031C08091E80082FDEACF8091E80080FF9A
:104C8000E1CF2091F3008091F200322F282F61159F
:104C9000710519F02830310558F091E028303105C0
:104CA00009F090E02091E8002E772093E800CACF29
:104CB00081918093F100615071092F5F3F4FE7CFE1
:104CC00080919A02882341F0853041F08091E8007C
:104CD00083FFBDCF81E0089582E0089583E00895C9
:104CE000FC018091A1029091A20286179707A0F083
:104CF0006115710529F48091E8008E778093E800B2
:104D000090E06115710551F4911108C08091E8009F
:104D100082FF36C080E00895BC01F2CF80919A02F4
:104D20008823D1F18530D1F18091E80083FD32C034
:104D30008091E80082FDEACF8091E80080FFE1CF1A
:104D40002091F3008091F200322F282F6115710518
:104D500019F02830310558F091E02830310509F07C
:104D600090E08091E8008E778093E800CACF84912C
:104D70008093F1003196615071092F5F3F4FE6CF6C
:104D800080919A02882341F0853041F08091E800BB
:104D900083FFBCCF81E0089582E0089583E0089509
:104DA000982F973028F08F708093E90081E0089564
:104DB0009093E900242F762F50E0981731F07091EE
:104DC000EC002091ED005091F00021FD02C09F5FAA
:104DD000E8CF3091EB003E7F3093EB003091ED0057
:104DE0003D7F3093ED003091EB0031603093EB006C
:104DF0007093EC002093ED005093F0002091EE00B2
:104E000027FDE5CF80E0089580919B0287FF13C0C6
:104E10008091E80082FF06C08091E8008B77809344
:104E2000E80004C080919A028111F2CF0895809128
:104E30009A028823D9F38091E80080FFF8CF80910F
:104E4000E8008E77ECCF2091E4003091E50085E614
:104E50009091EC0090FF06C09091E80090FF06C092
:104E600080E008959091E80092FDFACF90919A0227
:104E7000992391F0953091F09091EB0095FD10C041
:104E80004091E4005091E5002417350709F3815063
:104E90009A01F1F684E0089582E0089583E0089590
:104EA00081E008950E94C0270E94C827E0EEF0E04C
:104EB000808181608083E8EDF0E080818F7780835E
:104EC00019BCA7EDB0E08C918E7F8C9380818F7E92
:104ED00080831092990208950F931F93CF93DF93CD
:104EE0000E94C0270E94C827C8EDD0E088818F7734
:104EF000888388818068888388818F7D888319BCB6
:104F000010929A02109296021092980210929702B2
:104F100000EE10E0F80180818B7F808388818160C2
:104F2000888342E060E080E00E94D026E1EEF0E07D
:104F300080818E7F8083E2EEF0E0808181608083DB
:104F4000808188608083F80180818E7F8083888162
:104F500080618883DF91CF911F910F910895E8EDD3
:104F6000F0E080818F7E8083E7EDF0E080818160DA
:104F7000808384E082BF81E0809399020C946C2747
:104F8000E8EDF0E080818E7F80831092E20008954A
:104F90001092DA001092E10008951F920F920FB65E
:104FA0000F9211242F933F934F935F936F937F93AF
:104FB0008F939F93AF93BF93EF93FF938091E10003
:104FC00082FF0BC08091E20082FF07C08091E10068
:104FD0008B7F8093E1000E94372A8091DA0080FF66
:104FE00019C08091D80080FF15C08091DA008E7FB3
:104FF0008093DA008091D90080FF94C080E189BD60
:1050000082E189BD09B400FEFDCF81E080939A0260
:105010000E9421248091E10080FF19C08091E2006C
:1050200080FF15C08091E2008E7F8093E200809126
:10503000E20080618093E2008091D80080628093DA
:10504000D80019BC85E080939A020E943324809195
:10505000E10084FF29C08091E20084FF25C080E147
:1050600089BD82E189BD09B400FEFDCF8091D800E1
:105070008F7D8093D8008091E1008F7E8093E10046
:105080008091E2008F7E8093E2008091E200816057
:105090008093E20080919602882309F449C084E05D
:1050A00080939A020E9434248091E10083FF29C0FA
:1050B0008091E20083FF25C08091E100877F80938B
:1050C000E10082E080939A02109296028091E100C2
:1050D0008E7F8093E1008091E2008E7F8093E200DA
:1050E0008091E20080618093E20042E060E080E035
:1050F0000E94D0268091F00088608093F0000E948A
:105100003224FF91EF91BF91AF919F918F917F9149
:105110006F915F914F913F912F910F900FBE0F9024
:105120001F90189519BC10929A020E942F2472CFDA
:105130008091E30087FD02C081E0B2CF83E0B0CF71
:105140001F920F920FB60F9211242F933F934F93FC
:105150005F936F937F938F939F93AF93BF93CF93FF
:10516000EF93FF93C091E900CF708091EC00109213
:10517000E9008091F000877F8093F00078940E948E
:10518000DC281092E9008091F00088608093F000A4
:10519000C093E900FF91EF91CF91BF91AF919F91A3
:1051A0008F917F916F915F914F913F912F910F90D0
:1051B0000FBE0F901F9018951F93CF93DF93CDB71D
:1051C000DEB7AA970FB6F894DEBF0FBECDBFEBE9EE
:1051D000F2E08091F100819322E0E33AF207C9F70F
:1051E0000E9440248091E80083FF44C080919B028C
:1051F00090919C029A3008F03DC0E92FF0E0ED5FFD
:10520000F64D0C94F72D0D2933293A2933293A29E3
:105210009129B3293A290A2A172A803889F0823835
:1052200049F580919F028F70873020F58093E900C7
:105230008091EB0085FB882780F91092E90006C079
:105240008091970290919802911182609091E8006C
:10525000977F9093E8008093F1001092F100809185
:10526000E8008E772DC0282F2D7F21F48823D1F0E0
:10527000823059F18091E80083FF0AC08091E800F4
:10528000877F8093E8008091EB0080628093EB0041
:10529000AA960FB6F894DEBF0FBECDBFDF91CF91B7
:1052A0001F91089580919D02813021F7933009F07C
:1052B00080E0809398021092E9008091E800877F57
:1052C0008093E8000E940427D5CF80919D02811130
:1052D000F2CF80919F028F702FEF280F263050F66B
:1052E0008093E9002091EB0020FFE5CF933031F46B
:1052F0008091EB0080628093EB00DDCF9091EB001A
:1053000090619093EB0021E030E001C0220F8A957C
:10531000EAF72093EA001092EA008091EB0088609F
:10532000EACF8111A7CF10919D021F778091E300F2
:105330008078812B8093E3008091E800877F8093C1
:10534000E8000E9404278091E80080FFFCCF809154
:10535000E30080688093E30083E0111101C082E0E4
:1053600080939A0287CF8058823008F083CF809153
:105370009D0290919E028C3D23E09207A1F583E06F
:105380008A838AE289834FB7F894DE01139620E07E
:105390003EE051E2E32FF0E050935700E49120FF0C
:1053A00003C0E295EF703F5FEF708E2F90E0EA3020
:1053B000C0F0C7968D939D932F5F243159F74FBF4F
:1053C0008091E800877F8093E8006AE270E0CE0178
:1053D00001960E9411268091E8008B778093E80067
:1053E00049CFC096E7CF60919F027091A002AE01B5
:1053F0004F5F5F4F0E943725BC01892B09F43ACFDC
:105400009091E800977F9093E80089819A810E94AB
:105410007026E1CF803809F02DCF8091E800877F9A
:105420008093E800809196028093F10018CF81115B
:1054300021CF90919D02923008F01CCF8091E8001E
:10544000877F8093E800909396020E9404278091C2
:105450009602882331F084E080939A020E943624D9
:1054600009CF8091E30087FDF6CF81E0F5CF089565
:10547000CF9380919A02882399F0C091E900CF7070
:105480008091EC0080FD0EC080E0C82B1092E900F6
:105490008091E80083FD0E94DC28CF70C093E90072
:1054A000CF91089580E8F1CF5058BB27AA270E94DA
:1054B0006C2A0C94172C0E94092C38F00E94102C96
:1054C00020F039F49F3F19F426F40C94DF2B0EF4EE
:1054D000E095E7FB0C94D92BE92F0E94282C58F378
:1054E000BA17620773078407950720F079F4A6F5C9
:1054F0000C944A2C0EF4E0950B2EBA2FA02D0B0124
:10550000B90190010C01CA01A0011124FF27591B08
:1055100099F0593F50F4503E68F11A16F040A22F0E
:10552000232F342F4427585FF3CF4695379527957F
:10553000A795F0405395C9F77EF41F16BA0B620B7E
:10554000730B840BBAF09150A1F0FF0FBB1F661FC5
:10555000771F881FC2F70EC0BA0F621F731F841F08
:1055600048F4879577956795B795F7959E3F08F02E
:10557000B0CF9395880F08F09927EE0F97958795F0
:1055800008950E94D52A0C94172C0E94102C58F0D4
:105590000E94092C40F029F45F3F29F00C94D92B8C
:1055A00051110C944B2C0C94DF2B0E94282C68F387
:1055B0009923B1F3552391F3951B550BBB27AA27CC
:1055C00062177307840738F09F5F5F4F220F331F06
:1055D000441FAA1FA9F335D00E2E3AF0E0E832D0CE
:1055E00091505040E695001CCAF72BD0FE2F29D0D1
:1055F000660F771F881FBB1F261737074807AB07A3
:10560000B0E809F0BB0B802DBF01FF2793585F4F17
:105610003AF09E3F510578F00C94D92B0C944B2C0A
:105620005F3FE4F3983ED4F3869577956795B795F9
:10563000F7959F5FC9F7880F911D9695879597F904
:105640000895E1E0660F771F881FBB1F621773077D
:105650008407BA0720F0621B730B840BBA0BEE1F92
:1056600088F7E095089529F416F00C94D92B0C9442
:105670004A2C0C94DF2B0E94302CA8F39638A0F70C
:1056800007F80F92E8942BE33AEA48EB5FE70E94B1
:10569000DD2C0F920F920F924DB75EB70F920E94C2
:1056A000932CECEAF0E00E94E22B4F915F91EF9196
:1056B000FF91E595EE1FFF1F49F0FE57E068442774
:1056C000EE0F441FFA95E1F74195550B0E945D2CB2
:1056D0000F9007FE0C94512C08950E94302C88F0F6
:1056E0009F5798F0B92F9927B751B0F0E1F0660FA6
:1056F000771F881F991F1AF0BA95C9F714C0B130E7
:1057000091F00E944A2CB1E008950C944A2C672F26
:10571000782F8827B85F39F0B93FCCF38695779515
:105720006795B395D9F73EF49095809570956195FE
:105730007F4F8F4F9F4F0895E89409C097FB3EF429
:1057400090958095709561957F4F8F4F9F4F9923CE
:10575000A9F0F92F96E9BB279395F695879577954C
:105760006795B795F111F8CFFAF4BB0F11F460FF0C
:105770001BC06F5F7F4F8F4F9F4F16C0882311F064
:1057800096E911C0772321F09EE8872F762F05C078
:10579000662371F096E8862F70E060E02AF09A9513
:1057A000660F771F881FDAF7880F9695879597F908
:1057B000089597F99F6780E870E060E008959FEF93
:1057C00080EC0895DF93CF931F930F93FF92EF9296
:1057D000DF927B018C01689406C0DA2EEF010E94F3
:1057E000DA2CFE01E894A5912591359145915591CA
:1057F000A6F3EF010E946C2AFE019701A801DA943A
:1058000069F7DF90EF90FF900F911F91CF91DF919B
:10581000089500240A941616170618060906089516
:1058200000240A9412161306140605060895092E7C
:105830000394000C11F4882352F0BB0F40F4BF2BEB
:1058400011F460FF04C06F5F7F4F8F4F9F4F08952B
:1058500057FD9058440F551F59F05F3F71F0479521
:10586000880F97FB991F61F09F3F79F08795089506
:10587000121613061406551FF2CF4695F1DF08C025
:10588000161617061806991FF1CF86957105610542
:1058900008940895E894BB2766277727CB0197F9EA
:1058A00008959B01AC0160E070E080E89FE30C94F8
:1058B000C12A0C94D92B0C943C2D0E94302CD8F387
:1058C0009923C9F3940F511DA3F39150504094F0C4
:1058D00059F0882332F0660F771F881F915050408F
:1058E000C1F79E3F51052CF7880F911D969587951E
:1058F00097F908955F3FACF0983E9CF0BB278695E2
:1059000077956795B79508F4B1609395C1F7BB0F8C
:1059100058F711F460FFE8CF6F5F7F4F8F4F9F4FB5
:10592000E3CF0C944B2CFA01DC01AA0FBB1F9B01A7
:10593000AC01BF5728F4222733274427507820C0D2
:10594000B75190F4AB2F0024469537952795011C4D
:10595000A395D2F3002071F0220F331F441FB3959B
:10596000DAF30ED00C94542A61307105A0E88A074E
:10597000B94630F49B01AC016627772788279078D9
:10598000309621F0208331834283538308950E940F
:10599000DA2C0C94172C0E94092C38F00E94102C41
:1059A00020F0952311F00C94D92B0C94DF2B1124AB
:1059B0000C944B2C0E94282C70F3959FC1F3950FEB
:1059C00050E0551F629FF001729FBB27F00DB11D83
:1059D000639FAA27F00DB11DAA1F649F6627B00D13
:1059E000A11D661F829F2227B00DA11D621F739FFC
:1059F000B00DA11D621F839FA00D611D221F749F0A
:105A00003327A00D611D231F849F600D211D822F50
:105A1000762F6A2F11249F5750409AF0F1F0882377
:105A20004AF0EE0FFF1FBB1F661F771F881F9150A4
:105A30005040A9F79E3F510580F00C94D92B0C944F
:105A40004B2C5F3FE4F3983ED4F3869577956795AA
:105A5000B795F795E7959F5FC1F7FE2B880F911DCE
:105A60009695879597F908959F930E944C2D0F90D6
:105A700007FCEE5F0C94752D9F3F31F0915020F4A0
:105A8000879577956795B795880F911D969587951A
:105A900097F908950C94DF2B0E94302CD8F3E894EA
:105AA000E0E0BB279F57F0F02AED3FE049EC06C04D
:105AB000EE0FBB0F661F771F881F28F0B23A6207F0
:105AC0007307840728F0B25A620B730B840BE395BB
:105AD0009A9572F7803830F49A95BB0F661F771F3E
